{
  "address": "0x72F2b87dB9cF46d19618dAc75EBa656cE747045c",
  "abi": [
    {
      "inputs": [
        {
          "internalType": "bytes32",
          "name": "_seedCommitment",
          "type": "bytes32"
        },
        {
          "internalType": "bytes32",
          "name": "_entityTraitMerkleRoot",
          "type": "bytes32"
        },
        {
          "internalType": "uint256",
          "name": "_gridWidth",
          "type": "uint256"
        },
        {
          "internalType": "uint256",
          "name": "_gridHeight",
          "type": "uint256"
        },
        {
          "internalType": "uint256",
          "name": "_totalSupply",
          "type": "uint256"
        },
        {
          "internalType": "uint256",
          "name": "_mintPrice",
          "type": "uint256"
        },
        {
          "internalType": "address",
          "name": "_movementVerifier",
          "type": "address"
        },
        {
          "internalType": "address",
          "name": "_entityMovementVerifier",
          "type": "address"
        },
        {
          "internalType": "address",
          "name": "_encounterVerifier",
          "type": "address"
        },
        {
          "internalType": "bytes32",
          "name": "_decryptionKeyCommitment",
          "type": "bytes32"
        },
        {
          "internalType": "bytes32",
          "name": "_traitModuliCommitment",
          "type": "bytes32"
        },
        {
          "internalType": "address",
          "name": "_owner",
          "type": "address"
        }
      ],
      "stateMutability": "nonpayable",
      "type": "constructor"
    },
    {
      "inputs": [],
      "name": "AccountBalanceOverflow",
      "type": "error"
    },
    {
      "inputs": [],
      "name": "AlreadyInitialized",
      "type": "error"
    },
    {
      "inputs": [],
      "name": "AlreadyRegistered",
      "type": "error"
    },
    {
      "inputs": [],
      "name": "BalanceQueryForZeroAddress",
      "type": "error"
    },
    {
      "inputs": [],
      "name": "EntityAlreadyMinted",
      "type": "error"
    },
    {
      "inputs": [],
      "name": "EntityNotMinted",
      "type": "error"
    },
    {
      "inputs": [],
      "name": "IncorrectPayment",
      "type": "error"
    },
    {
      "inputs": [],
      "name": "InsufficientDeposit",
      "type": "error"
    },
    {
      "inputs": [],
      "name": "InvalidProof",
      "type": "error"
    },
    {
      "inputs": [],
      "name": "InvalidSignature",
      "type": "error"
    },
    {
      "inputs": [],
      "name": "InvalidTraitProof",
      "type": "error"
    },
    {
      "inputs": [],
      "name": "NewOwnerIsZeroAddress",
      "type": "error"
    },
    {
      "inputs": [],
      "name": "NoHandoverRequest",
      "type": "error"
    },
    {
      "inputs": [],
      "name": "NotEntityOwner",
      "type": "error"
    },
    {
      "inputs": [],
      "name": "NotOwnerNorApproved",
      "type": "error"
    },
    {
      "inputs": [],
      "name": "NotRegistered",
      "type": "error"
    },
    {
      "inputs": [],
      "name": "ReimbursementFailed",
      "type": "error"
    },
    {
      "inputs": [],
      "name": "SupplyExhausted",
      "type": "error"
    },
    {
      "inputs": [],
      "name": "TokenAlreadyExists",
      "type": "error"
    },
    {
      "inputs": [],
      "name": "TokenDoesNotExist",
      "type": "error"
    },
    {
      "inputs": [],
      "name": "TransferFromIncorrectOwner",
      "type": "error"
    },
    {
      "inputs": [],
      "name": "TransferToNonERC721ReceiverImplementer",
      "type": "error"
    },
    {
      "inputs": [],
      "name": "TransferToZeroAddress",
      "type": "error"
    },
    {
      "inputs": [],
      "name": "Unauthorized",
      "type": "error"
    },
    {
      "inputs": [],
      "name": "WithdrawFailed",
      "type": "error"
    },
    {
      "anonymous": false,
      "inputs": [
        {
          "indexed": true,
          "internalType": "address",
          "name": "owner",
          "type": "address"
        },
        {
          "indexed": true,
          "internalType": "address",
          "name": "account",
          "type": "address"
        },
        {
          "indexed": true,
          "internalType": "uint256",
          "name": "id",
          "type": "uint256"
        }
      ],
      "name": "Approval",
      "type": "event"
    },
    {
      "anonymous": false,
      "inputs": [
        {
          "indexed": true,
          "internalType": "address",
          "name": "owner",
          "type": "address"
        },
        {
          "indexed": true,
          "internalType": "address",
          "name": "operator",
          "type": "address"
        },
        {
          "indexed": false,
          "internalType": "bool",
          "name": "isApproved",
          "type": "bool"
        }
      ],
      "name": "ApprovalForAll",
      "type": "event"
    },
    {
      "anonymous": false,
      "inputs": [
        {
          "indexed": false,
          "internalType": "uint256",
          "name": "_fromTokenId",
          "type": "uint256"
        },
        {
          "indexed": false,
          "internalType": "uint256",
          "name": "_toTokenId",
          "type": "uint256"
        }
      ],
      "name": "BatchMetadataUpdate",
      "type": "event"
    },
    {
      "anonymous": false,
      "inputs": [],
      "name": "ContractURIUpdated",
      "type": "event"
    },
    {
      "anonymous": false,
      "inputs": [
        {
          "indexed": true,
          "internalType": "address",
          "name": "participant",
          "type": "address"
        }
      ],
      "name": "DepositDepleted",
      "type": "event"
    },
    {
      "anonymous": false,
      "inputs": [
        {
          "indexed": true,
          "internalType": "address",
          "name": "participant",
          "type": "address"
        },
        {
          "indexed": false,
          "internalType": "uint256",
          "name": "amount",
          "type": "uint256"
        }
      ],
      "name": "DepositWithdrawn",
      "type": "event"
    },
    {
      "anonymous": false,
      "inputs": [
        {
          "indexed": true,
          "internalType": "address",
          "name": "participant",
          "type": "address"
        },
        {
          "indexed": false,
          "internalType": "uint256",
          "name": "amount",
          "type": "uint256"
        },
        {
          "indexed": false,
          "internalType": "uint256",
          "name": "totalBalance",
          "type": "uint256"
        }
      ],
      "name": "Deposited",
      "type": "event"
    },
    {
      "anonymous": false,
      "inputs": [
        {
          "indexed": true,
          "internalType": "uint256",
          "name": "entityId",
          "type": "uint256"
        },
        {
          "indexed": false,
          "internalType": "bytes32",
          "name": "directionCommitment",
          "type": "bytes32"
        },
        {
          "indexed": false,
          "internalType": "uint256",
          "name": "moveCounter",
          "type": "uint256"
        }
      ],
      "name": "EntityMoved",
      "type": "event"
    },
    {
      "anonymous": false,
      "inputs": [
        {
          "indexed": false,
          "internalType": "uint256",
          "name": "_tokenId",
          "type": "uint256"
        }
      ],
      "name": "MetadataUpdate",
      "type": "event"
    },
    {
      "anonymous": false,
      "inputs": [
        {
          "indexed": false,
          "internalType": "uint256",
          "name": "oldPrice",
          "type": "uint256"
        },
        {
          "indexed": false,
          "internalType": "uint256",
          "name": "newPrice",
          "type": "uint256"
        }
      ],
      "name": "MintPriceUpdated",
      "type": "event"
    },
    {
      "anonymous": false,
      "inputs": [
        {
          "indexed": true,
          "internalType": "address",
          "name": "participant",
          "type": "address"
        },
        {
          "indexed": true,
          "internalType": "uint256",
          "name": "entityId",
          "type": "uint256"
        },
        {
          "indexed": false,
          "internalType": "uint256",
          "name": "moveCounter",
          "type": "uint256"
        },
        {
          "indexed": false,
          "internalType": "bytes32",
          "name": "entityTraitHash",
          "type": "bytes32"
        }
      ],
      "name": "Minted",
      "type": "event"
    },
    {
      "anonymous": false,
      "inputs": [
        {
          "indexed": true,
          "internalType": "address",
          "name": "participant",
          "type": "address"
        },
        {
          "indexed": false,
          "internalType": "bytes32",
          "name": "newCommitment",
          "type": "bytes32"
        },
        {
          "indexed": false,
          "internalType": "uint256",
          "name": "moveCounter",
          "type": "uint256"
        }
      ],
      "name": "Moved",
      "type": "event"
    },
    {
      "anonymous": false,
      "inputs": [
        {
          "indexed": true,
          "internalType": "address",
          "name": "pendingOwner",
          "type": "address"
        }
      ],
      "name": "OwnershipHandoverCanceled",
      "type": "event"
    },
    {
      "anonymous": false,
      "inputs": [
        {
          "indexed": true,
          "internalType": "address",
          "name": "pendingOwner",
          "type": "address"
        }
      ],
      "name": "OwnershipHandoverRequested",
      "type": "event"
    },
    {
      "anonymous": false,
      "inputs": [
        {
          "indexed": true,
          "internalType": "address",
          "name": "oldOwner",
          "type": "address"
        },
        {
          "indexed": true,
          "internalType": "address",
          "name": "newOwner",
          "type": "address"
        }
      ],
      "name": "OwnershipTransferred",
      "type": "event"
    },
    {
      "anonymous": false,
      "inputs": [
        {
          "indexed": true,
          "internalType": "address",
          "name": "participant",
          "type": "address"
        },
        {
          "indexed": false,
          "internalType": "bytes32",
          "name": "positionCommitment",
          "type": "bytes32"
        }
      ],
      "name": "Registered",
      "type": "event"
    },
    {
      "anonymous": false,
      "inputs": [
        {
          "indexed": true,
          "internalType": "address",
          "name": "user",
          "type": "address"
        },
        {
          "indexed": true,
          "internalType": "uint256",
          "name": "roles",
          "type": "uint256"
        }
      ],
      "name": "RolesUpdated",
      "type": "event"
    },
    {
      "anonymous": false,
      "inputs": [
        {
          "indexed": true,
          "internalType": "address",
          "name": "from",
          "type": "address"
        },
        {
          "indexed": true,
          "internalType": "address",
          "name": "to",
          "type": "address"
        },
        {
          "indexed": true,
          "internalType": "uint256",
          "name": "id",
          "type": "uint256"
        }
      ],
      "name": "Transfer",
      "type": "event"
    },
    {
      "inputs": [],
      "name": "EDITOR",
      "outputs": [
        {
          "internalType": "uint256",
          "name": "",
          "type": "uint256"
        }
      ],
      "stateMutability": "view",
      "type": "function"
    },
    {
      "inputs": [],
      "name": "GAS_OVERHEAD",
      "outputs": [
        {
          "internalType": "uint256",
          "name": "",
          "type": "uint256"
        }
      ],
      "stateMutability": "view",
      "type": "function"
    },
    {
      "inputs": [],
      "name": "ORACLE",
      "outputs": [
        {
          "internalType": "uint256",
          "name": "",
          "type": "uint256"
        }
      ],
      "stateMutability": "view",
      "type": "function"
    },
    {
      "inputs": [],
      "name": "allTokenStates",
      "outputs": [
        {
          "components": [
            {
              "internalType": "address",
              "name": "owner",
              "type": "address"
            },
            {
              "internalType": "uint256",
              "name": "moveCount",
              "type": "uint256"
            },
            {
              "internalType": "bytes32",
              "name": "traitHash",
              "type": "bytes32"
            },
            {
              "internalType": "bytes32",
              "name": "positionCommitment",
              "type": "bytes32"
            },
            {
              "internalType": "bytes32",
              "name": "blindingSeedCommitment",
              "type": "bytes32"
            }
          ],
          "internalType": "struct TallGrass.TokenState[]",
          "name": "out",
          "type": "tuple[]"
        }
      ],
      "stateMutability": "view",
      "type": "function"
    },
    {
      "inputs": [
        {
          "internalType": "address",
          "name": "account",
          "type": "address"
        },
        {
          "internalType": "uint256",
          "name": "id",
          "type": "uint256"
        }
      ],
      "name": "approve",
      "outputs": [],
      "stateMutability": "payable",
      "type": "function"
    },
    {
      "inputs": [
        {
          "internalType": "uint256",
          "name": "entityId",
          "type": "uint256"
        },
        {
          "internalType": "address",
          "name": "to",
          "type": "address"
        },
        {
          "internalType": "bytes32",
          "name": "_entityTraitHash",
          "type": "bytes32"
        },
        {
          "internalType": "bytes32",
          "name": "initialPositionCommitment",
          "type": "bytes32"
        },
        {
          "internalType": "bytes32",
          "name": "blindingSeedCommitment",
          "type": "bytes32"
        },
        {
          "internalType": "bytes32[]",
          "name": "traitMerkleProof",
          "type": "bytes32[]"
        }
      ],
      "name": "artistMint",
      "outputs": [],
      "stateMutability": "nonpayable",
      "type": "function"
    },
    {
      "inputs": [
        {
          "internalType": "address",
          "name": "owner",
          "type": "address"
        }
      ],
      "name": "balanceOf",
      "outputs": [
        {
          "internalType": "uint256",
          "name": "result",
          "type": "uint256"
        }
      ],
      "stateMutability": "view",
      "type": "function"
    },
    {
      "inputs": [],
      "name": "cancelOwnershipHandover",
      "outputs": [],
      "stateMutability": "payable",
      "type": "function"
    },
    {
      "inputs": [
        {
          "internalType": "address",
          "name": "pendingOwner",
          "type": "address"
        }
      ],
      "name": "completeOwnershipHandover",
      "outputs": [],
      "stateMutability": "payable",
      "type": "function"
    },
    {
      "inputs": [],
      "name": "contractURI",
      "outputs": [
        {
          "internalType": "string",
          "name": "",
          "type": "string"
        }
      ],
      "stateMutability": "view",
      "type": "function"
    },
    {
      "inputs": [],
      "name": "decryptionKeyCommitment",
      "outputs": [
        {
          "internalType": "bytes32",
          "name": "",
          "type": "bytes32"
        }
      ],
      "stateMutability": "view",
      "type": "function"
    },
    {
      "inputs": [],
      "name": "deposit",
      "outputs": [],
      "stateMutability": "payable",
      "type": "function"
    },
    {
      "inputs": [
        {
          "internalType": "address",
          "name": "",
          "type": "address"
        }
      ],
      "name": "depositBalance",
      "outputs": [
        {
          "internalType": "uint256",
          "name": "",
          "type": "uint256"
        }
      ],
      "stateMutability": "view",
      "type": "function"
    },
    {
      "inputs": [
        {
          "internalType": "uint256",
          "name": "",
          "type": "uint256"
        }
      ],
      "name": "eP",
      "outputs": [
        {
          "internalType": "address",
          "name": "",
          "type": "address"
        }
      ],
      "stateMutability": "view",
      "type": "function"
    },
    {
      "inputs": [
        {
          "internalType": "uint256",
          "name": "fromTokenId",
          "type": "uint256"
        },
        {
          "internalType": "uint256",
          "name": "toTokenId",
          "type": "uint256"
        }
      ],
      "name": "emitBatchMetadataUpdate",
      "outputs": [],
      "stateMutability": "nonpayable",
      "type": "function"
    },
    {
      "inputs": [],
      "name": "emitContractURIUpdated",
      "outputs": [],
      "stateMutability": "nonpayable",
      "type": "function"
    },
    {
      "inputs": [
        {
          "internalType": "uint256",
          "name": "tokenId",
          "type": "uint256"
        }
      ],
      "name": "emitMetadataUpdate",
      "outputs": [],
      "stateMutability": "nonpayable",
      "type": "function"
    },
    {
      "inputs": [],
      "name": "encounterVerifier",
      "outputs": [
        {
          "internalType": "contract IVerifier",
          "name": "",
          "type": "address"
        }
      ],
      "stateMutability": "view",
      "type": "function"
    },
    {
      "inputs": [
        {
          "internalType": "uint256",
          "name": "",
          "type": "uint256"
        }
      ],
      "name": "entityBlindingSeedCommitments",
      "outputs": [
        {
          "internalType": "bytes32",
          "name": "",
          "type": "bytes32"
        }
      ],
      "stateMutability": "view",
      "type": "function"
    },
    {
      "inputs": [
        {
          "internalType": "uint256",
          "name": "",
          "type": "uint256"
        }
      ],
      "name": "entityMinted",
      "outputs": [
        {
          "internalType": "bool",
          "name": "",
          "type": "bool"
        }
      ],
      "stateMutability": "view",
      "type": "function"
    },
    {
      "inputs": [
        {
          "internalType": "uint256",
          "name": "",
          "type": "uint256"
        }
      ],
      "name": "entityMoveCount",
      "outputs": [
        {
          "internalType": "uint256",
          "name": "",
          "type": "uint256"
        }
      ],
      "stateMutability": "view",
      "type": "function"
    },
    {
      "inputs": [],
      "name": "entityMovementVerifier",
      "outputs": [
        {
          "internalType": "contract IVerifier",
          "name": "",
          "type": "address"
        }
      ],
      "stateMutability": "view",
      "type": "function"
    },
    {
      "inputs": [
        {
          "internalType": "uint256",
          "name": "",
          "type": "uint256"
        }
      ],
      "name": "entityPositionCommitments",
      "outputs": [
        {
          "internalType": "bytes32",
          "name": "",
          "type": "bytes32"
        }
      ],
      "stateMutability": "view",
      "type": "function"
    },
    {
      "inputs": [
        {
          "internalType": "uint256",
          "name": "",
          "type": "uint256"
        }
      ],
      "name": "entityTraitHash",
      "outputs": [
        {
          "internalType": "bytes32",
          "name": "",
          "type": "bytes32"
        }
      ],
      "stateMutability": "view",
      "type": "function"
    },
    {
      "inputs": [],
      "name": "entityTraitMerkleRoot",
      "outputs": [
        {
          "internalType": "bytes32",
          "name": "",
          "type": "bytes32"
        }
      ],
      "stateMutability": "view",
      "type": "function"
    },
    {
      "inputs": [
        {
          "internalType": "uint256",
          "name": "id",
          "type": "uint256"
        }
      ],
      "name": "getApproved",
      "outputs": [
        {
          "internalType": "address",
          "name": "result",
          "type": "address"
        }
      ],
      "stateMutability": "view",
      "type": "function"
    },
    {
      "inputs": [
        {
          "internalType": "address",
          "name": "user",
          "type": "address"
        },
        {
          "internalType": "uint256",
          "name": "roles",
          "type": "uint256"
        }
      ],
      "name": "grantRoles",
      "outputs": [],
      "stateMutability": "payable",
      "type": "function"
    },
    {
      "inputs": [],
      "name": "gridHeight",
      "outputs": [
        {
          "internalType": "uint256",
          "name": "",
          "type": "uint256"
        }
      ],
      "stateMutability": "view",
      "type": "function"
    },
    {
      "inputs": [],
      "name": "gridWidth",
      "outputs": [
        {
          "internalType": "uint256",
          "name": "",
          "type": "uint256"
        }
      ],
      "stateMutability": "view",
      "type": "function"
    },
    {
      "inputs": [
        {
          "internalType": "address",
          "name": "user",
          "type": "address"
        },
        {
          "internalType": "uint256",
          "name": "roles",
          "type": "uint256"
        }
      ],
      "name": "hasAllRoles",
      "outputs": [
        {
          "internalType": "bool",
          "name": "",
          "type": "bool"
        }
      ],
      "stateMutability": "view",
      "type": "function"
    },
    {
      "inputs": [
        {
          "internalType": "address",
          "name": "user",
          "type": "address"
        },
        {
          "internalType": "uint256",
          "name": "roles",
          "type": "uint256"
        }
      ],
      "name": "hasAnyRole",
      "outputs": [
        {
          "internalType": "bool",
          "name": "",
          "type": "bool"
        }
      ],
      "stateMutability": "view",
      "type": "function"
    },
    {
      "inputs": [
        {
          "internalType": "address",
          "name": "owner",
          "type": "address"
        },
        {
          "internalType": "address",
          "name": "operator",
          "type": "address"
        }
      ],
      "name": "isApprovedForAll",
      "outputs": [
        {
          "internalType": "bool",
          "name": "result",
          "type": "bool"
        }
      ],
      "stateMutability": "view",
      "type": "function"
    },
    {
      "inputs": [
        {
          "internalType": "address",
          "name": "",
          "type": "address"
        }
      ],
      "name": "isParticipant",
      "outputs": [
        {
          "internalType": "bool",
          "name": "",
          "type": "bool"
        }
      ],
      "stateMutability": "view",
      "type": "function"
    },
    {
      "inputs": [],
      "name": "metadataContract",
      "outputs": [
        {
          "internalType": "address",
          "name": "",
          "type": "address"
        }
      ],
      "stateMutability": "view",
      "type": "function"
    },
    {
      "inputs": [
        {
          "internalType": "uint256",
          "name": "entityId",
          "type": "uint256"
        },
        {
          "internalType": "bytes",
          "name": "encounterProof",
          "type": "bytes"
        },
        {
          "internalType": "bytes32",
          "name": "_entityTraitHash",
          "type": "bytes32"
        },
        {
          "internalType": "bytes32",
          "name": "initialPositionCommitment",
          "type": "bytes32"
        },
        {
          "internalType": "bytes32",
          "name": "blindingSeedCommitment",
          "type": "bytes32"
        },
        {
          "internalType": "bytes32[]",
          "name": "traitMerkleProof",
          "type": "bytes32[]"
        }
      ],
      "name": "mint",
      "outputs": [],
      "stateMutability": "payable",
      "type": "function"
    },
    {
      "inputs": [],
      "name": "mintPrice",
      "outputs": [
        {
          "internalType": "uint256",
          "name": "",
          "type": "uint256"
        }
      ],
      "stateMutability": "view",
      "type": "function"
    },
    {
      "inputs": [
        {
          "internalType": "bytes",
          "name": "proof",
          "type": "bytes"
        },
        {
          "internalType": "bytes32",
          "name": "newPositionCommitment",
          "type": "bytes32"
        }
      ],
      "name": "move",
      "outputs": [],
      "stateMutability": "nonpayable",
      "type": "function"
    },
    {
      "inputs": [],
      "name": "moveCounter",
      "outputs": [
        {
          "internalType": "uint256",
          "name": "",
          "type": "uint256"
        }
      ],
      "stateMutability": "view",
      "type": "function"
    },
    {
      "inputs": [
        {
          "internalType": "uint256",
          "name": "entityId",
          "type": "uint256"
        },
        {
          "internalType": "bytes",
          "name": "proof",
          "type": "bytes"
        },
        {
          "internalType": "bytes32",
          "name": "newPositionCommitment",
          "type": "bytes32"
        },
        {
          "internalType": "bytes32",
          "name": "directionCommitment",
          "type": "bytes32"
        }
      ],
      "name": "moveEntity",
      "outputs": [],
      "stateMutability": "nonpayable",
      "type": "function"
    },
    {
      "inputs": [],
      "name": "movementVerifier",
      "outputs": [
        {
          "internalType": "contract IVerifier",
          "name": "",
          "type": "address"
        }
      ],
      "stateMutability": "view",
      "type": "function"
    },
    {
      "inputs": [],
      "name": "name",
      "outputs": [
        {
          "internalType": "string",
          "name": "",
          "type": "string"
        }
      ],
      "stateMutability": "pure",
      "type": "function"
    },
    {
      "inputs": [],
      "name": "owner",
      "outputs": [
        {
          "internalType": "address",
          "name": "result",
          "type": "address"
        }
      ],
      "stateMutability": "view",
      "type": "function"
    },
    {
      "inputs": [
        {
          "internalType": "uint256",
          "name": "id",
          "type": "uint256"
        }
      ],
      "name": "ownerOf",
      "outputs": [
        {
          "internalType": "address",
          "name": "result",
          "type": "address"
        }
      ],
      "stateMutability": "view",
      "type": "function"
    },
    {
      "inputs": [
        {
          "internalType": "address",
          "name": "pendingOwner",
          "type": "address"
        }
      ],
      "name": "ownershipHandoverExpiresAt",
      "outputs": [
        {
          "internalType": "uint256",
          "name": "result",
          "type": "uint256"
        }
      ],
      "stateMutability": "view",
      "type": "function"
    },
    {
      "inputs": [
        {
          "internalType": "address",
          "name": "",
          "type": "address"
        }
      ],
      "name": "participantMoveCount",
      "outputs": [
        {
          "internalType": "uint256",
          "name": "",
          "type": "uint256"
        }
      ],
      "stateMutability": "view",
      "type": "function"
    },
    {
      "inputs": [
        {
          "internalType": "address",
          "name": "",
          "type": "address"
        }
      ],
      "name": "positionCommitments",
      "outputs": [
        {
          "internalType": "bytes32",
          "name": "",
          "type": "bytes32"
        }
      ],
      "stateMutability": "view",
      "type": "function"
    },
    {
      "inputs": [
        {
          "internalType": "bytes32",
          "name": "initialPositionCommitment",
          "type": "bytes32"
        },
        {
          "internalType": "bytes",
          "name": "oracleSignature",
          "type": "bytes"
        }
      ],
      "name": "register",
      "outputs": [],
      "stateMutability": "nonpayable",
      "type": "function"
    },
    {
      "inputs": [
        {
          "internalType": "address",
          "name": "participant",
          "type": "address"
        },
        {
          "internalType": "bytes",
          "name": "proof",
          "type": "bytes"
        },
        {
          "internalType": "bytes32",
          "name": "newPositionCommitment",
          "type": "bytes32"
        }
      ],
      "name": "relayMove",
      "outputs": [],
      "stateMutability": "nonpayable",
      "type": "function"
    },
    {
      "inputs": [],
      "name": "renounceOwnership",
      "outputs": [],
      "stateMutability": "payable",
      "type": "function"
    },
    {
      "inputs": [
        {
          "internalType": "uint256",
          "name": "roles",
          "type": "uint256"
        }
      ],
      "name": "renounceRoles",
      "outputs": [],
      "stateMutability": "payable",
      "type": "function"
    },
    {
      "inputs": [],
      "name": "requestOwnershipHandover",
      "outputs": [],
      "stateMutability": "payable",
      "type": "function"
    },
    {
      "inputs": [
        {
          "internalType": "address",
          "name": "user",
          "type": "address"
        },
        {
          "internalType": "uint256",
          "name": "roles",
          "type": "uint256"
        }
      ],
      "name": "revokeRoles",
      "outputs": [],
      "stateMutability": "payable",
      "type": "function"
    },
    {
      "inputs": [
        {
          "internalType": "address",
          "name": "user",
          "type": "address"
        }
      ],
      "name": "rolesOf",
      "outputs": [
        {
          "internalType": "uint256",
          "name": "roles",
          "type": "uint256"
        }
      ],
      "stateMutability": "view",
      "type": "function"
    },
    {
      "inputs": [
        {
          "internalType": "uint256",
          "name": "eId",
          "type": "uint256"
        },
        {
          "internalType": "address",
          "name": "p",
          "type": "address"
        }
      ],
      "name": "sEP",
      "outputs": [],
      "stateMutability": "nonpayable",
      "type": "function"
    },
    {
      "inputs": [
        {
          "internalType": "address",
          "name": "from",
          "type": "address"
        },
        {
          "internalType": "address",
          "name": "to",
          "type": "address"
        },
        {
          "internalType": "uint256",
          "name": "id",
          "type": "uint256"
        }
      ],
      "name": "safeTransferFrom",
      "outputs": [],
      "stateMutability": "payable",
      "type": "function"
    },
    {
      "inputs": [
        {
          "internalType": "address",
          "name": "from",
          "type": "address"
        },
        {
          "internalType": "address",
          "name": "to",
          "type": "address"
        },
        {
          "internalType": "uint256",
          "name": "id",
          "type": "uint256"
        },
        {
          "internalType": "bytes",
          "name": "data",
          "type": "bytes"
        }
      ],
      "name": "safeTransferFrom",
      "outputs": [],
      "stateMutability": "payable",
      "type": "function"
    },
    {
      "inputs": [],
      "name": "seedCommitment",
      "outputs": [
        {
          "internalType": "bytes32",
          "name": "",
          "type": "bytes32"
        }
      ],
      "stateMutability": "view",
      "type": "function"
    },
    {
      "inputs": [
        {
          "internalType": "address",
          "name": "operator",
          "type": "address"
        },
        {
          "internalType": "bool",
          "name": "isApproved",
          "type": "bool"
        }
      ],
      "name": "setApprovalForAll",
      "outputs": [],
      "stateMutability": "nonpayable",
      "type": "function"
    },
    {
      "inputs": [
        {
          "internalType": "address",
          "name": "_metadataContract",
          "type": "address"
        }
      ],
      "name": "setMetadataContract",
      "outputs": [],
      "stateMutability": "nonpayable",
      "type": "function"
    },
    {
      "inputs": [
        {
          "internalType": "uint256",
          "name": "_mintPrice",
          "type": "uint256"
        }
      ],
      "name": "setMintPrice",
      "outputs": [],
      "stateMutability": "nonpayable",
      "type": "function"
    },
    {
      "inputs": [
        {
          "internalType": "bytes4",
          "name": "interfaceId",
          "type": "bytes4"
        }
      ],
      "name": "supportsInterface",
      "outputs": [
        {
          "internalType": "bool",
          "name": "",
          "type": "bool"
        }
      ],
      "stateMutability": "view",
      "type": "function"
    },
    {
      "inputs": [],
      "name": "symbol",
      "outputs": [
        {
          "internalType": "string",
          "name": "",
          "type": "string"
        }
      ],
      "stateMutability": "pure",
      "type": "function"
    },
    {
      "inputs": [
        {
          "internalType": "uint256[]",
          "name": "ids",
          "type": "uint256[]"
        }
      ],
      "name": "tokenStates",
      "outputs": [
        {
          "components": [
            {
              "internalType": "address",
              "name": "owner",
              "type": "address"
            },
            {
              "internalType": "uint256",
              "name": "moveCount",
              "type": "uint256"
            },
            {
              "internalType": "bytes32",
              "name": "traitHash",
              "type": "bytes32"
            },
            {
              "internalType": "bytes32",
              "name": "positionCommitment",
              "type": "bytes32"
            },
            {
              "internalType": "bytes32",
              "name": "blindingSeedCommitment",
              "type": "bytes32"
            }
          ],
          "internalType": "struct TallGrass.TokenState[]",
          "name": "out",
          "type": "tuple[]"
        }
      ],
      "stateMutability": "view",
      "type": "function"
    },
    {
      "inputs": [
        {
          "internalType": "uint256",
          "name": "tokenId",
          "type": "uint256"
        }
      ],
      "name": "tokenURI",
      "outputs": [
        {
          "internalType": "string",
          "name": "",
          "type": "string"
        }
      ],
      "stateMutability": "view",
      "type": "function"
    },
    {
      "inputs": [],
      "name": "totalDeposits",
      "outputs": [
        {
          "internalType": "uint256",
          "name": "",
          "type": "uint256"
        }
      ],
      "stateMutability": "view",
      "type": "function"
    },
    {
      "inputs": [],
      "name": "totalMinted",
      "outputs": [
        {
          "internalType": "uint256",
          "name": "",
          "type": "uint256"
        }
      ],
      "stateMutability": "view",
      "type": "function"
    },
    {
      "inputs": [],
      "name": "totalSupply",
      "outputs": [
        {
          "internalType": "uint256",
          "name": "",
          "type": "uint256"
        }
      ],
      "stateMutability": "view",
      "type": "function"
    },
    {
      "inputs": [],
      "name": "traitModuliCommitment",
      "outputs": [
        {
          "internalType": "bytes32",
          "name": "",
          "type": "bytes32"
        }
      ],
      "stateMutability": "view",
      "type": "function"
    },
    {
      "inputs": [
        {
          "internalType": "address",
          "name": "from",
          "type": "address"
        },
        {
          "internalType": "address",
          "name": "to",
          "type": "address"
        },
        {
          "internalType": "uint256",
          "name": "id",
          "type": "uint256"
        }
      ],
      "name": "transferFrom",
      "outputs": [],
      "stateMutability": "payable",
      "type": "function"
    },
    {
      "inputs": [
        {
          "internalType": "address",
          "name": "newOwner",
          "type": "address"
        }
      ],
      "name": "transferOwnership",
      "outputs": [],
      "stateMutability": "payable",
      "type": "function"
    },
    {
      "inputs": [],
      "name": "withdraw",
      "outputs": [],
      "stateMutability": "nonpayable",
      "type": "function"
    },
    {
      "inputs": [
        {
          "internalType": "uint256",
          "name": "amount",
          "type": "uint256"
        }
      ],
      "name": "withdrawDeposit",
      "outputs": [],
      "stateMutability": "nonpayable",
      "type": "function"
    }
  ],
  "transactionHash": "0xd653b1a62bf120f13ac14cfd06c0f63684aff97aac89e87c8e11bec4a52f2527",
  "args": [
    "0x048751a64c7e699f84c6baa8e188327efd0515c9d1304bc6230433502a464f78",
    "0xd95b5904bcec2dbb67d97da53f030a9d9c4b0356a12cfa8a6501bdc5ddd9c659",
    "32",
    "32",
    "32",
    "200000000000000000",
    "0xE057834BD33FB066755B1620EA626C6a972015d6",
    "0xc1F40923785E7016CEe12aD17D1de4c6b3be375C",
    "0x3D66BC8b9f5487E411974f2390f6b19148839117",
    "0x06af1d22db2663f3462bdb6d0fb3ee048ce2aa7b482c072bd8d4a9962df8c14b",
    "0x8a0d701bbdb6c380516b4afaa2b0ea12b33afce3bef9ea63c8ba2c4d24c1e7e4",
    "0xfFF2E6B9A95e7BfF4a247D799106F0E4a3b7FEed"
  ],
  "numDeployments": 3,
  "solcInputHash": "50f9f1bb5c88ad8ef29bda3e0ea4a6dc",
  "bytecode": "0x6101c0346101f657601f612d8838819003918201601f19168301916001600160401b038311848410176101fa57808492610180946040528339810103126101f657805190602081015160408201516060830151608084015160a085015161006860c0870161020e565b9161007560e0880161020e565b93610083610100890161020e565b956101208901519761009e6101606101408c01519b0161020e565b60809b909b5260a05260c05260e052610100525f9081556001600160a01b03918216610120529181166101405291821661016052610180929092526101a0929092529116638b78c6d819819055907f8be0079c531659141344cd1fd0a4f28419497f9722a3daafe3b4186f6b6457e08180a3604051612b65908161022382396080518181816106ca01526115c2015260a0518181816103ab0152610819015260c05181818161071601528181610d8101528181611068015281816117050152611a30015260e05181818161074101528181610dac01528181611093015281816117300152611ef301526101005181818161067901528181611eb901528181611f76015261207b0152610120518181816104f801528181610df7015261177b015261014051818181610abd01526111150152610160518181816107a20152612242015261018051816103e501526101a0518161131c0152f35b5f80fd5b634e487b7160e01b5f52604160045260245ffd5b51906001600160a01b03821682036101f65756fe6080806040526004361015610012575f80fd5b5f3560e01c90816301ffc9a7146122715750806302deb69f1461222d57806306fdde03146121e9578063081812fc14612198578063095ea7b3146120e35780630d7cdba4146120695780630ebc518e14611f16578063108c5e1414611edc57806318160ddd14611ea2578063183a4f6e14611e8a5780631c10893f14611e2a5780631cd64df414611df157806323b872dd14611ddf5780632569296214611d965780632a28e5a314611be15780632b062c9d14611bb25780632de9480714611b805780633190b9ea14611b2157806333289a4614611a965780633520982114611a6e57806338013f0214611a5357806338b145df14611a195780633ccfd60b146119ce57806342842e0e1461199557806348f640d9146119785780634a4ee7b114611950578063514e62fc14611918578063533b7d35146118e057806354d1f13d1461189c5780635e303c55146118725780636352211e146118425780636400dc961461167b5780636817c76c1461165f5780636b521a8a146115e55780636bec4343146115ab57806370a0823114611558578063715018a61461150f5780637b27be5c146114e55780637d882097146114c85780637f377036146114725780638da5cb5b14611446578063929066f514611409578063956501bb146113d157806395d89b4114611392578063968ec2231461135a5780639e8d31d51461133f5780639f7e0e8114611305578063a22cb46514611293578063a2309ff814611276578063a483011414611210578063a730cdfb146111f4578063aa0d188d14610fb8578063b02feb8314610cb4578063b88d4fde14610c4a578063bd7f1f2d14610c20578063c87b56dd14610b8a578063d0e30db014610aec578063d29e1cdd14610aa8578063d37ec90b14610a76578063dcf2afa1146109f6578063e5187f431461095f578063e55fa46f146105ef578063e8a3d4851461056b578063e985e9c514610527578063e9ab0488146104e3578063f04e283e14610496578063f2fde38b14610459578063f4a0a52814610408578063f815100a146103ce578063f952808c14610394578063fb2b3e451461036a5763fee81cf414610334575f80fd5b346103665760203660031901126103665761034d61231a565b63389a75e1600c525f52602080600c2054604051908152f35b5f80fd5b34610366576020366003190112610366576004355f52600b602052602060405f2054604051908152f35b34610366575f3660031901126103665760206040517f00000000000000000000000000000000000000000000000000000000000000008152f35b34610366575f3660031901126103665760206040517f00000000000000000000000000000000000000000000000000000000000000008152f35b346103665760203660031901126103665760043561042461290a565b7f2e1c9e000c6e8dda4d03536adb13b7cb6034ccff90d17f01de381e4d5097b52560405f548151908152836020820152a15f55005b60203660031901126103665761046d61231a565b61047561290a565b8060601b156104895761048790612aad565b005b637448fbae5f526004601cfd5b6020366003190112610366576104aa61231a565b6104b261290a565b63389a75e1600c52805f526020600c2090815442116104d6575f6104879255612aad565b636f5e88185f526004601cfd5b34610366575f366003190112610366576040517f00000000000000000000000000000000000000000000000000000000000000006001600160a01b03168152602090f35b346103665760403660031901126103665761054061231a565b610548612330565b601c52670a5a2e7a000000006008525f5260206030600c20546040519015158152f35b34610366575f3660031901126103665760035460405163e8a3d48560e01b8152905f90829060049082906001600160a01b03165afa80156105e4576105be915f916105c2575b50604051918291826122f0565b0390f35b6105de91503d805f833e6105d6818361244a565b810190612821565b826105b1565b6040513d5f823e3d90fd5b60c0366003190112610366576004356024356001600160401b0381116103665761061d9036906004016124bc565b60443591608435916064359160a4356001600160401b038111610366576106489036906004016123b1565b919092335f52600660205260ff60405f2054161561095057875f52600760205260ff60405f205416610941576002547f00000000000000000000000000000000000000000000000000000000000000001115610932575f5434036109235760209061010092604051936106bb818661244a565b60078552601f190136848601377f00000000000000000000000000000000000000000000000000000000000000006106f285612579565b52896106fd8561259a565b52335f526004835260405f2054610713856125aa565b527f000000000000000000000000000000000000000000000000000000000000000061073e856125ba565b527f0000000000000000000000000000000000000000000000000000000000000000610769856125ca565b5286610774856125da565b528761077f856125ea565b5261079e6040519485938493633a94343960e21b8552600485016127af565b03817f00000000000000000000000000000000000000000000000000000000000000006001600160a01b03165afa9081156105e4575f916108f4575b50156108e55761083e9161080f60405160208101908982528860408201526040815261080760608261244a565b51902061260e565b60208151910120917f000000000000000000000000000000000000000000000000000000000000000091612919565b156108d6575f848152600760209081526040808320805460ff19166001179055600882528083208690556009825280832093909355600a815282822093909355600b90925281205560025461089290612629565b60025561089f823361295b565b6001549060405191825260208201527fb843254f335bad03d960d4a0f988ebaae823a93f1bf5f61b6e8702d95d6ee31160403392a3005b6305a7e3e960e21b5f5260045ffd5b6309bde33960e01b5f5260045ffd5b610916915060203d60201161091c575b61090e818361244a565b810190612797565b876107da565b503d610904565b63569e8c1160e01b5f5260045ffd5b63ed227a6960e01b5f5260045ffd5b637861c6dd60e01b5f5260045ffd5b63aba4733960e01b5f5260045ffd5b346103665760203660031901126103665761097861231a565b61098061290a565b60018060a01b03166bffffffffffffffffffffffff60a01b60035416176003557f6bd5c950a8d8df17f772f5af37cb3655737899cbf903264b9795592da439661c604080515f81525f196020820152a17fa5d4097edda6d87cb9329af83fb3712ef77eeb13738ffe43cc35a4ce305ad9625f80a1005b34610366576020366003190112610366576004356001600160401b03811161036657610a269036906004016123b1565b610a2f8161252a565b915f5b82811015610a6857600190610a4c8160051b840135612883565b610a5682876125fa565b52610a6181866125fa565b5001610a32565b604051806105be8682612346565b34610366576020366003190112610366576004355f52600c602052602060018060a01b0360405f205416604051908152f35b34610366575f366003190112610366576040517f00000000000000000000000000000000000000000000000000000000000000006001600160a01b03168152602090f35b5f36600319011261036657335f52600660205260ff60405f20541615610950573415610b7b57335f52600d60205260405f20610b29348254612814565b9055610b3734600e54612814565b600e55335f52600d60205260405f20546040519034825260208201527f73a19dd210f1a7f902193214c0ee91dd35ee5b4d920cba8d519eca65a7b488ca60403392a2005b63070f6eed60e11b5f5260045ffd5b34610366576020366003190112610366576004355f818152673ec412a9852d173d60c11b601c526020902081018101546001600160a01b031615610c115760035460405163c87b56dd60e01b815260048101929092525f90829060249082906001600160a01b03165afa80156105e4576105be915f916105c25750604051918291826122f0565b63677510db60e11b5f5260045ffd5b34610366576020366003190112610366576004355f52600a602052602060405f2054604051908152f35b608036600319011261036657610c5e61231a565b610c66612330565b906044356064356001600160401b03811161036657610c899036906004016124bc565b610c97838686979497612637565b813b610c9f57005b61048794610cae913691612486565b92612a1b565b3461036657606036600319011261036657610ccd61231a565b6024356001600160401b03811161036657610cec9036906004016124bc565b60449291923591638b78c6d8600c52335f5260026020600c20541615610fab576001600160a01b03165f8181526006602052604090205490939060ff161561095057835f52600d60205260405f205415610b7b5760205a9260405192610d5360a08561244a565b6004845260803684860137865f526004835260405f2054610d7385612579565b5285610d7e8561259a565b527f0000000000000000000000000000000000000000000000000000000000000000610da9856125aa565b527f0000000000000000000000000000000000000000000000000000000000000000610dd4856125ba565b52610df36040519485938493633a94343960e21b8552600485016127af565b03817f00000000000000000000000000000000000000000000000000000000000000006001600160a01b03165afa9081156105e4575f91610f8c575b50156108e557827fef343ac8c5429d26f5feb7c5015dd92f57b3d2b664078f8760a48ee9a6d48b756040610ea494835f52600460205280825f2055610e75600154612629565b600155835f526005602052815f20610e8d8154612629565b905560015482519182526020820152a25a9061272e565b9061c3508201809211610f78573a8202918083043a1490151715610f78575f808084819481818452600d602052604084205410610f64575b808352600d60205260408320610ef383825461272e565b9055610f0182600e5461272e565b600e55808352600d602052604083205415610f3a575b50335af1610f2361273b565b5015610f2b57005b63019285f360e51b5f5260045ffd5b7fc87f3b3ee7ca0f9af3a516da4106acc27a3087beded91b370b0b2dc25d0d00598380a285610f17565b808352600d60205260408320549150610edc565b634e487b7160e01b5f52601160045260245ffd5b610fa5915060203d60201161091c5761090e818361244a565b84610e2f565b6382b429005f526004601cfd5b34610366576080366003190112610366576004356024356001600160401b03811161036657610feb9036906004016124bc565b906044359060643592845f52600760205260ff60405f205416156111e5576110128561276a565b336001600160a01b03909116036111d6576020906101009260405193611038818661244a565b60078552601f19013684860137865f526009835260405f205461105a85612579565b52846110658561259a565b527f0000000000000000000000000000000000000000000000000000000000000000611090856125aa565b527f00000000000000000000000000000000000000000000000000000000000000006110bb856125ba565b52856110c6856125ca565b52865f52600a835260405f20546110dc856125da565b52865f52600b835260405f20546110f2856125ea565b526111116040519485938493633a94343960e21b8552600485016127af565b03817f00000000000000000000000000000000000000000000000000000000000000006001600160a01b03165afa9081156105e4575f916111b7575b50156108e5577f693dbee638dd7128a5c028e11bb1fa9f112ab758d39c0ace8774496fd6c5614691604091845f526009602052825f2055835f52600b602052815f206111998154612629565b90556111a6600154612629565b8060015582519182526020820152a2005b6111d0915060203d60201161091c5761090e818361244a565b8461114d565b63fef2862960e01b5f5260045ffd5b6381c8314760e01b5f5260045ffd5b34610366575f36600319011261036657602060405161c3508152f35b34610366576040366003190112610366576003546001600160a01b03163303611269575b7f6bd5c950a8d8df17f772f5af37cb3655737899cbf903264b9795592da439661c6040805160043581526024356020820152a1005b6112716129f1565b611234565b34610366575f366003190112610366576020600254604051908152f35b34610366576040366003190112610366576112ac61231a565b6024358015158091036103665781601c52670a5a2e7a00000000600852335f52806030600c20555f5260018060a01b0316337f17307eab39ab6107e8899845ad3d59bd9653f200f220920489ca2b5937696c3160205fa3005b34610366575f3660031901126103665760206040517f00000000000000000000000000000000000000000000000000000000000000008152f35b34610366575f36600319011261036657602060405160018152f35b34610366576020366003190112610366576001600160a01b0361137b61231a565b165f526004602052602060405f2054604051908152f35b34610366575f366003190112610366576105be6040516113b360408261244a565b6005815264475241535360d81b6020820152604051918291826122f0565b34610366576020366003190112610366576001600160a01b036113f261231a565b165f52600d602052602060405f2054604051908152f35b34610366576020366003190112610366576001600160a01b0361142a61231a565b165f526006602052602060ff60405f2054166040519015158152f35b34610366575f36600319011261036657638b78c6d819546040516001600160a01b039091168152602090f35b34610366575f366003190112610366576003546001600160a01b031633036114bb575b7fa5d4097edda6d87cb9329af83fb3712ef77eeb13738ffe43cc35a4ce305ad9625f80a1005b6114c36129f1565b611495565b34610366575f366003190112610366576020600e54604051908152f35b34610366576020366003190112610366576004355f526009602052602060405f2054604051908152f35b5f3660031901126103665761152261290a565b5f638b78c6d819547f8be0079c531659141344cd1fd0a4f28419497f9722a3daafe3b4186f6b6457e08280a35f638b78c6d81955005b346103665760203660031901126103665761157161231a565b801561159e57673ec412a9852d173d60c11b601c525f52602063ffffffff601c600c205416604051908152f35b638f4eb6045f526004601cfd5b34610366575f3660031901126103665760206040517f00000000000000000000000000000000000000000000000000000000000000008152f35b3461036657604036600319011261036657600435611601612330565b9061160a61290a565b5f818152673ec412a9852d173d60c11b601c526020902081018101546001600160a01b0316610366575f908152600c6020526040902080546001600160a01b0319166001600160a01b03909216919091179055005b34610366575f3660031901126103665760205f54604051908152f35b34610366576040366003190112610366576004356001600160401b038111610366576116ab9036906004016124bc565b9060243591335f52600660205260ff60405f2054161561095057602090604051926116d760a08561244a565b6004845260803684860137335f526004835260405f20546116f785612579565b52846117028561259a565b527f000000000000000000000000000000000000000000000000000000000000000061172d856125aa565b527f0000000000000000000000000000000000000000000000000000000000000000611758856125ba565b526117776040519485938493633a94343960e21b8552600485016127af565b03817f00000000000000000000000000000000000000000000000000000000000000006001600160a01b03165afa9081156105e4575f91611823575b50156108e557335f5260046020528060405f20556117d2600154612629565b600155335f52600560205260405f206117eb8154612629565b905560015460405191825260208201527fef343ac8c5429d26f5feb7c5015dd92f57b3d2b664078f8760a48ee9a6d48b7560403392a2005b61183c915060203d60201161091c5761090e818361244a565b826117b3565b3461036657602036600319011261036657602061186060043561276a565b6040516001600160a01b039091168152f35b34610366576020366003190112610366576004355f526008602052602060405f2054604051908152f35b5f3660031901126103665763389a75e1600c52335f525f6020600c2055337ffa7b8eab7da67f412cc9575ed43464468f9bfbae89d1675917346ca6d8fe3c925f80a2005b34610366576020366003190112610366576001600160a01b0361190161231a565b165f526005602052602060405f2054604051908152f35b346103665760403660031901126103665761193161231a565b638b78c6d8600c525f52602060243581600c2054161515604051908152f35b60403660031901126103665761048761196761231a565b61196f61290a565b60243590612aea565b34610366575f366003190112610366576020600154604051908152f35b61199e366123e1565b6119ab8183859495612637565b823b6119b357005b61048792604051926119c660208561244a565b5f8452612a1b565b34610366575f366003190112610366576119e661290a565b5f8080806119f747600e549061272e565b335af1611a0261273b565b5015611a0a57005b631d42c86760e21b5f5260045ffd5b34610366575f3660031901126103665760206040517f00000000000000000000000000000000000000000000000000000000000000008152f35b34610366575f36600319011261036657602060405160028152f35b34610366575f366003190112610366576003546040516001600160a01b039091168152602090f35b3461036657602036600319011261036657600435335f52600d60205260405f20548111610b7b575f80808093338252600d60205260408220611ad982825461272e565b9055611ae781600e5461272e565b600e556040518181527f4482101800a5c2e900f4156e57e05e19ffd7b366cde579553d723fd3abb2180e60203392a2335af1611a0261273b565b34610366576020366003190112610366576003546001600160a01b03163303611b73575b7ff8e1a15aba9398e019f0b49df1a4fde98ee17ae345cb5f6b5e2c27f5033e8ce760206040516004358152a1005b611b7b6129f1565b611b45565b3461036657602036600319011261036657611b9961231a565b638b78c6d8600c525f52602080600c2054604051908152f35b34610366576020366003190112610366576004355f526007602052602060ff60405f2054166040519015158152f35b34610366576040366003190112610366576004356024356001600160401b038111610366573660238201121561036657611c25903690602481600401359101612486565b335f52600660205260ff60405f205416611d875760405160208101903360601b825283603482015260348152611c5c60548261244a565b5190206020527b19457468657265756d205369676e6564204d6573736167653a0a33325f52603c60042090604051916020820191805180604014611d6657604114611cb45750505050505b638baa579f5f526004601cfd5b80606060409201515f1a60205201516060525b5f52516040526020600160805f825afa51905f6060526040523d611cec575050611ca7565b638b78c6d8600c525f5260026020600c20541615611d5757335f52600660205260405f20600160ff19825416179055335f5260046020528060405f20556040519081527fb8142d42f05d95abf0a6570799774d59276e49ea32a04d9a4ec316ea4a6886bc60203392a2005b638baa579f60e01b5f5260045ffd5b506040015160ff81901c601b016020526001600160ff1b0316606052611cc7565b630ea075bf60e21b5f5260045ffd5b5f3660031901126103665763389a75e1600c52335f526202a30042016020600c2055337fdbf36a107da19e49527a7176a1babf963b4b0ff8cde35ee35d6cd8f1f9ac7e1d5f80a2005b610487611deb366123e1565b91612637565b34610366576040366003190112610366576020611e0c61231a565b60243590638b78c6d8600c525f528082600c20541614604051908152f35b604036600319011261036657611e3e61231a565b611e4661290a565b638b78c6d8600c525f526020600c20602435815417809155600c5160601c7f715ad5ce61fc9595c7b415289d59cf203f23a94fa06f04af7e489a0a76e1fe265f80a3005b60203660031901126103665761048760043533612aea565b34610366575f3660031901126103665760206040517f00000000000000000000000000000000000000000000000000000000000000008152f35b34610366575f3660031901126103665760206040517f00000000000000000000000000000000000000000000000000000000000000008152f35b346103665760c036600319011261036657600435611f32612330565b6044359060a4356001600160401b03811161036657611f559036906004016123b1565b611f5d61290a565b845f52600760205260ff60405f205416610941576002547f0000000000000000000000000000000000000000000000000000000000000000111561093257611fc29161080f60405160208101908882528760408201526040815261080760608261244a565b156108d6575f838152600760209081526040808320805460ff1916600117905560088252808320859055600982528083206064359055600a82528083206084359055600b909152808220919091556002547fb843254f335bad03d960d4a0f988ebaae823a93f1bf5f61b6e8702d95d6ee311929061203f90612629565b60025561204c858261295b565b600154825190815260208101949094526001600160a01b031692a3005b34610366575f366003190112610366577f00000000000000000000000000000000000000000000000000000000000000006120a38161252a565b905f5b8181106120bb57604051806105be8582612346565b806120c7600192612883565b6120d182866125fa565b526120dc81856125fa565b50016120a6565b6040366003190112610366576120f761231a565b6024355f818152673ec412a9852d173d60c11b3317601c526020902081018101805491926001600160a01b03908116921690811561218b57829082331433151715612167575b600101557f8c5be1e5ebec7d5bd14f71427d1e84f3dd0314c0f7b2291e5b200ac8c7c3b9255f80a4005b9050815f526030600c20541561217e57829061213d565b634b6e7f185f526004601cfd5b63ceea21b65f526004601cfd5b34610366576020366003190112610366576004355f818152673ec412a9852d173d60c11b601c5260209020810101805460601b1561218b57600101546040516001600160a01b039091168152602090f35b34610366575f366003190112610366576105be60405161220a60408261244a565b600a81526954616c6c20477261737360b01b6020820152604051918291826122f0565b34610366575f366003190112610366576040517f00000000000000000000000000000000000000000000000000000000000000006001600160a01b03168152602090f35b3461036657602036600319011261036657600435906001600160e01b0319821680830361036657602092632483248360e11b82149182156122df575b5081156122bc575b5015158152f35b905060e01c635b5e139f8114906301ffc9a76380ac58cd821491141717836122b5565b63e8a3d48560e01b149150846122ad565b602060409281835280519182918282860152018484015e5f828201840152601f01601f1916010190565b600435906001600160a01b038216820361036657565b602435906001600160a01b038216820361036657565b60206040818301928281528451809452019201905f5b8181106123695750505090565b909192602060a0600192608087518580851b0381511683528481015185840152604081015160408401526060810151606084015201516080820152019401910191909161235c565b9181601f84011215610366578235916001600160401b038311610366576020808501948460051b01011161036657565b6060906003190112610366576004356001600160a01b038116810361036657906024356001600160a01b0381168103610366579060443590565b60a081019081106001600160401b0382111761243657604052565b634e487b7160e01b5f52604160045260245ffd5b90601f801991011681019081106001600160401b0382111761243657604052565b6001600160401b03811161243657601f01601f191660200190565b9291926124928261246b565b916124a0604051938461244a565b829481845281830111610366578281602093845f960137010152565b9181601f84011215610366578235916001600160401b038311610366576020838186019501011161036657565b6001600160401b0381116124365760051b60200190565b6040519061250d8261241b565b5f6080838281528260208201528260408201528260608201520152565b90612534826124e9565b612541604051918261244a565b8281528092612552601f19916124e9565b01905f5b82811061256257505050565b60209061256d612500565b82828501015201612556565b8051156125865760200190565b634e487b7160e01b5f52603260045260245ffd5b8051600110156125865760400190565b8051600210156125865760600190565b8051600310156125865760800190565b8051600410156125865760a00190565b8051600510156125865760c00190565b8051600610156125865760e00190565b80518210156125865760209160051b010190565b906040519160208301526020825261262760408361244a565b565b5f198114610f785760010190565b5f838152673ec412a9852d173d60c11b3317601c52602090208301830180546001600160a01b03938416939283169281168084148102156127195750825f528160010180548033148533141715612702575b6126f9575b50838318189055601c600c205f198154019055815f52601c600c2060018154019063ffffffff82168402156126e457557fddf252ad1be2c89b69c2b068fc378daa952ba7f163c4a11628f55a4df523b3ef5f80a4565b67ea553b3401336cea841560021b526004601cfd5b5f90555f61268e565b6030600c205461268957634b6e7f185f526004601cfd5b67ceea21b6a1148100901560021b526004601cfd5b91908203918211610f7857565b3d15612765573d9061274c8261246b565b9161275a604051938461244a565b82523d5f602084013e565b606090565b5f818152673ec412a9852d173d60c11b601c5260209020810101546001600160a01b031690811561218b57565b90816020910312610366575180151581036103665790565b91806080916020936040865281604087015260608601375f60608286010152601f801991011683016060810193836060828403019101528451809452019201905f5b8181106127fe5750505090565b82518452602093840193909201916001016127f1565b91908201809211610f7857565b602081830312610366578051906001600160401b038211610366570181601f82011215610366578051906128548261246b565b92612862604051948561244a565b8284526020838301011161036657815f9260208093018386015e8301015290565b61288b612500565b505f818152673ec412a9852d173d60c11b601c5260208082208301830154928252600b815260408083205460088352818420546009845282852054600a90945293829020549151949193916001600160a01b03166128e88661241b565b6001600160a01b03168552602085015260408401526060830152608082015290565b638b78c6d819543303610fab57565b9080939293612929575b50501490565b60051b810190915b602083359182811160051b9081521852602060405f20920191818310612931579150505f80612923565b60018060a01b0316815f52673ec412a9852d173d60c11b601c5260205f208201820180548060601b6129e45782179055805f52601c600c2060018154019063ffffffff82168302156129cf57555f7fddf252ad1be2c89b69c2b068fc378daa952ba7f163c4a11628f55a4df523b3ef8180a4565b67ea553b3401336cea831560021b526004601cfd5b63c991cbb15f526004601cfd5b638b78c6d819543303612a0057565b638b78c6d8600c52335f5260016020600c20541615610fab57565b9060a46020939460405195869463150b7a028652338787015260018060a01b03166040860152606085015260808085015280518091818060a0880152612a99575b505001905f601c8401915af115612a8b575b5163757a42ff60e11b01612a7e57565b63d1a57ed65f526004601cfd5b3d15612a6e573d5f823e3d90fd5b818760c08801920160045afa50805f612a5c565b60018060a01b031680638b78c6d819547f8be0079c531659141344cd1fd0a4f28419497f9722a3daafe3b4186f6b6457e05f80a3638b78c6d81955565b638b78c6d8600c525f526020600c2090815490811618809155600c5160601c7f715ad5ce61fc9595c7b415289d59cf203f23a94fa06f04af7e489a0a76e1fe265f80a356fea26469706673582212205e29619b843f1a441ade9cd874ba3536f28bfe21e52478d6df0c8ab2e8fd563664736f6c634300081e0033",
  "devdoc": {
    "errors": {
      "AccountBalanceOverflow()": [
        {
          "details": "The recipient's balance has overflowed."
        }
      ],
      "AlreadyInitialized()": [
        {
          "details": "Cannot double-initialize."
        }
      ],
      "BalanceQueryForZeroAddress()": [
        {
          "details": "Cannot query the balance for the zero address."
        }
      ],
      "NewOwnerIsZeroAddress()": [
        {
          "details": "The `newOwner` cannot be the zero address."
        }
      ],
      "NoHandoverRequest()": [
        {
          "details": "The `pendingOwner` does not have a valid handover request."
        }
      ],
      "NotOwnerNorApproved()": [
        {
          "details": "Only the token owner or an approved account can manage the token."
        }
      ],
      "TokenAlreadyExists()": [
        {
          "details": "The token already exists."
        }
      ],
      "TokenDoesNotExist()": [
        {
          "details": "The token does not exist."
        }
      ],
      "TransferFromIncorrectOwner()": [
        {
          "details": "The token must be owned by `from`."
        }
      ],
      "TransferToNonERC721ReceiverImplementer()": [
        {
          "details": "Cannot safely transfer to a contract that does not implement the ERC721Receiver interface."
        }
      ],
      "TransferToZeroAddress()": [
        {
          "details": "Cannot mint or transfer to the zero address."
        }
      ],
      "Unauthorized()": [
        {
          "details": "The caller is not authorized to call the function."
        }
      ]
    },
    "events": {
      "Approval(address,address,uint256)": {
        "details": "Emitted when `owner` enables `account` to manage the `id` token."
      },
      "ApprovalForAll(address,address,bool)": {
        "details": "Emitted when `owner` enables or disables `operator` to manage all of their tokens."
      },
      "OwnershipHandoverCanceled(address)": {
        "details": "The ownership handover to `pendingOwner` has been canceled."
      },
      "OwnershipHandoverRequested(address)": {
        "details": "An ownership handover to `pendingOwner` has been requested."
      },
      "OwnershipTransferred(address,address)": {
        "details": "The ownership is transferred from `oldOwner` to `newOwner`. This event is intentionally kept the same as OpenZeppelin's Ownable to be compatible with indexers and [EIP-173](https://eips.ethereum.org/EIPS/eip-173), despite it not being as lightweight as a single argument event."
      },
      "RolesUpdated(address,uint256)": {
        "details": "The `user`'s roles is updated to `roles`. Each bit of `roles` represents whether the role is set."
      },
      "Transfer(address,address,uint256)": {
        "details": "Emitted when token `id` is transferred from `from` to `to`."
      }
    },
    "kind": "dev",
    "methods": {
      "approve(address,uint256)": {
        "details": "Sets `account` as the approved account to manage token `id`. Requirements: - Token `id` must exist. - The caller must be the owner of the token,   or an approved operator for the token owner. Emits an {Approval} event."
      },
      "balanceOf(address)": {
        "details": "Returns the number of tokens owned by `owner`. Requirements: - `owner` must not be the zero address."
      },
      "cancelOwnershipHandover()": {
        "details": "Cancels the two-step ownership handover to the caller, if any."
      },
      "completeOwnershipHandover(address)": {
        "details": "Allows the owner to complete the two-step ownership handover to `pendingOwner`. Reverts if there is no existing ownership handover requested by `pendingOwner`."
      },
      "getApproved(uint256)": {
        "details": "Returns the account approved to manage token `id`. Requirements: - Token `id` must exist."
      },
      "grantRoles(address,uint256)": {
        "details": "Allows the owner to grant `user` `roles`. If the `user` already has a role, then it will be an no-op for the role."
      },
      "hasAllRoles(address,uint256)": {
        "details": "Returns whether `user` has all of `roles`."
      },
      "hasAnyRole(address,uint256)": {
        "details": "Returns whether `user` has any of `roles`."
      },
      "isApprovedForAll(address,address)": {
        "details": "Returns whether `operator` is approved to manage the tokens of `owner`."
      },
      "mint(uint256,bytes,bytes32,bytes32,bytes32,bytes32[])": {
        "params": {
          "_entityTraitHash": "keccak256 hash of the entity's encrypted traits ciphertext.",
          "blindingSeedCommitment": "hash_1(blinding_seed) for direction blinding.",
          "encounterProof": "ZK proof of co-location with entity.",
          "entityId": "The entity to mint.",
          "initialPositionCommitment": "Poseidon(x, y, salt) for entity's starting position.",
          "traitMerkleProof": "Merkle proof of _entityTraitHash against entityTraitMerkleRoot."
        }
      },
      "move(bytes,bytes32)": {
        "params": {
          "newPositionCommitment": "The new Poseidon(x, y, salt) after moving.",
          "proof": "The serialized UltraHonk proof."
        }
      },
      "moveEntity(uint256,bytes,bytes32,bytes32)": {
        "params": {
          "directionCommitment": "Blinded direction commitment.",
          "entityId": "The entity to move (must be owned by msg.sender).",
          "newPositionCommitment": "The new Poseidon(x, y, salt) after moving.",
          "proof": "The serialized UltraHonk proof."
        }
      },
      "name()": {
        "details": "Returns the token collection name."
      },
      "owner()": {
        "details": "Returns the owner of the contract."
      },
      "ownerOf(uint256)": {
        "details": "Returns the owner of token `id`. Requirements: - Token `id` must exist."
      },
      "ownershipHandoverExpiresAt(address)": {
        "details": "Returns the expiry timestamp for the two-step ownership handover to `pendingOwner`."
      },
      "register(bytes32,bytes)": {
        "params": {
          "initialPositionCommitment": "Poseidon(x, y, salt) computed client-side.",
          "oracleSignature": "Oracle signature over (participant, commitment)."
        }
      },
      "renounceOwnership()": {
        "details": "Allows the owner to renounce their ownership."
      },
      "renounceRoles(uint256)": {
        "details": "Allow the caller to remove their own roles. If the caller does not have a role, then it will be an no-op for the role."
      },
      "requestOwnershipHandover()": {
        "details": "Request a two-step ownership handover to the caller. The request will automatically expire in 48 hours (172800 seconds) by default."
      },
      "revokeRoles(address,uint256)": {
        "details": "Allows the owner to remove `user` `roles`. If the `user` does not have a role, then it will be an no-op for the role."
      },
      "rolesOf(address)": {
        "details": "Returns the roles of `user`."
      },
      "safeTransferFrom(address,address,uint256)": {
        "details": "Equivalent to `safeTransferFrom(from, to, id, \"\")`."
      },
      "safeTransferFrom(address,address,uint256,bytes)": {
        "details": "Transfers token `id` from `from` to `to`. Requirements: - Token `id` must exist. - `from` must be the owner of the token. - `to` cannot be the zero address. - The caller must be the owner of the token, or be approved to manage the token. - If `to` refers to a smart contract, it must implement   {IERC721Receiver-onERC721Received}, which is called upon a safe transfer. Emits a {Transfer} event."
      },
      "setApprovalForAll(address,bool)": {
        "details": "Sets whether `operator` is approved to manage the tokens of the caller. Emits an {ApprovalForAll} event."
      },
      "supportsInterface(bytes4)": {
        "details": "Returns true if this contract implements the interface defined by `interfaceId`. See: https://eips.ethereum.org/EIPS/eip-165 This function call must use less than 30000 gas."
      },
      "symbol()": {
        "details": "Returns the token collection symbol."
      },
      "transferFrom(address,address,uint256)": {
        "details": "Transfers token `id` from `from` to `to`. Requirements: - Token `id` must exist. - `from` must be the owner of the token. - `to` cannot be the zero address. - The caller must be the owner of the token, or be approved to manage the token. Emits a {Transfer} event."
      },
      "transferOwnership(address)": {
        "details": "Allows the owner to transfer the ownership to `newOwner`."
      }
    },
    "version": 1
  },
  "userdoc": {
    "kind": "user",
    "methods": {
      "allTokenStates()": {
        "notice": "Bundled snapshot for every entity in the collection."
      },
      "artistMint(uint256,address,bytes32,bytes32,bytes32,bytes32[])": {
        "notice": "Owner-only mint for artist proofs. Skips the encounter proof and mint payment, but still binds the trait hash to the deployed entity set via the trait Merkle tree, so the artist cannot mint a token with arbitrary fake traits. Sets the same per-entity state as mint(), so moveEntity continues to work for the artist proof if it is ever moved."
      },
      "deposit()": {
        "notice": "Deposit ETH for gas relay. Additive, idempotent."
      },
      "mint(uint256,bytes,bytes32,bytes32,bytes32,bytes32[])": {
        "notice": "Mint an encountered entity using a ZK encounter proof."
      },
      "move(bytes,bytes32)": {
        "notice": "Submit a ZK proof of valid movement."
      },
      "moveEntity(uint256,bytes,bytes32,bytes32)": {
        "notice": "Move a minted entity with a ZK proof of valid movement."
      },
      "register(bytes32,bytes)": {
        "notice": "Register as a participant with an oracle-signed position commitment."
      },
      "relayMove(address,bytes,bytes32)": {
        "notice": "Oracle relays a browser-generated movement proof, reimbursed from deposit."
      },
      "tokenStates(uint256[])": {
        "notice": "Bundled snapshot for a specific list of entity ids. One eth_call instead of N per-field reads; useful for grids and drilldowns."
      },
      "withdraw()": {
        "notice": "Withdraw accumulated ETH (mint fees). Owner-only."
      },
      "withdrawDeposit(uint256)": {
        "notice": "Withdraw deposit balance."
      }
    },
    "version": 1
  },
  "storageLayout": {
    "storage": [
      {
        "astId": 2895,
        "contract": "src/TallGrass.sol:TallGrass",
        "label": "mintPrice",
        "offset": 0,
        "slot": "0",
        "type": "t_uint256"
      },
      {
        "astId": 2910,
        "contract": "src/TallGrass.sol:TallGrass",
        "label": "moveCounter",
        "offset": 0,
        "slot": "1",
        "type": "t_uint256"
      },
      {
        "astId": 2912,
        "contract": "src/TallGrass.sol:TallGrass",
        "label": "totalMinted",
        "offset": 0,
        "slot": "2",
        "type": "t_uint256"
      },
      {
        "astId": 2914,
        "contract": "src/TallGrass.sol:TallGrass",
        "label": "metadataContract",
        "offset": 0,
        "slot": "3",
        "type": "t_address"
      },
      {
        "astId": 2918,
        "contract": "src/TallGrass.sol:TallGrass",
        "label": "positionCommitments",
        "offset": 0,
        "slot": "4",
        "type": "t_mapping(t_address,t_bytes32)"
      },
      {
        "astId": 2922,
        "contract": "src/TallGrass.sol:TallGrass",
        "label": "participantMoveCount",
        "offset": 0,
        "slot": "5",
        "type": "t_mapping(t_address,t_uint256)"
      },
      {
        "astId": 2926,
        "contract": "src/TallGrass.sol:TallGrass",
        "label": "isParticipant",
        "offset": 0,
        "slot": "6",
        "type": "t_mapping(t_address,t_bool)"
      },
      {
        "astId": 2930,
        "contract": "src/TallGrass.sol:TallGrass",
        "label": "entityMinted",
        "offset": 0,
        "slot": "7",
        "type": "t_mapping(t_uint256,t_bool)"
      },
      {
        "astId": 2934,
        "contract": "src/TallGrass.sol:TallGrass",
        "label": "entityTraitHash",
        "offset": 0,
        "slot": "8",
        "type": "t_mapping(t_uint256,t_bytes32)"
      },
      {
        "astId": 2938,
        "contract": "src/TallGrass.sol:TallGrass",
        "label": "entityPositionCommitments",
        "offset": 0,
        "slot": "9",
        "type": "t_mapping(t_uint256,t_bytes32)"
      },
      {
        "astId": 2942,
        "contract": "src/TallGrass.sol:TallGrass",
        "label": "entityBlindingSeedCommitments",
        "offset": 0,
        "slot": "10",
        "type": "t_mapping(t_uint256,t_bytes32)"
      },
      {
        "astId": 2946,
        "contract": "src/TallGrass.sol:TallGrass",
        "label": "entityMoveCount",
        "offset": 0,
        "slot": "11",
        "type": "t_mapping(t_uint256,t_uint256)"
      },
      {
        "astId": 2950,
        "contract": "src/TallGrass.sol:TallGrass",
        "label": "eP",
        "offset": 0,
        "slot": "12",
        "type": "t_mapping(t_uint256,t_address)"
      },
      {
        "astId": 2954,
        "contract": "src/TallGrass.sol:TallGrass",
        "label": "depositBalance",
        "offset": 0,
        "slot": "13",
        "type": "t_mapping(t_address,t_uint256)"
      },
      {
        "astId": 2956,
        "contract": "src/TallGrass.sol:TallGrass",
        "label": "totalDeposits",
        "offset": 0,
        "slot": "14",
        "type": "t_uint256"
      }
    ],
    "types": {
      "t_address": {
        "encoding": "inplace",
        "label": "address",
        "numberOfBytes": "20"
      },
      "t_bool": {
        "encoding": "inplace",
        "label": "bool",
        "numberOfBytes": "1"
      },
      "t_bytes32": {
        "encoding": "inplace",
        "label": "bytes32",
        "numberOfBytes": "32"
      },
      "t_mapping(t_address,t_bool)": {
        "encoding": "mapping",
        "key": "t_address",
        "label": "mapping(address => bool)",
        "numberOfBytes": "32",
        "value": "t_bool"
      },
      "t_mapping(t_address,t_bytes32)": {
        "encoding": "mapping",
        "key": "t_address",
        "label": "mapping(address => bytes32)",
        "numberOfBytes": "32",
        "value": "t_bytes32"
      },
      "t_mapping(t_address,t_uint256)": {
        "encoding": "mapping",
        "key": "t_address",
        "label": "mapping(address => uint256)",
        "numberOfBytes": "32",
        "value": "t_uint256"
      },
      "t_mapping(t_uint256,t_address)": {
        "encoding": "mapping",
        "key": "t_uint256",
        "label": "mapping(uint256 => address)",
        "numberOfBytes": "32",
        "value": "t_address"
      },
      "t_mapping(t_uint256,t_bool)": {
        "encoding": "mapping",
        "key": "t_uint256",
        "label": "mapping(uint256 => bool)",
        "numberOfBytes": "32",
        "value": "t_bool"
      },
      "t_mapping(t_uint256,t_bytes32)": {
        "encoding": "mapping",
        "key": "t_uint256",
        "label": "mapping(uint256 => bytes32)",
        "numberOfBytes": "32",
        "value": "t_bytes32"
      },
      "t_mapping(t_uint256,t_uint256)": {
        "encoding": "mapping",
        "key": "t_uint256",
        "label": "mapping(uint256 => uint256)",
        "numberOfBytes": "32",
        "value": "t_uint256"
      },
      "t_uint256": {
        "encoding": "inplace",
        "label": "uint256",
        "numberOfBytes": "32"
      }
    }
  }
}