{
  "address": "0xbA9e45F80b17BE1FD070a4E8D132F48c6cF3E3d7",
  "abi": [
    {
      "type": "constructor",
      "inputs": [
        {
          "name": "_seedCommitment",
          "type": "bytes32",
          "internalType": "bytes32"
        },
        {
          "name": "_terrainMerkleRoot",
          "type": "bytes32",
          "internalType": "bytes32"
        },
        {
          "name": "_entityTraitMerkleRoot",
          "type": "bytes32",
          "internalType": "bytes32"
        },
        {
          "name": "_entityMerkleRoot",
          "type": "bytes32",
          "internalType": "bytes32"
        },
        {
          "name": "_gridWidth",
          "type": "uint256",
          "internalType": "uint256"
        },
        {
          "name": "_gridHeight",
          "type": "uint256",
          "internalType": "uint256"
        },
        {
          "name": "_totalSupply",
          "type": "uint256",
          "internalType": "uint256"
        },
        {
          "name": "_mintPrice",
          "type": "uint256",
          "internalType": "uint256"
        },
        {
          "name": "_movementVerifier",
          "type": "address",
          "internalType": "address"
        },
        {
          "name": "_entityMovementVerifier",
          "type": "address",
          "internalType": "address"
        },
        {
          "name": "_encounterVerifier",
          "type": "address",
          "internalType": "address"
        },
        {
          "name": "_decryptionKeyCommitment",
          "type": "bytes32",
          "internalType": "bytes32"
        },
        {
          "name": "_owner",
          "type": "address",
          "internalType": "address"
        }
      ],
      "stateMutability": "nonpayable"
    },
    {
      "type": "function",
      "name": "EDITOR",
      "inputs": [],
      "outputs": [
        {
          "name": "",
          "type": "uint256",
          "internalType": "uint256"
        }
      ],
      "stateMutability": "view"
    },
    {
      "type": "function",
      "name": "GAS_OVERHEAD",
      "inputs": [],
      "outputs": [
        {
          "name": "",
          "type": "uint256",
          "internalType": "uint256"
        }
      ],
      "stateMutability": "view"
    },
    {
      "type": "function",
      "name": "ORACLE",
      "inputs": [],
      "outputs": [
        {
          "name": "",
          "type": "uint256",
          "internalType": "uint256"
        }
      ],
      "stateMutability": "view"
    },
    {
      "type": "function",
      "name": "allTokenStates",
      "inputs": [],
      "outputs": [
        {
          "name": "out",
          "type": "tuple[]",
          "internalType": "struct TallGrass.TokenState[]",
          "components": [
            {
              "name": "owner",
              "type": "address",
              "internalType": "address"
            },
            {
              "name": "moveCount",
              "type": "uint256",
              "internalType": "uint256"
            },
            {
              "name": "traitHash",
              "type": "bytes32",
              "internalType": "bytes32"
            },
            {
              "name": "positionCommitment",
              "type": "bytes32",
              "internalType": "bytes32"
            },
            {
              "name": "blindingSeedCommitment",
              "type": "bytes32",
              "internalType": "bytes32"
            }
          ]
        }
      ],
      "stateMutability": "view"
    },
    {
      "type": "function",
      "name": "approve",
      "inputs": [
        {
          "name": "account",
          "type": "address",
          "internalType": "address"
        },
        {
          "name": "id",
          "type": "uint256",
          "internalType": "uint256"
        }
      ],
      "outputs": [],
      "stateMutability": "payable"
    },
    {
      "type": "function",
      "name": "artistMint",
      "inputs": [
        {
          "name": "entityId",
          "type": "uint256",
          "internalType": "uint256"
        },
        {
          "name": "to",
          "type": "address",
          "internalType": "address"
        },
        {
          "name": "_entityTraitHash",
          "type": "bytes32",
          "internalType": "bytes32"
        },
        {
          "name": "initialPositionCommitment",
          "type": "bytes32",
          "internalType": "bytes32"
        },
        {
          "name": "blindingSeedCommitment",
          "type": "bytes32",
          "internalType": "bytes32"
        },
        {
          "name": "traitMerkleProof",
          "type": "bytes32[]",
          "internalType": "bytes32[]"
        }
      ],
      "outputs": [],
      "stateMutability": "nonpayable"
    },
    {
      "type": "function",
      "name": "balanceOf",
      "inputs": [
        {
          "name": "owner",
          "type": "address",
          "internalType": "address"
        }
      ],
      "outputs": [
        {
          "name": "result",
          "type": "uint256",
          "internalType": "uint256"
        }
      ],
      "stateMutability": "view"
    },
    {
      "type": "function",
      "name": "cancelOwnershipHandover",
      "inputs": [],
      "outputs": [],
      "stateMutability": "payable"
    },
    {
      "type": "function",
      "name": "completeOwnershipHandover",
      "inputs": [
        {
          "name": "pendingOwner",
          "type": "address",
          "internalType": "address"
        }
      ],
      "outputs": [],
      "stateMutability": "payable"
    },
    {
      "type": "function",
      "name": "contractURI",
      "inputs": [],
      "outputs": [
        {
          "name": "",
          "type": "string",
          "internalType": "string"
        }
      ],
      "stateMutability": "view"
    },
    {
      "type": "function",
      "name": "decryptionKeyCommitment",
      "inputs": [],
      "outputs": [
        {
          "name": "",
          "type": "bytes32",
          "internalType": "bytes32"
        }
      ],
      "stateMutability": "view"
    },
    {
      "type": "function",
      "name": "deposit",
      "inputs": [],
      "outputs": [],
      "stateMutability": "payable"
    },
    {
      "type": "function",
      "name": "depositBalance",
      "inputs": [
        {
          "name": "",
          "type": "address",
          "internalType": "address"
        }
      ],
      "outputs": [
        {
          "name": "",
          "type": "uint256",
          "internalType": "uint256"
        }
      ],
      "stateMutability": "view"
    },
    {
      "type": "function",
      "name": "eP",
      "inputs": [
        {
          "name": "",
          "type": "uint256",
          "internalType": "uint256"
        }
      ],
      "outputs": [
        {
          "name": "",
          "type": "address",
          "internalType": "address"
        }
      ],
      "stateMutability": "view"
    },
    {
      "type": "function",
      "name": "emitBatchMetadataUpdate",
      "inputs": [
        {
          "name": "fromTokenId",
          "type": "uint256",
          "internalType": "uint256"
        },
        {
          "name": "toTokenId",
          "type": "uint256",
          "internalType": "uint256"
        }
      ],
      "outputs": [],
      "stateMutability": "nonpayable"
    },
    {
      "type": "function",
      "name": "emitContractURIUpdated",
      "inputs": [],
      "outputs": [],
      "stateMutability": "nonpayable"
    },
    {
      "type": "function",
      "name": "emitMetadataUpdate",
      "inputs": [
        {
          "name": "tokenId",
          "type": "uint256",
          "internalType": "uint256"
        }
      ],
      "outputs": [],
      "stateMutability": "nonpayable"
    },
    {
      "type": "function",
      "name": "encounterVerifier",
      "inputs": [],
      "outputs": [
        {
          "name": "",
          "type": "address",
          "internalType": "contract IVerifier"
        }
      ],
      "stateMutability": "view"
    },
    {
      "type": "function",
      "name": "entityBlindingSeedCommitments",
      "inputs": [
        {
          "name": "",
          "type": "uint256",
          "internalType": "uint256"
        }
      ],
      "outputs": [
        {
          "name": "",
          "type": "bytes32",
          "internalType": "bytes32"
        }
      ],
      "stateMutability": "view"
    },
    {
      "type": "function",
      "name": "entityMerkleRoot",
      "inputs": [],
      "outputs": [
        {
          "name": "",
          "type": "bytes32",
          "internalType": "bytes32"
        }
      ],
      "stateMutability": "view"
    },
    {
      "type": "function",
      "name": "entityMinted",
      "inputs": [
        {
          "name": "",
          "type": "uint256",
          "internalType": "uint256"
        }
      ],
      "outputs": [
        {
          "name": "",
          "type": "bool",
          "internalType": "bool"
        }
      ],
      "stateMutability": "view"
    },
    {
      "type": "function",
      "name": "entityMoveCount",
      "inputs": [
        {
          "name": "",
          "type": "uint256",
          "internalType": "uint256"
        }
      ],
      "outputs": [
        {
          "name": "",
          "type": "uint256",
          "internalType": "uint256"
        }
      ],
      "stateMutability": "view"
    },
    {
      "type": "function",
      "name": "entityMovementVerifier",
      "inputs": [],
      "outputs": [
        {
          "name": "",
          "type": "address",
          "internalType": "contract IVerifier"
        }
      ],
      "stateMutability": "view"
    },
    {
      "type": "function",
      "name": "entityPositionCommitments",
      "inputs": [
        {
          "name": "",
          "type": "uint256",
          "internalType": "uint256"
        }
      ],
      "outputs": [
        {
          "name": "",
          "type": "bytes32",
          "internalType": "bytes32"
        }
      ],
      "stateMutability": "view"
    },
    {
      "type": "function",
      "name": "entityTraitHash",
      "inputs": [
        {
          "name": "",
          "type": "uint256",
          "internalType": "uint256"
        }
      ],
      "outputs": [
        {
          "name": "",
          "type": "bytes32",
          "internalType": "bytes32"
        }
      ],
      "stateMutability": "view"
    },
    {
      "type": "function",
      "name": "entityTraitMerkleRoot",
      "inputs": [],
      "outputs": [
        {
          "name": "",
          "type": "bytes32",
          "internalType": "bytes32"
        }
      ],
      "stateMutability": "view"
    },
    {
      "type": "function",
      "name": "getApproved",
      "inputs": [
        {
          "name": "id",
          "type": "uint256",
          "internalType": "uint256"
        }
      ],
      "outputs": [
        {
          "name": "result",
          "type": "address",
          "internalType": "address"
        }
      ],
      "stateMutability": "view"
    },
    {
      "type": "function",
      "name": "grantRoles",
      "inputs": [
        {
          "name": "user",
          "type": "address",
          "internalType": "address"
        },
        {
          "name": "roles",
          "type": "uint256",
          "internalType": "uint256"
        }
      ],
      "outputs": [],
      "stateMutability": "payable"
    },
    {
      "type": "function",
      "name": "gridHeight",
      "inputs": [],
      "outputs": [
        {
          "name": "",
          "type": "uint256",
          "internalType": "uint256"
        }
      ],
      "stateMutability": "view"
    },
    {
      "type": "function",
      "name": "gridWidth",
      "inputs": [],
      "outputs": [
        {
          "name": "",
          "type": "uint256",
          "internalType": "uint256"
        }
      ],
      "stateMutability": "view"
    },
    {
      "type": "function",
      "name": "hasAllRoles",
      "inputs": [
        {
          "name": "user",
          "type": "address",
          "internalType": "address"
        },
        {
          "name": "roles",
          "type": "uint256",
          "internalType": "uint256"
        }
      ],
      "outputs": [
        {
          "name": "",
          "type": "bool",
          "internalType": "bool"
        }
      ],
      "stateMutability": "view"
    },
    {
      "type": "function",
      "name": "hasAnyRole",
      "inputs": [
        {
          "name": "user",
          "type": "address",
          "internalType": "address"
        },
        {
          "name": "roles",
          "type": "uint256",
          "internalType": "uint256"
        }
      ],
      "outputs": [
        {
          "name": "",
          "type": "bool",
          "internalType": "bool"
        }
      ],
      "stateMutability": "view"
    },
    {
      "type": "function",
      "name": "isApprovedForAll",
      "inputs": [
        {
          "name": "owner",
          "type": "address",
          "internalType": "address"
        },
        {
          "name": "operator",
          "type": "address",
          "internalType": "address"
        }
      ],
      "outputs": [
        {
          "name": "result",
          "type": "bool",
          "internalType": "bool"
        }
      ],
      "stateMutability": "view"
    },
    {
      "type": "function",
      "name": "isParticipant",
      "inputs": [
        {
          "name": "",
          "type": "address",
          "internalType": "address"
        }
      ],
      "outputs": [
        {
          "name": "",
          "type": "bool",
          "internalType": "bool"
        }
      ],
      "stateMutability": "view"
    },
    {
      "type": "function",
      "name": "metadataContract",
      "inputs": [],
      "outputs": [
        {
          "name": "",
          "type": "address",
          "internalType": "address"
        }
      ],
      "stateMutability": "view"
    },
    {
      "type": "function",
      "name": "mint",
      "inputs": [
        {
          "name": "entityId",
          "type": "uint256",
          "internalType": "uint256"
        },
        {
          "name": "encounterProof",
          "type": "bytes",
          "internalType": "bytes"
        },
        {
          "name": "_entityTraitHash",
          "type": "bytes32",
          "internalType": "bytes32"
        },
        {
          "name": "initialPositionCommitment",
          "type": "bytes32",
          "internalType": "bytes32"
        },
        {
          "name": "blindingSeedCommitment",
          "type": "bytes32",
          "internalType": "bytes32"
        },
        {
          "name": "traitMerkleProof",
          "type": "bytes32[]",
          "internalType": "bytes32[]"
        }
      ],
      "outputs": [],
      "stateMutability": "payable"
    },
    {
      "type": "function",
      "name": "mintPrice",
      "inputs": [],
      "outputs": [
        {
          "name": "",
          "type": "uint256",
          "internalType": "uint256"
        }
      ],
      "stateMutability": "view"
    },
    {
      "type": "function",
      "name": "move",
      "inputs": [
        {
          "name": "proof",
          "type": "bytes",
          "internalType": "bytes"
        },
        {
          "name": "newPositionCommitment",
          "type": "bytes32",
          "internalType": "bytes32"
        }
      ],
      "outputs": [],
      "stateMutability": "nonpayable"
    },
    {
      "type": "function",
      "name": "moveCounter",
      "inputs": [],
      "outputs": [
        {
          "name": "",
          "type": "uint256",
          "internalType": "uint256"
        }
      ],
      "stateMutability": "view"
    },
    {
      "type": "function",
      "name": "moveEntity",
      "inputs": [
        {
          "name": "entityId",
          "type": "uint256",
          "internalType": "uint256"
        },
        {
          "name": "proof",
          "type": "bytes",
          "internalType": "bytes"
        },
        {
          "name": "newPositionCommitment",
          "type": "bytes32",
          "internalType": "bytes32"
        },
        {
          "name": "directionCommitment",
          "type": "bytes32",
          "internalType": "bytes32"
        }
      ],
      "outputs": [],
      "stateMutability": "nonpayable"
    },
    {
      "type": "function",
      "name": "movementVerifier",
      "inputs": [],
      "outputs": [
        {
          "name": "",
          "type": "address",
          "internalType": "contract IVerifier"
        }
      ],
      "stateMutability": "view"
    },
    {
      "type": "function",
      "name": "name",
      "inputs": [],
      "outputs": [
        {
          "name": "",
          "type": "string",
          "internalType": "string"
        }
      ],
      "stateMutability": "pure"
    },
    {
      "type": "function",
      "name": "owner",
      "inputs": [],
      "outputs": [
        {
          "name": "result",
          "type": "address",
          "internalType": "address"
        }
      ],
      "stateMutability": "view"
    },
    {
      "type": "function",
      "name": "ownerOf",
      "inputs": [
        {
          "name": "id",
          "type": "uint256",
          "internalType": "uint256"
        }
      ],
      "outputs": [
        {
          "name": "result",
          "type": "address",
          "internalType": "address"
        }
      ],
      "stateMutability": "view"
    },
    {
      "type": "function",
      "name": "ownershipHandoverExpiresAt",
      "inputs": [
        {
          "name": "pendingOwner",
          "type": "address",
          "internalType": "address"
        }
      ],
      "outputs": [
        {
          "name": "result",
          "type": "uint256",
          "internalType": "uint256"
        }
      ],
      "stateMutability": "view"
    },
    {
      "type": "function",
      "name": "participantMoveCount",
      "inputs": [
        {
          "name": "",
          "type": "address",
          "internalType": "address"
        }
      ],
      "outputs": [
        {
          "name": "",
          "type": "uint256",
          "internalType": "uint256"
        }
      ],
      "stateMutability": "view"
    },
    {
      "type": "function",
      "name": "positionCommitments",
      "inputs": [
        {
          "name": "",
          "type": "address",
          "internalType": "address"
        }
      ],
      "outputs": [
        {
          "name": "",
          "type": "bytes32",
          "internalType": "bytes32"
        }
      ],
      "stateMutability": "view"
    },
    {
      "type": "function",
      "name": "register",
      "inputs": [
        {
          "name": "initialPositionCommitment",
          "type": "bytes32",
          "internalType": "bytes32"
        },
        {
          "name": "oracleSignature",
          "type": "bytes",
          "internalType": "bytes"
        }
      ],
      "outputs": [],
      "stateMutability": "nonpayable"
    },
    {
      "type": "function",
      "name": "relayMove",
      "inputs": [
        {
          "name": "participant",
          "type": "address",
          "internalType": "address"
        },
        {
          "name": "proof",
          "type": "bytes",
          "internalType": "bytes"
        },
        {
          "name": "newPositionCommitment",
          "type": "bytes32",
          "internalType": "bytes32"
        }
      ],
      "outputs": [],
      "stateMutability": "nonpayable"
    },
    {
      "type": "function",
      "name": "renounceOwnership",
      "inputs": [],
      "outputs": [],
      "stateMutability": "payable"
    },
    {
      "type": "function",
      "name": "renounceRoles",
      "inputs": [
        {
          "name": "roles",
          "type": "uint256",
          "internalType": "uint256"
        }
      ],
      "outputs": [],
      "stateMutability": "payable"
    },
    {
      "type": "function",
      "name": "requestOwnershipHandover",
      "inputs": [],
      "outputs": [],
      "stateMutability": "payable"
    },
    {
      "type": "function",
      "name": "revokeRoles",
      "inputs": [
        {
          "name": "user",
          "type": "address",
          "internalType": "address"
        },
        {
          "name": "roles",
          "type": "uint256",
          "internalType": "uint256"
        }
      ],
      "outputs": [],
      "stateMutability": "payable"
    },
    {
      "type": "function",
      "name": "rolesOf",
      "inputs": [
        {
          "name": "user",
          "type": "address",
          "internalType": "address"
        }
      ],
      "outputs": [
        {
          "name": "roles",
          "type": "uint256",
          "internalType": "uint256"
        }
      ],
      "stateMutability": "view"
    },
    {
      "type": "function",
      "name": "sEP",
      "inputs": [
        {
          "name": "eId",
          "type": "uint256",
          "internalType": "uint256"
        },
        {
          "name": "p",
          "type": "address",
          "internalType": "address"
        }
      ],
      "outputs": [],
      "stateMutability": "nonpayable"
    },
    {
      "type": "function",
      "name": "safeTransferFrom",
      "inputs": [
        {
          "name": "from",
          "type": "address",
          "internalType": "address"
        },
        {
          "name": "to",
          "type": "address",
          "internalType": "address"
        },
        {
          "name": "id",
          "type": "uint256",
          "internalType": "uint256"
        }
      ],
      "outputs": [],
      "stateMutability": "payable"
    },
    {
      "type": "function",
      "name": "safeTransferFrom",
      "inputs": [
        {
          "name": "from",
          "type": "address",
          "internalType": "address"
        },
        {
          "name": "to",
          "type": "address",
          "internalType": "address"
        },
        {
          "name": "id",
          "type": "uint256",
          "internalType": "uint256"
        },
        {
          "name": "data",
          "type": "bytes",
          "internalType": "bytes"
        }
      ],
      "outputs": [],
      "stateMutability": "payable"
    },
    {
      "type": "function",
      "name": "seedCommitment",
      "inputs": [],
      "outputs": [
        {
          "name": "",
          "type": "bytes32",
          "internalType": "bytes32"
        }
      ],
      "stateMutability": "view"
    },
    {
      "type": "function",
      "name": "setApprovalForAll",
      "inputs": [
        {
          "name": "operator",
          "type": "address",
          "internalType": "address"
        },
        {
          "name": "isApproved",
          "type": "bool",
          "internalType": "bool"
        }
      ],
      "outputs": [],
      "stateMutability": "nonpayable"
    },
    {
      "type": "function",
      "name": "setMetadataContract",
      "inputs": [
        {
          "name": "_metadataContract",
          "type": "address",
          "internalType": "address"
        }
      ],
      "outputs": [],
      "stateMutability": "nonpayable"
    },
    {
      "type": "function",
      "name": "setMintPrice",
      "inputs": [
        {
          "name": "_mintPrice",
          "type": "uint256",
          "internalType": "uint256"
        }
      ],
      "outputs": [],
      "stateMutability": "nonpayable"
    },
    {
      "type": "function",
      "name": "supportsInterface",
      "inputs": [
        {
          "name": "interfaceId",
          "type": "bytes4",
          "internalType": "bytes4"
        }
      ],
      "outputs": [
        {
          "name": "",
          "type": "bool",
          "internalType": "bool"
        }
      ],
      "stateMutability": "view"
    },
    {
      "type": "function",
      "name": "symbol",
      "inputs": [],
      "outputs": [
        {
          "name": "",
          "type": "string",
          "internalType": "string"
        }
      ],
      "stateMutability": "pure"
    },
    {
      "type": "function",
      "name": "terrainMerkleRoot",
      "inputs": [],
      "outputs": [
        {
          "name": "",
          "type": "bytes32",
          "internalType": "bytes32"
        }
      ],
      "stateMutability": "view"
    },
    {
      "type": "function",
      "name": "tokenStates",
      "inputs": [
        {
          "name": "ids",
          "type": "uint256[]",
          "internalType": "uint256[]"
        }
      ],
      "outputs": [
        {
          "name": "out",
          "type": "tuple[]",
          "internalType": "struct TallGrass.TokenState[]",
          "components": [
            {
              "name": "owner",
              "type": "address",
              "internalType": "address"
            },
            {
              "name": "moveCount",
              "type": "uint256",
              "internalType": "uint256"
            },
            {
              "name": "traitHash",
              "type": "bytes32",
              "internalType": "bytes32"
            },
            {
              "name": "positionCommitment",
              "type": "bytes32",
              "internalType": "bytes32"
            },
            {
              "name": "blindingSeedCommitment",
              "type": "bytes32",
              "internalType": "bytes32"
            }
          ]
        }
      ],
      "stateMutability": "view"
    },
    {
      "type": "function",
      "name": "tokenURI",
      "inputs": [
        {
          "name": "tokenId",
          "type": "uint256",
          "internalType": "uint256"
        }
      ],
      "outputs": [
        {
          "name": "",
          "type": "string",
          "internalType": "string"
        }
      ],
      "stateMutability": "view"
    },
    {
      "type": "function",
      "name": "totalDeposits",
      "inputs": [],
      "outputs": [
        {
          "name": "",
          "type": "uint256",
          "internalType": "uint256"
        }
      ],
      "stateMutability": "view"
    },
    {
      "type": "function",
      "name": "totalMinted",
      "inputs": [],
      "outputs": [
        {
          "name": "",
          "type": "uint256",
          "internalType": "uint256"
        }
      ],
      "stateMutability": "view"
    },
    {
      "type": "function",
      "name": "totalSupply",
      "inputs": [],
      "outputs": [
        {
          "name": "",
          "type": "uint256",
          "internalType": "uint256"
        }
      ],
      "stateMutability": "view"
    },
    {
      "type": "function",
      "name": "transferFrom",
      "inputs": [
        {
          "name": "from",
          "type": "address",
          "internalType": "address"
        },
        {
          "name": "to",
          "type": "address",
          "internalType": "address"
        },
        {
          "name": "id",
          "type": "uint256",
          "internalType": "uint256"
        }
      ],
      "outputs": [],
      "stateMutability": "payable"
    },
    {
      "type": "function",
      "name": "transferOwnership",
      "inputs": [
        {
          "name": "newOwner",
          "type": "address",
          "internalType": "address"
        }
      ],
      "outputs": [],
      "stateMutability": "payable"
    },
    {
      "type": "function",
      "name": "withdraw",
      "inputs": [],
      "outputs": [],
      "stateMutability": "nonpayable"
    },
    {
      "type": "function",
      "name": "withdrawDeposit",
      "inputs": [
        {
          "name": "amount",
          "type": "uint256",
          "internalType": "uint256"
        }
      ],
      "outputs": [],
      "stateMutability": "nonpayable"
    },
    {
      "type": "event",
      "name": "Approval",
      "inputs": [
        {
          "name": "owner",
          "type": "address",
          "indexed": true,
          "internalType": "address"
        },
        {
          "name": "account",
          "type": "address",
          "indexed": true,
          "internalType": "address"
        },
        {
          "name": "id",
          "type": "uint256",
          "indexed": true,
          "internalType": "uint256"
        }
      ],
      "anonymous": false
    },
    {
      "type": "event",
      "name": "ApprovalForAll",
      "inputs": [
        {
          "name": "owner",
          "type": "address",
          "indexed": true,
          "internalType": "address"
        },
        {
          "name": "operator",
          "type": "address",
          "indexed": true,
          "internalType": "address"
        },
        {
          "name": "isApproved",
          "type": "bool",
          "indexed": false,
          "internalType": "bool"
        }
      ],
      "anonymous": false
    },
    {
      "type": "event",
      "name": "BatchMetadataUpdate",
      "inputs": [
        {
          "name": "_fromTokenId",
          "type": "uint256",
          "indexed": false,
          "internalType": "uint256"
        },
        {
          "name": "_toTokenId",
          "type": "uint256",
          "indexed": false,
          "internalType": "uint256"
        }
      ],
      "anonymous": false
    },
    {
      "type": "event",
      "name": "ContractURIUpdated",
      "inputs": [],
      "anonymous": false
    },
    {
      "type": "event",
      "name": "DepositDepleted",
      "inputs": [
        {
          "name": "participant",
          "type": "address",
          "indexed": true,
          "internalType": "address"
        }
      ],
      "anonymous": false
    },
    {
      "type": "event",
      "name": "DepositWithdrawn",
      "inputs": [
        {
          "name": "participant",
          "type": "address",
          "indexed": true,
          "internalType": "address"
        },
        {
          "name": "amount",
          "type": "uint256",
          "indexed": false,
          "internalType": "uint256"
        }
      ],
      "anonymous": false
    },
    {
      "type": "event",
      "name": "Deposited",
      "inputs": [
        {
          "name": "participant",
          "type": "address",
          "indexed": true,
          "internalType": "address"
        },
        {
          "name": "amount",
          "type": "uint256",
          "indexed": false,
          "internalType": "uint256"
        },
        {
          "name": "totalBalance",
          "type": "uint256",
          "indexed": false,
          "internalType": "uint256"
        }
      ],
      "anonymous": false
    },
    {
      "type": "event",
      "name": "EntityMoved",
      "inputs": [
        {
          "name": "entityId",
          "type": "uint256",
          "indexed": true,
          "internalType": "uint256"
        },
        {
          "name": "directionCommitment",
          "type": "bytes32",
          "indexed": false,
          "internalType": "bytes32"
        },
        {
          "name": "moveCounter",
          "type": "uint256",
          "indexed": false,
          "internalType": "uint256"
        }
      ],
      "anonymous": false
    },
    {
      "type": "event",
      "name": "MetadataUpdate",
      "inputs": [
        {
          "name": "_tokenId",
          "type": "uint256",
          "indexed": false,
          "internalType": "uint256"
        }
      ],
      "anonymous": false
    },
    {
      "type": "event",
      "name": "MintPriceUpdated",
      "inputs": [
        {
          "name": "oldPrice",
          "type": "uint256",
          "indexed": false,
          "internalType": "uint256"
        },
        {
          "name": "newPrice",
          "type": "uint256",
          "indexed": false,
          "internalType": "uint256"
        }
      ],
      "anonymous": false
    },
    {
      "type": "event",
      "name": "Minted",
      "inputs": [
        {
          "name": "participant",
          "type": "address",
          "indexed": true,
          "internalType": "address"
        },
        {
          "name": "entityId",
          "type": "uint256",
          "indexed": true,
          "internalType": "uint256"
        },
        {
          "name": "moveCounter",
          "type": "uint256",
          "indexed": false,
          "internalType": "uint256"
        },
        {
          "name": "entityTraitHash",
          "type": "bytes32",
          "indexed": false,
          "internalType": "bytes32"
        }
      ],
      "anonymous": false
    },
    {
      "type": "event",
      "name": "Moved",
      "inputs": [
        {
          "name": "participant",
          "type": "address",
          "indexed": true,
          "internalType": "address"
        },
        {
          "name": "newCommitment",
          "type": "bytes32",
          "indexed": false,
          "internalType": "bytes32"
        },
        {
          "name": "moveCounter",
          "type": "uint256",
          "indexed": false,
          "internalType": "uint256"
        }
      ],
      "anonymous": false
    },
    {
      "type": "event",
      "name": "OwnershipHandoverCanceled",
      "inputs": [
        {
          "name": "pendingOwner",
          "type": "address",
          "indexed": true,
          "internalType": "address"
        }
      ],
      "anonymous": false
    },
    {
      "type": "event",
      "name": "OwnershipHandoverRequested",
      "inputs": [
        {
          "name": "pendingOwner",
          "type": "address",
          "indexed": true,
          "internalType": "address"
        }
      ],
      "anonymous": false
    },
    {
      "type": "event",
      "name": "OwnershipTransferred",
      "inputs": [
        {
          "name": "oldOwner",
          "type": "address",
          "indexed": true,
          "internalType": "address"
        },
        {
          "name": "newOwner",
          "type": "address",
          "indexed": true,
          "internalType": "address"
        }
      ],
      "anonymous": false
    },
    {
      "type": "event",
      "name": "Registered",
      "inputs": [
        {
          "name": "participant",
          "type": "address",
          "indexed": true,
          "internalType": "address"
        },
        {
          "name": "positionCommitment",
          "type": "bytes32",
          "indexed": false,
          "internalType": "bytes32"
        }
      ],
      "anonymous": false
    },
    {
      "type": "event",
      "name": "RolesUpdated",
      "inputs": [
        {
          "name": "user",
          "type": "address",
          "indexed": true,
          "internalType": "address"
        },
        {
          "name": "roles",
          "type": "uint256",
          "indexed": true,
          "internalType": "uint256"
        }
      ],
      "anonymous": false
    },
    {
      "type": "event",
      "name": "Transfer",
      "inputs": [
        {
          "name": "from",
          "type": "address",
          "indexed": true,
          "internalType": "address"
        },
        {
          "name": "to",
          "type": "address",
          "indexed": true,
          "internalType": "address"
        },
        {
          "name": "id",
          "type": "uint256",
          "indexed": true,
          "internalType": "uint256"
        }
      ],
      "anonymous": false
    },
    {
      "type": "error",
      "name": "AccountBalanceOverflow",
      "inputs": []
    },
    {
      "type": "error",
      "name": "AlreadyInitialized",
      "inputs": []
    },
    {
      "type": "error",
      "name": "AlreadyRegistered",
      "inputs": []
    },
    {
      "type": "error",
      "name": "BalanceQueryForZeroAddress",
      "inputs": []
    },
    {
      "type": "error",
      "name": "EntityAlreadyMinted",
      "inputs": []
    },
    {
      "type": "error",
      "name": "EntityNotMinted",
      "inputs": []
    },
    {
      "type": "error",
      "name": "IncorrectPayment",
      "inputs": []
    },
    {
      "type": "error",
      "name": "InsufficientDeposit",
      "inputs": []
    },
    {
      "type": "error",
      "name": "InvalidProof",
      "inputs": []
    },
    {
      "type": "error",
      "name": "InvalidSignature",
      "inputs": []
    },
    {
      "type": "error",
      "name": "InvalidTraitProof",
      "inputs": []
    },
    {
      "type": "error",
      "name": "NewOwnerIsZeroAddress",
      "inputs": []
    },
    {
      "type": "error",
      "name": "NoHandoverRequest",
      "inputs": []
    },
    {
      "type": "error",
      "name": "NotEntityOwner",
      "inputs": []
    },
    {
      "type": "error",
      "name": "NotOwnerNorApproved",
      "inputs": []
    },
    {
      "type": "error",
      "name": "NotRegistered",
      "inputs": []
    },
    {
      "type": "error",
      "name": "ReimbursementFailed",
      "inputs": []
    },
    {
      "type": "error",
      "name": "SupplyExhausted",
      "inputs": []
    },
    {
      "type": "error",
      "name": "TokenAlreadyExists",
      "inputs": []
    },
    {
      "type": "error",
      "name": "TokenDoesNotExist",
      "inputs": []
    },
    {
      "type": "error",
      "name": "TransferFromIncorrectOwner",
      "inputs": []
    },
    {
      "type": "error",
      "name": "TransferToNonERC721ReceiverImplementer",
      "inputs": []
    },
    {
      "type": "error",
      "name": "TransferToZeroAddress",
      "inputs": []
    },
    {
      "type": "error",
      "name": "Unauthorized",
      "inputs": []
    },
    {
      "type": "error",
      "name": "WithdrawFailed",
      "inputs": []
    }
  ],
  "transactionHash": "0x0dc95049cbd6f21509c9eb638c8b6a15ee31064c59e30c1805915e7a09b41739",
  "args": [
    "0x13f2c53a52a81163cc2cf4d7acfa1084bb9a8aec66301a2fc1e2412c197a9c8d",
    "0x0000000000000000000000000000000000000000000000000000000000000000",
    "0x59244f7792c0934dfeccd2da19ec088a817700f7ea9c889408b87028f6c88f83",
    "0x0000000000000000000000000000000000000000000000000000000000000000",
    "32",
    "32",
    "32",
    "200000000000000000",
    "0xE057834BD33FB066755B1620EA626C6a972015d6",
    "0xc1F40923785E7016CEe12aD17D1de4c6b3be375C",
    "0x3D66BC8b9f5487E411974f2390f6b19148839117",
    "0x0d4e0b01b698ee8473aba405a62d70ed1756f750e73611ee5d7eff165ea44dc9",
    "0xfFF2E6B9A95e7BfF4a247D799106F0E4a3b7FEed"
  ],
  "numDeployments": 1,
  "solcInputHash": "54de1647282bfd5505ca4a24730e96a5",
  "bytecode": "0x6101e0346101fb57601f61297838819003918201601f19168301916001600160401b038311848410176101ff578084926101a0946040528339810103126101fb57805190602081015160408201516060830151608084015160a085015160c08601519060e0870151926100756101008901610213565b946100836101208a01610213565b966100916101408b01610213565b986100a56101806101608d01519c01610213565b60809c909c5260a05260c0526101a05260e05261010052610120525f9081556001600160a01b039182166101405291811661016052918216610180526101c092909252909116638b78c6d819819055907f8be0079c531659141344cd1fd0a4f28419497f9722a3daafe3b4186f6b6457e08180a3604051612750908161022882396080518181816106d60152611648015260a0518161160e015260c0518181816103950152610835015260e05181818161072201528181610dcc015281816110b40152818161178c0152611ab701526101005181818161074d01528181610df7015281816110df015281816117b70152611f7b0152610120518181816106850152611f410152610140518181816104e201528181610e420152611802015261016051818181610b0601526111610152610180518181816107ae01526120fd01526101a0518161149b01526101c051816103cf0152f35b5f80fd5b634e487b7160e01b5f52604160045260245ffd5b51906001600160a01b03821682036101fb5756fe6080806040526004361015610012575f80fd5b5f3560e01c90816301ffc9a71461212c5750806302deb69f146120e857806306fdde03146120a4578063081812fc14612053578063095ea7b314611f9e578063108c5e1414611f6457806318160ddd14611f2a578063183a4f6e14611f125780631c10893f14611eb25780631cd64df414611e7957806323b872dd14611e675780632569296214611e1e5780632a28e5a314611c685780632b062c9d14611c395780632de9480714611c075780633190b9ea14611ba857806333289a4614611b1d5780633520982114611af557806338013f0214611ada57806338b145df14611aa05780633ccfd60b14611a5557806342842e0e14611a1c57806348f640d9146119ff5780634a4ee7b1146119d7578063514e62fc1461199f578063533b7d351461196757806354d1f13d146119235780635e303c55146118f95780636352211e146118c95780636400dc96146117015780636817c76c146116e55780636b521a8a1461166b5780636bec4343146116315780636d5ebcc9146115f757806370a08231146115a4578063715018a61461155b5780637b27be5c146115315780637d882097146115145780637f377036146114be57806383687e9b146114845780638da5cb5b14611458578063929066f51461141b578063956501bb146113e357806395d89b41146113a4578063968ec2231461136c5780639e8d31d514611351578063a22cb465146112df578063a2309ff8146112c2578063a48301141461125c578063a730cdfb14611240578063aa0d188d14611003578063b02feb8314610cfe578063b88d4fde14610c93578063bd7f1f2d14610c69578063c87b56dd14610bd3578063d0e30db014610b35578063d29e1cdd14610af1578063d37ec90b14610abf578063e5187f4314610a28578063e55fa46f146105d9578063e8a3d48514610555578063e985e9c514610511578063e9ab0488146104cd578063f04e283e14610480578063f2fde38b14610443578063f4a0a528146103f2578063f815100a146103b8578063f952808c1461037e578063fb2b3e45146103545763fee81cf41461031e575f80fd5b34610350576020366003190112610350576103376121d5565b63389a75e1600c525f52602080600c2054604051908152f35b5f80fd5b34610350576020366003190112610350576004355f52600b602052602060405f2054604051908152f35b34610350575f3660031901126103505760206040517f00000000000000000000000000000000000000000000000000000000000000008152f35b34610350575f3660031901126103505760206040517f00000000000000000000000000000000000000000000000000000000000000008152f35b346103505760203660031901126103505760043561040e6125cd565b7f2e1c9e000c6e8dda4d03536adb13b7cb6034ccff90d17f01de381e4d5097b52560405f548151908152836020820152a15f55005b6020366003190112610350576104576121d5565b61045f6125cd565b8060601b156104735761047190612698565b005b637448fbae5f526004601cfd5b6020366003190112610350576104946121d5565b61049c6125cd565b63389a75e1600c52805f526020600c2090815442116104c0575f6104719255612698565b636f5e88185f526004601cfd5b34610350575f366003190112610350576040517f00000000000000000000000000000000000000000000000000000000000000006001600160a01b03168152602090f35b346103505760403660031901126103505761052a6121d5565b6105326121eb565b601c52670a5a2e7a000000006008525f5260206030600c20546040519015158152f35b34610350575f3660031901126103505760035460405163e8a3d48560e01b8152905f90829060049082906001600160a01b03165afa80156105ce576105a8915f916105ac575b50604051918291826121ab565b0390f35b6105c891503d805f833e6105c0818361223b565b81019061256a565b8261059b565b6040513d5f823e3d90fd5b60c03660031901126103505760043560243567ffffffffffffffff8111610350576106089036906004016122c3565b60443591606435906084359260a43567ffffffffffffffff811161035057366023820112156103505780600401359267ffffffffffffffff84116103505760248460051b8301019236841161035057335f52600660205260ff60405f20541615610a1957885f52600760205260ff60405f205416610a0a576002547f000000000000000000000000000000000000000000000000000000000000000011156109fb575f5434036109ec5760209061010092604051936106c7818661223b565b60078552601f190136848601377f00000000000000000000000000000000000000000000000000000000000000006106fe85612451565b528a61070985612472565b52335f526004835260405f205461071f85612482565b527f000000000000000000000000000000000000000000000000000000000000000061074a85612492565b527f0000000000000000000000000000000000000000000000000000000000000000610775856124a2565b5287610780856124b2565b528861078b856124c2565b526107aa6040519485938493633a94343960e21b8552600485016124ea565b03817f00000000000000000000000000000000000000000000000000000000000000006001600160a01b03165afa9081156105ce575f916109bd575b50156109ae5760405160208101908882528760408201526040815261080c60608261223b565b519020604051602081019182526020815261082860408261223b565b5190209261097f575b50507f000000000000000000000000000000000000000000000000000000000000000003610970575f848152600760209081526040808320805460ff19166001179055600882528083208690556009825280832093909355600a815282822093909355600b9092528120556002546108a89061254f565b600255815f52673ec412a9852d173d60c11b601c5260205f208201820180548060601b6109635733179055335f52601c600c2060018154019063ffffffff821633021561094e575581335f7fddf252ad1be2c89b69c2b068fc378daa952ba7f163c4a11628f55a4df523b3ef8180a46001549060405191825260208201527fb843254f335bad03d960d4a0f988ebaae823a93f1bf5f61b6e8702d95d6ee31160403392a3005b67ea553b3401336cea331560021b526004601cfd5b63c991cbb15f526004601cfd5b6305a7e3e960e21b5f5260045ffd5b602401915b602083359182811160051b9081521852602060405f20920191818310610984579150508580610831565b6309bde33960e01b5f5260045ffd5b6109df915060203d6020116109e5575b6109d7818361223b565b8101906124d2565b886107e6565b503d6109cd565b63569e8c1160e01b5f5260045ffd5b63ed227a6960e01b5f5260045ffd5b637861c6dd60e01b5f5260045ffd5b63aba4733960e01b5f5260045ffd5b3461035057602036600319011261035057610a416121d5565b610a496125cd565b60018060a01b03166bffffffffffffffffffffffff60a01b60035416176003557f6bd5c950a8d8df17f772f5af37cb3655737899cbf903264b9795592da439661c604080515f81525f196020820152a17fa5d4097edda6d87cb9329af83fb3712ef77eeb13738ffe43cc35a4ce305ad9625f80a1005b34610350576020366003190112610350576004355f52600c602052602060018060a01b0360405f205416604051908152f35b34610350575f366003190112610350576040517f00000000000000000000000000000000000000000000000000000000000000006001600160a01b03168152602090f35b5f36600319011261035057335f52600660205260ff60405f20541615610a19573415610bc457335f52600d60205260405f20610b7234825461255d565b9055610b8034600e5461255d565b600e55335f52600d60205260405f20546040519034825260208201527f73a19dd210f1a7f902193214c0ee91dd35ee5b4d920cba8d519eca65a7b488ca60403392a2005b63070f6eed60e11b5f5260045ffd5b34610350576020366003190112610350576004355f818152673ec412a9852d173d60c11b601c526020902081018101546001600160a01b031615610c5a5760035460405163c87b56dd60e01b815260048101929092525f90829060249082906001600160a01b03165afa80156105ce576105a8915f916105ac5750604051918291826121ab565b63677510db60e11b5f5260045ffd5b34610350576020366003190112610350576004355f52600a602052602060405f2054604051908152f35b608036600319011261035057610ca76121d5565b610caf6121eb565b9060443560643567ffffffffffffffff811161035057610cd39036906004016122c3565b610ce18386869794976122f1565b813b610ce957005b61047194610cf891369161228d565b92612606565b3461035057606036600319011261035057610d176121d5565b60243567ffffffffffffffff811161035057610d379036906004016122c3565b60449291923591638b78c6d8600c52335f5260026020600c20541615610ff6576001600160a01b03165f8181526006602052604090205490939060ff1615610a1957835f52600d60205260405f205415610bc45760205a9260405192610d9e60a08561223b565b6004845260803684860137865f526004835260405f2054610dbe85612451565b5285610dc985612472565b527f0000000000000000000000000000000000000000000000000000000000000000610df485612482565b527f0000000000000000000000000000000000000000000000000000000000000000610e1f85612492565b52610e3e6040519485938493633a94343960e21b8552600485016124ea565b03817f00000000000000000000000000000000000000000000000000000000000000006001600160a01b03165afa9081156105ce575f91610fd7575b50156109ae57827fef343ac8c5429d26f5feb7c5015dd92f57b3d2b664078f8760a48ee9a6d48b756040610eef94835f52600460205280825f2055610ec060015461254f565b600155835f526005602052815f20610ed8815461254f565b905560015482519182526020820152a25a906123e8565b9061c3508201809211610fc3573a8202918083043a1490151715610fc3575f808084819481818452600d602052604084205410610faf575b808352600d60205260408320610f3e8382546123e8565b9055610f4c82600e546123e8565b600e55808352600d602052604083205415610f85575b50335af1610f6e6123f5565b5015610f7657005b63019285f360e51b5f5260045ffd5b7fc87f3b3ee7ca0f9af3a516da4106acc27a3087beded91b370b0b2dc25d0d00598380a285610f62565b808352600d60205260408320549150610f27565b634e487b7160e01b5f52601160045260245ffd5b610ff0915060203d6020116109e5576109d7818361223b565b84610e7a565b6382b429005f526004601cfd5b346103505760803660031901126103505760043560243567ffffffffffffffff8111610350576110379036906004016122c3565b906044359060643592845f52600760205260ff60405f205416156112315761105e85612424565b336001600160a01b0390911603611222576020906101009260405193611084818661223b565b60078552601f19013684860137865f526009835260405f20546110a685612451565b52846110b185612472565b527f00000000000000000000000000000000000000000000000000000000000000006110dc85612482565b527f000000000000000000000000000000000000000000000000000000000000000061110785612492565b5285611112856124a2565b52865f52600a835260405f2054611128856124b2565b52865f52600b835260405f205461113e856124c2565b5261115d6040519485938493633a94343960e21b8552600485016124ea565b03817f00000000000000000000000000000000000000000000000000000000000000006001600160a01b03165afa9081156105ce575f91611203575b50156109ae577f693dbee638dd7128a5c028e11bb1fa9f112ab758d39c0ace8774496fd6c5614691604091845f526009602052825f2055835f52600b602052815f206111e5815461254f565b90556111f260015461254f565b8060015582519182526020820152a2005b61121c915060203d6020116109e5576109d7818361223b565b84611199565b63fef2862960e01b5f5260045ffd5b6381c8314760e01b5f5260045ffd5b34610350575f36600319011261035057602060405161c3508152f35b34610350576040366003190112610350576003546001600160a01b031633036112b5575b7f6bd5c950a8d8df17f772f5af37cb3655737899cbf903264b9795592da439661c6040805160043581526024356020820152a1005b6112bd6125dc565b611280565b34610350575f366003190112610350576020600254604051908152f35b34610350576040366003190112610350576112f86121d5565b6024358015158091036103505781601c52670a5a2e7a00000000600852335f52806030600c20555f5260018060a01b0316337f17307eab39ab6107e8899845ad3d59bd9653f200f220920489ca2b5937696c3160205fa3005b34610350575f36600319011261035057602060405160018152f35b34610350576020366003190112610350576001600160a01b0361138d6121d5565b165f526004602052602060405f2054604051908152f35b34610350575f366003190112610350576105a86040516113c560408261223b565b6005815264475241535360d81b6020820152604051918291826121ab565b34610350576020366003190112610350576001600160a01b036114046121d5565b165f52600d602052602060405f2054604051908152f35b34610350576020366003190112610350576001600160a01b0361143c6121d5565b165f526006602052602060ff60405f2054166040519015158152f35b34610350575f36600319011261035057638b78c6d819546040516001600160a01b039091168152602090f35b34610350575f3660031901126103505760206040517f00000000000000000000000000000000000000000000000000000000000000008152f35b34610350575f366003190112610350576003546001600160a01b03163303611507575b7fa5d4097edda6d87cb9329af83fb3712ef77eeb13738ffe43cc35a4ce305ad9625f80a1005b61150f6125dc565b6114e1565b34610350575f366003190112610350576020600e54604051908152f35b34610350576020366003190112610350576004355f526009602052602060405f2054604051908152f35b5f3660031901126103505761156e6125cd565b5f638b78c6d819547f8be0079c531659141344cd1fd0a4f28419497f9722a3daafe3b4186f6b6457e08280a35f638b78c6d81955005b34610350576020366003190112610350576115bd6121d5565b80156115ea57673ec412a9852d173d60c11b601c525f52602063ffffffff601c600c205416604051908152f35b638f4eb6045f526004601cfd5b34610350575f3660031901126103505760206040517f00000000000000000000000000000000000000000000000000000000000000008152f35b34610350575f3660031901126103505760206040517f00000000000000000000000000000000000000000000000000000000000000008152f35b34610350576040366003190112610350576004356116876121eb565b906116906125cd565b5f818152673ec412a9852d173d60c11b601c526020902081018101546001600160a01b0316610350575f908152600c6020526040902080546001600160a01b0319166001600160a01b03909216919091179055005b34610350575f3660031901126103505760205f54604051908152f35b346103505760403660031901126103505760043567ffffffffffffffff8111610350576117329036906004016122c3565b9060243591335f52600660205260ff60405f20541615610a19576020906040519261175e60a08561223b565b6004845260803684860137335f526004835260405f205461177e85612451565b528461178985612472565b527f00000000000000000000000000000000000000000000000000000000000000006117b485612482565b527f00000000000000000000000000000000000000000000000000000000000000006117df85612492565b526117fe6040519485938493633a94343960e21b8552600485016124ea565b03817f00000000000000000000000000000000000000000000000000000000000000006001600160a01b03165afa9081156105ce575f916118aa575b50156109ae57335f5260046020528060405f205561185960015461254f565b600155335f52600560205260405f20611872815461254f565b905560015460405191825260208201527fef343ac8c5429d26f5feb7c5015dd92f57b3d2b664078f8760a48ee9a6d48b7560403392a2005b6118c3915060203d6020116109e5576109d7818361223b565b8261183a565b346103505760203660031901126103505760206118e7600435612424565b6040516001600160a01b039091168152f35b34610350576020366003190112610350576004355f526008602052602060405f2054604051908152f35b5f3660031901126103505763389a75e1600c52335f525f6020600c2055337ffa7b8eab7da67f412cc9575ed43464468f9bfbae89d1675917346ca6d8fe3c925f80a2005b34610350576020366003190112610350576001600160a01b036119886121d5565b165f526005602052602060405f2054604051908152f35b34610350576040366003190112610350576119b86121d5565b638b78c6d8600c525f52602060243581600c2054161515604051908152f35b6040366003190112610350576104716119ee6121d5565b6119f66125cd565b602435906126d5565b34610350575f366003190112610350576020600154604051908152f35b611a2536612201565b611a3281838594956122f1565b823b611a3a57005b6104719260405192611a4d60208561223b565b5f8452612606565b34610350575f36600319011261035057611a6d6125cd565b5f808080611a7e47600e54906123e8565b335af1611a896123f5565b5015611a9157005b631d42c86760e21b5f5260045ffd5b34610350575f3660031901126103505760206040517f00000000000000000000000000000000000000000000000000000000000000008152f35b34610350575f36600319011261035057602060405160028152f35b34610350575f366003190112610350576003546040516001600160a01b039091168152602090f35b3461035057602036600319011261035057600435335f52600d60205260405f20548111610bc4575f80808093338252600d60205260408220611b608282546123e8565b9055611b6e81600e546123e8565b600e556040518181527f4482101800a5c2e900f4156e57e05e19ffd7b366cde579553d723fd3abb2180e60203392a2335af1611a896123f5565b34610350576020366003190112610350576003546001600160a01b03163303611bfa575b7ff8e1a15aba9398e019f0b49df1a4fde98ee17ae345cb5f6b5e2c27f5033e8ce760206040516004358152a1005b611c026125dc565b611bcc565b3461035057602036600319011261035057611c206121d5565b638b78c6d8600c525f52602080600c2054604051908152f35b34610350576020366003190112610350576004355f526007602052602060ff60405f2054166040519015158152f35b346103505760403660031901126103505760043560243567ffffffffffffffff8111610350573660238201121561035057611cad90369060248160040135910161228d565b335f52600660205260ff60405f205416611e0f5760405160208101903360601b825283603482015260348152611ce460548261223b565b5190206020527b19457468657265756d205369676e6564204d6573736167653a0a33325f52603c60042090604051916020820191805180604014611dee57604114611d3c5750505050505b638baa579f5f526004601cfd5b80606060409201515f1a60205201516060525b5f52516040526020600160805f825afa51905f6060526040523d611d74575050611d2f565b638b78c6d8600c525f5260026020600c20541615611ddf57335f52600660205260405f20600160ff19825416179055335f5260046020528060405f20556040519081527fb8142d42f05d95abf0a6570799774d59276e49ea32a04d9a4ec316ea4a6886bc60203392a2005b638baa579f60e01b5f5260045ffd5b506040015160ff81901c601b016020526001600160ff1b0316606052611d4f565b630ea075bf60e21b5f5260045ffd5b5f3660031901126103505763389a75e1600c52335f526202a30042016020600c2055337fdbf36a107da19e49527a7176a1babf963b4b0ff8cde35ee35d6cd8f1f9ac7e1d5f80a2005b610471611e7336612201565b916122f1565b34610350576040366003190112610350576020611e946121d5565b60243590638b78c6d8600c525f528082600c20541614604051908152f35b604036600319011261035057611ec66121d5565b611ece6125cd565b638b78c6d8600c525f526020600c20602435815417809155600c5160601c7f715ad5ce61fc9595c7b415289d59cf203f23a94fa06f04af7e489a0a76e1fe265f80a3005b602036600319011261035057610471600435336126d5565b34610350575f3660031901126103505760206040517f00000000000000000000000000000000000000000000000000000000000000008152f35b34610350575f3660031901126103505760206040517f00000000000000000000000000000000000000000000000000000000000000008152f35b604036600319011261035057611fb26121d5565b6024355f818152673ec412a9852d173d60c11b3317601c526020902081018101805491926001600160a01b03908116921690811561204657829082331433151715612022575b600101557f8c5be1e5ebec7d5bd14f71427d1e84f3dd0314c0f7b2291e5b200ac8c7c3b9255f80a4005b9050815f526030600c205415612039578290611ff8565b634b6e7f185f526004601cfd5b63ceea21b65f526004601cfd5b34610350576020366003190112610350576004355f818152673ec412a9852d173d60c11b601c5260209020810101805460601b1561204657600101546040516001600160a01b039091168152602090f35b34610350575f366003190112610350576105a86040516120c560408261223b565b600a81526954616c6c20477261737360b01b6020820152604051918291826121ab565b34610350575f366003190112610350576040517f00000000000000000000000000000000000000000000000000000000000000006001600160a01b03168152602090f35b3461035057602036600319011261035057600435906001600160e01b0319821680830361035057602092632483248360e11b821491821561219a575b508115612177575b5015158152f35b905060e01c635b5e139f8114906301ffc9a76380ac58cd82149114171783612170565b63e8a3d48560e01b14915084612168565b602060409281835280519182918282860152018484015e5f828201840152601f01601f1916010190565b600435906001600160a01b038216820361035057565b602435906001600160a01b038216820361035057565b6060906003190112610350576004356001600160a01b038116810361035057906024356001600160a01b0381168103610350579060443590565b90601f8019910116810190811067ffffffffffffffff82111761225d57604052565b634e487b7160e01b5f52604160045260245ffd5b67ffffffffffffffff811161225d57601f01601f191660200190565b92919261229982612271565b916122a7604051938461223b565b829481845281830111610350578281602093845f960137010152565b9181601f840112156103505782359167ffffffffffffffff8311610350576020838186019501011161035057565b5f838152673ec412a9852d173d60c11b3317601c52602090208301830180546001600160a01b03938416939283169281168084148102156123d35750825f5281600101805480331485331417156123bc575b6123b3575b50838318189055601c600c205f198154019055815f52601c600c2060018154019063ffffffff821684021561239e57557fddf252ad1be2c89b69c2b068fc378daa952ba7f163c4a11628f55a4df523b3ef5f80a4565b67ea553b3401336cea841560021b526004601cfd5b5f90555f612348565b6030600c205461234357634b6e7f185f526004601cfd5b67ceea21b6a1148100901560021b526004601cfd5b91908203918211610fc357565b3d1561241f573d9061240682612271565b91612414604051938461223b565b82523d5f602084013e565b606090565b5f818152673ec412a9852d173d60c11b601c5260209020810101546001600160a01b031690811561204657565b80511561245e5760200190565b634e487b7160e01b5f52603260045260245ffd5b80516001101561245e5760400190565b80516002101561245e5760600190565b80516003101561245e5760800190565b80516004101561245e5760a00190565b80516005101561245e5760c00190565b80516006101561245e5760e00190565b90816020910312610350575180151581036103505790565b91806080916020936040865281604087015260608601375f60608286010152601f801991011683016060810193836060828403019101528451809452019201905f5b8181106125395750505090565b825184526020938401939092019160010161252c565b5f198114610fc35760010190565b91908201809211610fc357565b6020818303126103505780519067ffffffffffffffff8211610350570181601f820112156103505780519061259e82612271565b926125ac604051948561223b565b8284526020838301011161035057815f9260208093018386015e8301015290565b638b78c6d819543303610ff657565b638b78c6d8195433036125eb57565b638b78c6d8600c52335f5260016020600c20541615610ff657565b9060a46020939460405195869463150b7a028652338787015260018060a01b03166040860152606085015260808085015280518091818060a0880152612684575b505001905f601c8401915af115612676575b5163757a42ff60e11b0161266957565b63d1a57ed65f526004601cfd5b3d15612659573d5f823e3d90fd5b818760c08801920160045afa50805f612647565b60018060a01b031680638b78c6d819547f8be0079c531659141344cd1fd0a4f28419497f9722a3daafe3b4186f6b6457e05f80a3638b78c6d81955565b638b78c6d8600c525f526020600c2090815490811618809155600c5160601c7f715ad5ce61fc9595c7b415289d59cf203f23a94fa06f04af7e489a0a76e1fe265f80a356fea26469706673582212205efbf540c547544f1a665c6a796361d5c8fc51d4c98a72750cf28e6e85cff29964736f6c634300081e0033",
  "devdoc": {
    "errors": {
      "AccountBalanceOverflow()": [
        {
          "details": "The recipient's balance has overflowed."
        }
      ],
      "AlreadyInitialized()": [
        {
          "details": "Cannot double-initialize."
        }
      ],
      "BalanceQueryForZeroAddress()": [
        {
          "details": "Cannot query the balance for the zero address."
        }
      ],
      "NewOwnerIsZeroAddress()": [
        {
          "details": "The `newOwner` cannot be the zero address."
        }
      ],
      "NoHandoverRequest()": [
        {
          "details": "The `pendingOwner` does not have a valid handover request."
        }
      ],
      "NotOwnerNorApproved()": [
        {
          "details": "Only the token owner or an approved account can manage the token."
        }
      ],
      "TokenAlreadyExists()": [
        {
          "details": "The token already exists."
        }
      ],
      "TokenDoesNotExist()": [
        {
          "details": "The token does not exist."
        }
      ],
      "TransferFromIncorrectOwner()": [
        {
          "details": "The token must be owned by `from`."
        }
      ],
      "TransferToNonERC721ReceiverImplementer()": [
        {
          "details": "Cannot safely transfer to a contract that does not implement the ERC721Receiver interface."
        }
      ],
      "TransferToZeroAddress()": [
        {
          "details": "Cannot mint or transfer to the zero address."
        }
      ],
      "Unauthorized()": [
        {
          "details": "The caller is not authorized to call the function."
        }
      ]
    },
    "events": {
      "Approval(address,address,uint256)": {
        "details": "Emitted when `owner` enables `account` to manage the `id` token."
      },
      "ApprovalForAll(address,address,bool)": {
        "details": "Emitted when `owner` enables or disables `operator` to manage all of their tokens."
      },
      "OwnershipHandoverCanceled(address)": {
        "details": "The ownership handover to `pendingOwner` has been canceled."
      },
      "OwnershipHandoverRequested(address)": {
        "details": "An ownership handover to `pendingOwner` has been requested."
      },
      "OwnershipTransferred(address,address)": {
        "details": "The ownership is transferred from `oldOwner` to `newOwner`. This event is intentionally kept the same as OpenZeppelin's Ownable to be compatible with indexers and [EIP-173](https://eips.ethereum.org/EIPS/eip-173), despite it not being as lightweight as a single argument event."
      },
      "RolesUpdated(address,uint256)": {
        "details": "The `user`'s roles is updated to `roles`. Each bit of `roles` represents whether the role is set."
      },
      "Transfer(address,address,uint256)": {
        "details": "Emitted when token `id` is transferred from `from` to `to`."
      }
    },
    "kind": "dev",
    "methods": {
      "approve(address,uint256)": {
        "details": "Sets `account` as the approved account to manage token `id`. Requirements: - Token `id` must exist. - The caller must be the owner of the token,   or an approved operator for the token owner. Emits an {Approval} event."
      },
      "balanceOf(address)": {
        "details": "Returns the number of tokens owned by `owner`. Requirements: - `owner` must not be the zero address."
      },
      "cancelOwnershipHandover()": {
        "details": "Cancels the two-step ownership handover to the caller, if any."
      },
      "completeOwnershipHandover(address)": {
        "details": "Allows the owner to complete the two-step ownership handover to `pendingOwner`. Reverts if there is no existing ownership handover requested by `pendingOwner`."
      },
      "getApproved(uint256)": {
        "details": "Returns the account approved to manage token `id`. Requirements: - Token `id` must exist."
      },
      "grantRoles(address,uint256)": {
        "details": "Allows the owner to grant `user` `roles`. If the `user` already has a role, then it will be an no-op for the role."
      },
      "hasAllRoles(address,uint256)": {
        "details": "Returns whether `user` has all of `roles`."
      },
      "hasAnyRole(address,uint256)": {
        "details": "Returns whether `user` has any of `roles`."
      },
      "isApprovedForAll(address,address)": {
        "details": "Returns whether `operator` is approved to manage the tokens of `owner`."
      },
      "mint(uint256,bytes,bytes32,bytes32,bytes32,bytes32[])": {
        "params": {
          "_entityTraitHash": "keccak256 hash of the entity's encrypted traits ciphertext.",
          "blindingSeedCommitment": "hash_1(blinding_seed) for direction blinding.",
          "encounterProof": "ZK proof of co-location with entity.",
          "entityId": "The entity to mint.",
          "initialPositionCommitment": "Poseidon(x, y, salt) for entity's starting position.",
          "traitMerkleProof": "Merkle proof of _entityTraitHash against entityTraitMerkleRoot."
        }
      },
      "move(bytes,bytes32)": {
        "params": {
          "newPositionCommitment": "The new Poseidon(x, y, salt) after moving.",
          "proof": "The serialized UltraHonk proof."
        }
      },
      "moveEntity(uint256,bytes,bytes32,bytes32)": {
        "params": {
          "directionCommitment": "Blinded direction commitment.",
          "entityId": "The entity to move (must be owned by msg.sender).",
          "newPositionCommitment": "The new Poseidon(x, y, salt) after moving.",
          "proof": "The serialized UltraHonk proof."
        }
      },
      "name()": {
        "details": "Returns the token collection name."
      },
      "owner()": {
        "details": "Returns the owner of the contract."
      },
      "ownerOf(uint256)": {
        "details": "Returns the owner of token `id`. Requirements: - Token `id` must exist."
      },
      "ownershipHandoverExpiresAt(address)": {
        "details": "Returns the expiry timestamp for the two-step ownership handover to `pendingOwner`."
      },
      "register(bytes32,bytes)": {
        "params": {
          "initialPositionCommitment": "Poseidon(x, y, salt) computed client-side.",
          "oracleSignature": "Oracle signature over (participant, commitment)."
        }
      },
      "renounceOwnership()": {
        "details": "Allows the owner to renounce their ownership."
      },
      "renounceRoles(uint256)": {
        "details": "Allow the caller to remove their own roles. If the caller does not have a role, then it will be an no-op for the role."
      },
      "requestOwnershipHandover()": {
        "details": "Request a two-step ownership handover to the caller. The request will automatically expire in 48 hours (172800 seconds) by default."
      },
      "revokeRoles(address,uint256)": {
        "details": "Allows the owner to remove `user` `roles`. If the `user` does not have a role, then it will be an no-op for the role."
      },
      "rolesOf(address)": {
        "details": "Returns the roles of `user`."
      },
      "safeTransferFrom(address,address,uint256)": {
        "details": "Equivalent to `safeTransferFrom(from, to, id, \"\")`."
      },
      "safeTransferFrom(address,address,uint256,bytes)": {
        "details": "Transfers token `id` from `from` to `to`. Requirements: - Token `id` must exist. - `from` must be the owner of the token. - `to` cannot be the zero address. - The caller must be the owner of the token, or be approved to manage the token. - If `to` refers to a smart contract, it must implement   {IERC721Receiver-onERC721Received}, which is called upon a safe transfer. Emits a {Transfer} event."
      },
      "setApprovalForAll(address,bool)": {
        "details": "Sets whether `operator` is approved to manage the tokens of the caller. Emits an {ApprovalForAll} event."
      },
      "supportsInterface(bytes4)": {
        "details": "Returns true if this contract implements the interface defined by `interfaceId`. See: https://eips.ethereum.org/EIPS/eip-165 This function call must use less than 30000 gas."
      },
      "symbol()": {
        "details": "Returns the token collection symbol."
      },
      "transferFrom(address,address,uint256)": {
        "details": "Transfers token `id` from `from` to `to`. Requirements: - Token `id` must exist. - `from` must be the owner of the token. - `to` cannot be the zero address. - The caller must be the owner of the token, or be approved to manage the token. Emits a {Transfer} event."
      },
      "transferOwnership(address)": {
        "details": "Allows the owner to transfer the ownership to `newOwner`."
      }
    },
    "version": 1
  },
  "userdoc": {
    "kind": "user",
    "methods": {
      "deposit()": {
        "notice": "Deposit ETH for gas relay. Additive, idempotent."
      },
      "mint(uint256,bytes,bytes32,bytes32,bytes32,bytes32[])": {
        "notice": "Mint an encountered entity using a ZK encounter proof."
      },
      "move(bytes,bytes32)": {
        "notice": "Submit a ZK proof of valid movement."
      },
      "moveEntity(uint256,bytes,bytes32,bytes32)": {
        "notice": "Move a minted entity with a ZK proof of valid movement."
      },
      "register(bytes32,bytes)": {
        "notice": "Register as a participant with an oracle-signed position commitment."
      },
      "relayMove(address,bytes,bytes32)": {
        "notice": "Oracle relays a browser-generated movement proof, reimbursed from deposit."
      },
      "withdraw()": {
        "notice": "Withdraw accumulated ETH (mint fees). Owner-only."
      },
      "withdrawDeposit(uint256)": {
        "notice": "Withdraw deposit balance."
      }
    },
    "version": 1
  },
  "storageLayout": {
    "storage": [
      {
        "astId": 2897,
        "contract": "src/TallGrass.sol:TallGrass",
        "label": "mintPrice",
        "offset": 0,
        "slot": "0",
        "type": "t_uint256"
      },
      {
        "astId": 2912,
        "contract": "src/TallGrass.sol:TallGrass",
        "label": "moveCounter",
        "offset": 0,
        "slot": "1",
        "type": "t_uint256"
      },
      {
        "astId": 2914,
        "contract": "src/TallGrass.sol:TallGrass",
        "label": "totalMinted",
        "offset": 0,
        "slot": "2",
        "type": "t_uint256"
      },
      {
        "astId": 2916,
        "contract": "src/TallGrass.sol:TallGrass",
        "label": "metadataContract",
        "offset": 0,
        "slot": "3",
        "type": "t_address"
      },
      {
        "astId": 2920,
        "contract": "src/TallGrass.sol:TallGrass",
        "label": "positionCommitments",
        "offset": 0,
        "slot": "4",
        "type": "t_mapping(t_address,t_bytes32)"
      },
      {
        "astId": 2924,
        "contract": "src/TallGrass.sol:TallGrass",
        "label": "participantMoveCount",
        "offset": 0,
        "slot": "5",
        "type": "t_mapping(t_address,t_uint256)"
      },
      {
        "astId": 2928,
        "contract": "src/TallGrass.sol:TallGrass",
        "label": "isParticipant",
        "offset": 0,
        "slot": "6",
        "type": "t_mapping(t_address,t_bool)"
      },
      {
        "astId": 2932,
        "contract": "src/TallGrass.sol:TallGrass",
        "label": "entityMinted",
        "offset": 0,
        "slot": "7",
        "type": "t_mapping(t_uint256,t_bool)"
      },
      {
        "astId": 2936,
        "contract": "src/TallGrass.sol:TallGrass",
        "label": "entityTraitHash",
        "offset": 0,
        "slot": "8",
        "type": "t_mapping(t_uint256,t_bytes32)"
      },
      {
        "astId": 2940,
        "contract": "src/TallGrass.sol:TallGrass",
        "label": "entityPositionCommitments",
        "offset": 0,
        "slot": "9",
        "type": "t_mapping(t_uint256,t_bytes32)"
      },
      {
        "astId": 2944,
        "contract": "src/TallGrass.sol:TallGrass",
        "label": "entityBlindingSeedCommitments",
        "offset": 0,
        "slot": "10",
        "type": "t_mapping(t_uint256,t_bytes32)"
      },
      {
        "astId": 2948,
        "contract": "src/TallGrass.sol:TallGrass",
        "label": "entityMoveCount",
        "offset": 0,
        "slot": "11",
        "type": "t_mapping(t_uint256,t_uint256)"
      },
      {
        "astId": 2952,
        "contract": "src/TallGrass.sol:TallGrass",
        "label": "eP",
        "offset": 0,
        "slot": "12",
        "type": "t_mapping(t_uint256,t_address)"
      },
      {
        "astId": 2956,
        "contract": "src/TallGrass.sol:TallGrass",
        "label": "depositBalance",
        "offset": 0,
        "slot": "13",
        "type": "t_mapping(t_address,t_uint256)"
      },
      {
        "astId": 2958,
        "contract": "src/TallGrass.sol:TallGrass",
        "label": "totalDeposits",
        "offset": 0,
        "slot": "14",
        "type": "t_uint256"
      }
    ],
    "types": {
      "t_address": {
        "encoding": "inplace",
        "label": "address",
        "numberOfBytes": "20"
      },
      "t_bool": {
        "encoding": "inplace",
        "label": "bool",
        "numberOfBytes": "1"
      },
      "t_bytes32": {
        "encoding": "inplace",
        "label": "bytes32",
        "numberOfBytes": "32"
      },
      "t_mapping(t_address,t_bool)": {
        "encoding": "mapping",
        "key": "t_address",
        "label": "mapping(address => bool)",
        "numberOfBytes": "32",
        "value": "t_bool"
      },
      "t_mapping(t_address,t_bytes32)": {
        "encoding": "mapping",
        "key": "t_address",
        "label": "mapping(address => bytes32)",
        "numberOfBytes": "32",
        "value": "t_bytes32"
      },
      "t_mapping(t_address,t_uint256)": {
        "encoding": "mapping",
        "key": "t_address",
        "label": "mapping(address => uint256)",
        "numberOfBytes": "32",
        "value": "t_uint256"
      },
      "t_mapping(t_uint256,t_address)": {
        "encoding": "mapping",
        "key": "t_uint256",
        "label": "mapping(uint256 => address)",
        "numberOfBytes": "32",
        "value": "t_address"
      },
      "t_mapping(t_uint256,t_bool)": {
        "encoding": "mapping",
        "key": "t_uint256",
        "label": "mapping(uint256 => bool)",
        "numberOfBytes": "32",
        "value": "t_bool"
      },
      "t_mapping(t_uint256,t_bytes32)": {
        "encoding": "mapping",
        "key": "t_uint256",
        "label": "mapping(uint256 => bytes32)",
        "numberOfBytes": "32",
        "value": "t_bytes32"
      },
      "t_mapping(t_uint256,t_uint256)": {
        "encoding": "mapping",
        "key": "t_uint256",
        "label": "mapping(uint256 => uint256)",
        "numberOfBytes": "32",
        "value": "t_uint256"
      },
      "t_uint256": {
        "encoding": "inplace",
        "label": "uint256",
        "numberOfBytes": "32"
      }
    }
  }
}