{
  "address": "0x0165878A594ca255338adfa4d48449f69242Eb8F",
  "abi": [
    {
      "inputs": [
        {
          "internalType": "bytes32",
          "name": "_seedCommitment",
          "type": "bytes32"
        },
        {
          "internalType": "bytes32",
          "name": "_terrainMerkleRoot",
          "type": "bytes32"
        },
        {
          "internalType": "bytes32",
          "name": "_entityTraitMerkleRoot",
          "type": "bytes32"
        },
        {
          "internalType": "bytes32",
          "name": "_entityMerkleRoot",
          "type": "bytes32"
        },
        {
          "internalType": "uint256",
          "name": "_gridWidth",
          "type": "uint256"
        },
        {
          "internalType": "uint256",
          "name": "_gridHeight",
          "type": "uint256"
        },
        {
          "internalType": "uint256",
          "name": "_totalSupply",
          "type": "uint256"
        },
        {
          "internalType": "uint256",
          "name": "_mintPrice",
          "type": "uint256"
        },
        {
          "internalType": "address",
          "name": "_movementVerifier",
          "type": "address"
        },
        {
          "internalType": "address",
          "name": "_entityMovementVerifier",
          "type": "address"
        },
        {
          "internalType": "address",
          "name": "_encounterVerifier",
          "type": "address"
        },
        {
          "internalType": "bytes32",
          "name": "_decryptionKeyCommitment",
          "type": "bytes32"
        },
        {
          "internalType": "address",
          "name": "_owner",
          "type": "address"
        }
      ],
      "stateMutability": "nonpayable",
      "type": "constructor"
    },
    {
      "inputs": [],
      "name": "AccountBalanceOverflow",
      "type": "error"
    },
    {
      "inputs": [],
      "name": "AlreadyInitialized",
      "type": "error"
    },
    {
      "inputs": [],
      "name": "AlreadyRegistered",
      "type": "error"
    },
    {
      "inputs": [],
      "name": "BalanceQueryForZeroAddress",
      "type": "error"
    },
    {
      "inputs": [],
      "name": "EntityAlreadyMinted",
      "type": "error"
    },
    {
      "inputs": [],
      "name": "EntityNotMinted",
      "type": "error"
    },
    {
      "inputs": [],
      "name": "InsufficientDeposit",
      "type": "error"
    },
    {
      "inputs": [],
      "name": "InsufficientPayment",
      "type": "error"
    },
    {
      "inputs": [],
      "name": "InvalidProof",
      "type": "error"
    },
    {
      "inputs": [],
      "name": "InvalidSignature",
      "type": "error"
    },
    {
      "inputs": [],
      "name": "InvalidTraitProof",
      "type": "error"
    },
    {
      "inputs": [],
      "name": "NewOwnerIsZeroAddress",
      "type": "error"
    },
    {
      "inputs": [],
      "name": "NoHandoverRequest",
      "type": "error"
    },
    {
      "inputs": [],
      "name": "NotEntityOwner",
      "type": "error"
    },
    {
      "inputs": [],
      "name": "NotOwnerNorApproved",
      "type": "error"
    },
    {
      "inputs": [],
      "name": "NotRegistered",
      "type": "error"
    },
    {
      "inputs": [],
      "name": "ReimbursementFailed",
      "type": "error"
    },
    {
      "inputs": [],
      "name": "TokenAlreadyExists",
      "type": "error"
    },
    {
      "inputs": [],
      "name": "TokenDoesNotExist",
      "type": "error"
    },
    {
      "inputs": [],
      "name": "TransferFromIncorrectOwner",
      "type": "error"
    },
    {
      "inputs": [],
      "name": "TransferToNonERC721ReceiverImplementer",
      "type": "error"
    },
    {
      "inputs": [],
      "name": "TransferToZeroAddress",
      "type": "error"
    },
    {
      "inputs": [],
      "name": "Unauthorized",
      "type": "error"
    },
    {
      "inputs": [],
      "name": "WithdrawFailed",
      "type": "error"
    },
    {
      "anonymous": false,
      "inputs": [
        {
          "indexed": true,
          "internalType": "address",
          "name": "owner",
          "type": "address"
        },
        {
          "indexed": true,
          "internalType": "address",
          "name": "account",
          "type": "address"
        },
        {
          "indexed": true,
          "internalType": "uint256",
          "name": "id",
          "type": "uint256"
        }
      ],
      "name": "Approval",
      "type": "event"
    },
    {
      "anonymous": false,
      "inputs": [
        {
          "indexed": true,
          "internalType": "address",
          "name": "owner",
          "type": "address"
        },
        {
          "indexed": true,
          "internalType": "address",
          "name": "operator",
          "type": "address"
        },
        {
          "indexed": false,
          "internalType": "bool",
          "name": "isApproved",
          "type": "bool"
        }
      ],
      "name": "ApprovalForAll",
      "type": "event"
    },
    {
      "anonymous": false,
      "inputs": [
        {
          "indexed": false,
          "internalType": "uint256",
          "name": "_fromTokenId",
          "type": "uint256"
        },
        {
          "indexed": false,
          "internalType": "uint256",
          "name": "_toTokenId",
          "type": "uint256"
        }
      ],
      "name": "BatchMetadataUpdate",
      "type": "event"
    },
    {
      "anonymous": false,
      "inputs": [],
      "name": "ContractURIUpdated",
      "type": "event"
    },
    {
      "anonymous": false,
      "inputs": [
        {
          "indexed": true,
          "internalType": "address",
          "name": "participant",
          "type": "address"
        }
      ],
      "name": "DepositDepleted",
      "type": "event"
    },
    {
      "anonymous": false,
      "inputs": [
        {
          "indexed": true,
          "internalType": "address",
          "name": "participant",
          "type": "address"
        },
        {
          "indexed": false,
          "internalType": "uint256",
          "name": "amount",
          "type": "uint256"
        }
      ],
      "name": "DepositWithdrawn",
      "type": "event"
    },
    {
      "anonymous": false,
      "inputs": [
        {
          "indexed": true,
          "internalType": "address",
          "name": "participant",
          "type": "address"
        },
        {
          "indexed": false,
          "internalType": "uint256",
          "name": "amount",
          "type": "uint256"
        },
        {
          "indexed": false,
          "internalType": "uint256",
          "name": "totalBalance",
          "type": "uint256"
        }
      ],
      "name": "Deposited",
      "type": "event"
    },
    {
      "anonymous": false,
      "inputs": [
        {
          "indexed": true,
          "internalType": "uint256",
          "name": "entityId",
          "type": "uint256"
        },
        {
          "indexed": false,
          "internalType": "bytes32",
          "name": "directionCommitment",
          "type": "bytes32"
        },
        {
          "indexed": false,
          "internalType": "uint256",
          "name": "moveCounter",
          "type": "uint256"
        }
      ],
      "name": "EntityMoved",
      "type": "event"
    },
    {
      "anonymous": false,
      "inputs": [
        {
          "indexed": false,
          "internalType": "uint256",
          "name": "_tokenId",
          "type": "uint256"
        }
      ],
      "name": "MetadataUpdate",
      "type": "event"
    },
    {
      "anonymous": false,
      "inputs": [
        {
          "indexed": true,
          "internalType": "address",
          "name": "participant",
          "type": "address"
        },
        {
          "indexed": true,
          "internalType": "uint256",
          "name": "entityId",
          "type": "uint256"
        },
        {
          "indexed": false,
          "internalType": "uint256",
          "name": "moveCounter",
          "type": "uint256"
        },
        {
          "indexed": false,
          "internalType": "bytes32",
          "name": "entityTraitCID",
          "type": "bytes32"
        }
      ],
      "name": "Minted",
      "type": "event"
    },
    {
      "anonymous": false,
      "inputs": [
        {
          "indexed": true,
          "internalType": "address",
          "name": "participant",
          "type": "address"
        },
        {
          "indexed": false,
          "internalType": "bytes32",
          "name": "newCommitment",
          "type": "bytes32"
        },
        {
          "indexed": false,
          "internalType": "uint256",
          "name": "moveCounter",
          "type": "uint256"
        }
      ],
      "name": "Moved",
      "type": "event"
    },
    {
      "anonymous": false,
      "inputs": [
        {
          "indexed": true,
          "internalType": "address",
          "name": "pendingOwner",
          "type": "address"
        }
      ],
      "name": "OwnershipHandoverCanceled",
      "type": "event"
    },
    {
      "anonymous": false,
      "inputs": [
        {
          "indexed": true,
          "internalType": "address",
          "name": "pendingOwner",
          "type": "address"
        }
      ],
      "name": "OwnershipHandoverRequested",
      "type": "event"
    },
    {
      "anonymous": false,
      "inputs": [
        {
          "indexed": true,
          "internalType": "address",
          "name": "oldOwner",
          "type": "address"
        },
        {
          "indexed": true,
          "internalType": "address",
          "name": "newOwner",
          "type": "address"
        }
      ],
      "name": "OwnershipTransferred",
      "type": "event"
    },
    {
      "anonymous": false,
      "inputs": [
        {
          "indexed": true,
          "internalType": "address",
          "name": "participant",
          "type": "address"
        },
        {
          "indexed": false,
          "internalType": "bytes32",
          "name": "positionCommitment",
          "type": "bytes32"
        }
      ],
      "name": "Registered",
      "type": "event"
    },
    {
      "anonymous": false,
      "inputs": [
        {
          "indexed": true,
          "internalType": "address",
          "name": "user",
          "type": "address"
        },
        {
          "indexed": true,
          "internalType": "uint256",
          "name": "roles",
          "type": "uint256"
        }
      ],
      "name": "RolesUpdated",
      "type": "event"
    },
    {
      "anonymous": false,
      "inputs": [
        {
          "indexed": true,
          "internalType": "address",
          "name": "from",
          "type": "address"
        },
        {
          "indexed": true,
          "internalType": "address",
          "name": "to",
          "type": "address"
        },
        {
          "indexed": true,
          "internalType": "uint256",
          "name": "id",
          "type": "uint256"
        }
      ],
      "name": "Transfer",
      "type": "event"
    },
    {
      "inputs": [],
      "name": "EDITOR",
      "outputs": [
        {
          "internalType": "uint256",
          "name": "",
          "type": "uint256"
        }
      ],
      "stateMutability": "view",
      "type": "function"
    },
    {
      "inputs": [],
      "name": "GAS_OVERHEAD",
      "outputs": [
        {
          "internalType": "uint256",
          "name": "",
          "type": "uint256"
        }
      ],
      "stateMutability": "view",
      "type": "function"
    },
    {
      "inputs": [],
      "name": "ORACLE",
      "outputs": [
        {
          "internalType": "uint256",
          "name": "",
          "type": "uint256"
        }
      ],
      "stateMutability": "view",
      "type": "function"
    },
    {
      "inputs": [
        {
          "internalType": "address",
          "name": "account",
          "type": "address"
        },
        {
          "internalType": "uint256",
          "name": "id",
          "type": "uint256"
        }
      ],
      "name": "approve",
      "outputs": [],
      "stateMutability": "payable",
      "type": "function"
    },
    {
      "inputs": [
        {
          "internalType": "address",
          "name": "owner",
          "type": "address"
        }
      ],
      "name": "balanceOf",
      "outputs": [
        {
          "internalType": "uint256",
          "name": "result",
          "type": "uint256"
        }
      ],
      "stateMutability": "view",
      "type": "function"
    },
    {
      "inputs": [],
      "name": "cancelOwnershipHandover",
      "outputs": [],
      "stateMutability": "payable",
      "type": "function"
    },
    {
      "inputs": [
        {
          "internalType": "address",
          "name": "pendingOwner",
          "type": "address"
        }
      ],
      "name": "completeOwnershipHandover",
      "outputs": [],
      "stateMutability": "payable",
      "type": "function"
    },
    {
      "inputs": [],
      "name": "contractURI",
      "outputs": [
        {
          "internalType": "string",
          "name": "",
          "type": "string"
        }
      ],
      "stateMutability": "view",
      "type": "function"
    },
    {
      "inputs": [],
      "name": "decryptionKeyCommitment",
      "outputs": [
        {
          "internalType": "bytes32",
          "name": "",
          "type": "bytes32"
        }
      ],
      "stateMutability": "view",
      "type": "function"
    },
    {
      "inputs": [],
      "name": "deposit",
      "outputs": [],
      "stateMutability": "payable",
      "type": "function"
    },
    {
      "inputs": [
        {
          "internalType": "address",
          "name": "",
          "type": "address"
        }
      ],
      "name": "depositBalance",
      "outputs": [
        {
          "internalType": "uint256",
          "name": "",
          "type": "uint256"
        }
      ],
      "stateMutability": "view",
      "type": "function"
    },
    {
      "inputs": [
        {
          "internalType": "uint256",
          "name": "fromTokenId",
          "type": "uint256"
        },
        {
          "internalType": "uint256",
          "name": "toTokenId",
          "type": "uint256"
        }
      ],
      "name": "emitBatchMetadataUpdate",
      "outputs": [],
      "stateMutability": "nonpayable",
      "type": "function"
    },
    {
      "inputs": [],
      "name": "emitContractURIUpdated",
      "outputs": [],
      "stateMutability": "nonpayable",
      "type": "function"
    },
    {
      "inputs": [
        {
          "internalType": "uint256",
          "name": "tokenId",
          "type": "uint256"
        }
      ],
      "name": "emitMetadataUpdate",
      "outputs": [],
      "stateMutability": "nonpayable",
      "type": "function"
    },
    {
      "inputs": [],
      "name": "encounterVerifier",
      "outputs": [
        {
          "internalType": "contract IVerifier",
          "name": "",
          "type": "address"
        }
      ],
      "stateMutability": "view",
      "type": "function"
    },
    {
      "inputs": [
        {
          "internalType": "uint256",
          "name": "",
          "type": "uint256"
        }
      ],
      "name": "entityBlindingSeedCommitments",
      "outputs": [
        {
          "internalType": "bytes32",
          "name": "",
          "type": "bytes32"
        }
      ],
      "stateMutability": "view",
      "type": "function"
    },
    {
      "inputs": [],
      "name": "entityMerkleRoot",
      "outputs": [
        {
          "internalType": "bytes32",
          "name": "",
          "type": "bytes32"
        }
      ],
      "stateMutability": "view",
      "type": "function"
    },
    {
      "inputs": [
        {
          "internalType": "uint256",
          "name": "",
          "type": "uint256"
        }
      ],
      "name": "entityMinted",
      "outputs": [
        {
          "internalType": "bool",
          "name": "",
          "type": "bool"
        }
      ],
      "stateMutability": "view",
      "type": "function"
    },
    {
      "inputs": [
        {
          "internalType": "uint256",
          "name": "",
          "type": "uint256"
        }
      ],
      "name": "entityMoveCount",
      "outputs": [
        {
          "internalType": "uint256",
          "name": "",
          "type": "uint256"
        }
      ],
      "stateMutability": "view",
      "type": "function"
    },
    {
      "inputs": [],
      "name": "entityMovementVerifier",
      "outputs": [
        {
          "internalType": "contract IVerifier",
          "name": "",
          "type": "address"
        }
      ],
      "stateMutability": "view",
      "type": "function"
    },
    {
      "inputs": [
        {
          "internalType": "uint256",
          "name": "",
          "type": "uint256"
        }
      ],
      "name": "entityPositionCommitments",
      "outputs": [
        {
          "internalType": "bytes32",
          "name": "",
          "type": "bytes32"
        }
      ],
      "stateMutability": "view",
      "type": "function"
    },
    {
      "inputs": [
        {
          "internalType": "uint256",
          "name": "",
          "type": "uint256"
        }
      ],
      "name": "entityTraitCID",
      "outputs": [
        {
          "internalType": "bytes32",
          "name": "",
          "type": "bytes32"
        }
      ],
      "stateMutability": "view",
      "type": "function"
    },
    {
      "inputs": [],
      "name": "entityTraitMerkleRoot",
      "outputs": [
        {
          "internalType": "bytes32",
          "name": "",
          "type": "bytes32"
        }
      ],
      "stateMutability": "view",
      "type": "function"
    },
    {
      "inputs": [
        {
          "internalType": "uint256",
          "name": "id",
          "type": "uint256"
        }
      ],
      "name": "getApproved",
      "outputs": [
        {
          "internalType": "address",
          "name": "result",
          "type": "address"
        }
      ],
      "stateMutability": "view",
      "type": "function"
    },
    {
      "inputs": [
        {
          "internalType": "address",
          "name": "user",
          "type": "address"
        },
        {
          "internalType": "uint256",
          "name": "roles",
          "type": "uint256"
        }
      ],
      "name": "grantRoles",
      "outputs": [],
      "stateMutability": "payable",
      "type": "function"
    },
    {
      "inputs": [],
      "name": "gridHeight",
      "outputs": [
        {
          "internalType": "uint256",
          "name": "",
          "type": "uint256"
        }
      ],
      "stateMutability": "view",
      "type": "function"
    },
    {
      "inputs": [],
      "name": "gridWidth",
      "outputs": [
        {
          "internalType": "uint256",
          "name": "",
          "type": "uint256"
        }
      ],
      "stateMutability": "view",
      "type": "function"
    },
    {
      "inputs": [
        {
          "internalType": "address",
          "name": "user",
          "type": "address"
        },
        {
          "internalType": "uint256",
          "name": "roles",
          "type": "uint256"
        }
      ],
      "name": "hasAllRoles",
      "outputs": [
        {
          "internalType": "bool",
          "name": "",
          "type": "bool"
        }
      ],
      "stateMutability": "view",
      "type": "function"
    },
    {
      "inputs": [
        {
          "internalType": "address",
          "name": "user",
          "type": "address"
        },
        {
          "internalType": "uint256",
          "name": "roles",
          "type": "uint256"
        }
      ],
      "name": "hasAnyRole",
      "outputs": [
        {
          "internalType": "bool",
          "name": "",
          "type": "bool"
        }
      ],
      "stateMutability": "view",
      "type": "function"
    },
    {
      "inputs": [
        {
          "internalType": "address",
          "name": "owner",
          "type": "address"
        },
        {
          "internalType": "address",
          "name": "operator",
          "type": "address"
        }
      ],
      "name": "isApprovedForAll",
      "outputs": [
        {
          "internalType": "bool",
          "name": "result",
          "type": "bool"
        }
      ],
      "stateMutability": "view",
      "type": "function"
    },
    {
      "inputs": [
        {
          "internalType": "address",
          "name": "",
          "type": "address"
        }
      ],
      "name": "isParticipant",
      "outputs": [
        {
          "internalType": "bool",
          "name": "",
          "type": "bool"
        }
      ],
      "stateMutability": "view",
      "type": "function"
    },
    {
      "inputs": [],
      "name": "metadataContract",
      "outputs": [
        {
          "internalType": "address",
          "name": "",
          "type": "address"
        }
      ],
      "stateMutability": "view",
      "type": "function"
    },
    {
      "inputs": [
        {
          "internalType": "uint256",
          "name": "entityId",
          "type": "uint256"
        },
        {
          "internalType": "bytes",
          "name": "encounterProof",
          "type": "bytes"
        },
        {
          "internalType": "bytes32",
          "name": "_entityTraitCID",
          "type": "bytes32"
        },
        {
          "internalType": "bytes32",
          "name": "initialPositionCommitment",
          "type": "bytes32"
        },
        {
          "internalType": "bytes32",
          "name": "blindingSeedCommitment",
          "type": "bytes32"
        },
        {
          "internalType": "bytes32[]",
          "name": "traitMerkleProof",
          "type": "bytes32[]"
        }
      ],
      "name": "mint",
      "outputs": [],
      "stateMutability": "payable",
      "type": "function"
    },
    {
      "inputs": [],
      "name": "mintPrice",
      "outputs": [
        {
          "internalType": "uint256",
          "name": "",
          "type": "uint256"
        }
      ],
      "stateMutability": "view",
      "type": "function"
    },
    {
      "inputs": [
        {
          "internalType": "bytes",
          "name": "proof",
          "type": "bytes"
        },
        {
          "internalType": "bytes32",
          "name": "newPositionCommitment",
          "type": "bytes32"
        }
      ],
      "name": "move",
      "outputs": [],
      "stateMutability": "nonpayable",
      "type": "function"
    },
    {
      "inputs": [],
      "name": "moveCounter",
      "outputs": [
        {
          "internalType": "uint256",
          "name": "",
          "type": "uint256"
        }
      ],
      "stateMutability": "view",
      "type": "function"
    },
    {
      "inputs": [
        {
          "internalType": "uint256",
          "name": "entityId",
          "type": "uint256"
        },
        {
          "internalType": "bytes",
          "name": "proof",
          "type": "bytes"
        },
        {
          "internalType": "bytes32",
          "name": "newPositionCommitment",
          "type": "bytes32"
        },
        {
          "internalType": "bytes32",
          "name": "directionCommitment",
          "type": "bytes32"
        }
      ],
      "name": "moveEntity",
      "outputs": [],
      "stateMutability": "nonpayable",
      "type": "function"
    },
    {
      "inputs": [],
      "name": "movementVerifier",
      "outputs": [
        {
          "internalType": "contract IVerifier",
          "name": "",
          "type": "address"
        }
      ],
      "stateMutability": "view",
      "type": "function"
    },
    {
      "inputs": [],
      "name": "name",
      "outputs": [
        {
          "internalType": "string",
          "name": "",
          "type": "string"
        }
      ],
      "stateMutability": "pure",
      "type": "function"
    },
    {
      "inputs": [],
      "name": "owner",
      "outputs": [
        {
          "internalType": "address",
          "name": "result",
          "type": "address"
        }
      ],
      "stateMutability": "view",
      "type": "function"
    },
    {
      "inputs": [
        {
          "internalType": "uint256",
          "name": "id",
          "type": "uint256"
        }
      ],
      "name": "ownerOf",
      "outputs": [
        {
          "internalType": "address",
          "name": "result",
          "type": "address"
        }
      ],
      "stateMutability": "view",
      "type": "function"
    },
    {
      "inputs": [
        {
          "internalType": "address",
          "name": "pendingOwner",
          "type": "address"
        }
      ],
      "name": "ownershipHandoverExpiresAt",
      "outputs": [
        {
          "internalType": "uint256",
          "name": "result",
          "type": "uint256"
        }
      ],
      "stateMutability": "view",
      "type": "function"
    },
    {
      "inputs": [
        {
          "internalType": "address",
          "name": "",
          "type": "address"
        }
      ],
      "name": "participantMoveCount",
      "outputs": [
        {
          "internalType": "uint256",
          "name": "",
          "type": "uint256"
        }
      ],
      "stateMutability": "view",
      "type": "function"
    },
    {
      "inputs": [
        {
          "internalType": "address",
          "name": "",
          "type": "address"
        }
      ],
      "name": "positionCommitments",
      "outputs": [
        {
          "internalType": "bytes32",
          "name": "",
          "type": "bytes32"
        }
      ],
      "stateMutability": "view",
      "type": "function"
    },
    {
      "inputs": [
        {
          "internalType": "bytes32",
          "name": "initialPositionCommitment",
          "type": "bytes32"
        },
        {
          "internalType": "bytes",
          "name": "oracleSignature",
          "type": "bytes"
        }
      ],
      "name": "register",
      "outputs": [],
      "stateMutability": "nonpayable",
      "type": "function"
    },
    {
      "inputs": [
        {
          "internalType": "address",
          "name": "participant",
          "type": "address"
        },
        {
          "internalType": "bytes",
          "name": "proof",
          "type": "bytes"
        },
        {
          "internalType": "bytes32",
          "name": "newPositionCommitment",
          "type": "bytes32"
        }
      ],
      "name": "relayMove",
      "outputs": [],
      "stateMutability": "nonpayable",
      "type": "function"
    },
    {
      "inputs": [],
      "name": "renounceOwnership",
      "outputs": [],
      "stateMutability": "payable",
      "type": "function"
    },
    {
      "inputs": [
        {
          "internalType": "uint256",
          "name": "roles",
          "type": "uint256"
        }
      ],
      "name": "renounceRoles",
      "outputs": [],
      "stateMutability": "payable",
      "type": "function"
    },
    {
      "inputs": [],
      "name": "requestOwnershipHandover",
      "outputs": [],
      "stateMutability": "payable",
      "type": "function"
    },
    {
      "inputs": [
        {
          "internalType": "address",
          "name": "user",
          "type": "address"
        },
        {
          "internalType": "uint256",
          "name": "roles",
          "type": "uint256"
        }
      ],
      "name": "revokeRoles",
      "outputs": [],
      "stateMutability": "payable",
      "type": "function"
    },
    {
      "inputs": [
        {
          "internalType": "address",
          "name": "user",
          "type": "address"
        }
      ],
      "name": "rolesOf",
      "outputs": [
        {
          "internalType": "uint256",
          "name": "roles",
          "type": "uint256"
        }
      ],
      "stateMutability": "view",
      "type": "function"
    },
    {
      "inputs": [
        {
          "internalType": "address",
          "name": "from",
          "type": "address"
        },
        {
          "internalType": "address",
          "name": "to",
          "type": "address"
        },
        {
          "internalType": "uint256",
          "name": "id",
          "type": "uint256"
        }
      ],
      "name": "safeTransferFrom",
      "outputs": [],
      "stateMutability": "payable",
      "type": "function"
    },
    {
      "inputs": [
        {
          "internalType": "address",
          "name": "from",
          "type": "address"
        },
        {
          "internalType": "address",
          "name": "to",
          "type": "address"
        },
        {
          "internalType": "uint256",
          "name": "id",
          "type": "uint256"
        },
        {
          "internalType": "bytes",
          "name": "data",
          "type": "bytes"
        }
      ],
      "name": "safeTransferFrom",
      "outputs": [],
      "stateMutability": "payable",
      "type": "function"
    },
    {
      "inputs": [],
      "name": "seedCommitment",
      "outputs": [
        {
          "internalType": "bytes32",
          "name": "",
          "type": "bytes32"
        }
      ],
      "stateMutability": "view",
      "type": "function"
    },
    {
      "inputs": [
        {
          "internalType": "address",
          "name": "operator",
          "type": "address"
        },
        {
          "internalType": "bool",
          "name": "isApproved",
          "type": "bool"
        }
      ],
      "name": "setApprovalForAll",
      "outputs": [],
      "stateMutability": "nonpayable",
      "type": "function"
    },
    {
      "inputs": [
        {
          "internalType": "address",
          "name": "_metadataContract",
          "type": "address"
        }
      ],
      "name": "setMetadataContract",
      "outputs": [],
      "stateMutability": "nonpayable",
      "type": "function"
    },
    {
      "inputs": [
        {
          "internalType": "bytes4",
          "name": "interfaceId",
          "type": "bytes4"
        }
      ],
      "name": "supportsInterface",
      "outputs": [
        {
          "internalType": "bool",
          "name": "",
          "type": "bool"
        }
      ],
      "stateMutability": "view",
      "type": "function"
    },
    {
      "inputs": [],
      "name": "symbol",
      "outputs": [
        {
          "internalType": "string",
          "name": "",
          "type": "string"
        }
      ],
      "stateMutability": "pure",
      "type": "function"
    },
    {
      "inputs": [],
      "name": "terrainMerkleRoot",
      "outputs": [
        {
          "internalType": "bytes32",
          "name": "",
          "type": "bytes32"
        }
      ],
      "stateMutability": "view",
      "type": "function"
    },
    {
      "inputs": [
        {
          "internalType": "uint256",
          "name": "tokenId",
          "type": "uint256"
        }
      ],
      "name": "tokenURI",
      "outputs": [
        {
          "internalType": "string",
          "name": "",
          "type": "string"
        }
      ],
      "stateMutability": "view",
      "type": "function"
    },
    {
      "inputs": [],
      "name": "totalDeposits",
      "outputs": [
        {
          "internalType": "uint256",
          "name": "",
          "type": "uint256"
        }
      ],
      "stateMutability": "view",
      "type": "function"
    },
    {
      "inputs": [],
      "name": "totalMinted",
      "outputs": [
        {
          "internalType": "uint256",
          "name": "",
          "type": "uint256"
        }
      ],
      "stateMutability": "view",
      "type": "function"
    },
    {
      "inputs": [],
      "name": "totalSupply",
      "outputs": [
        {
          "internalType": "uint256",
          "name": "",
          "type": "uint256"
        }
      ],
      "stateMutability": "view",
      "type": "function"
    },
    {
      "inputs": [
        {
          "internalType": "address",
          "name": "from",
          "type": "address"
        },
        {
          "internalType": "address",
          "name": "to",
          "type": "address"
        },
        {
          "internalType": "uint256",
          "name": "id",
          "type": "uint256"
        }
      ],
      "name": "transferFrom",
      "outputs": [],
      "stateMutability": "payable",
      "type": "function"
    },
    {
      "inputs": [
        {
          "internalType": "address",
          "name": "newOwner",
          "type": "address"
        }
      ],
      "name": "transferOwnership",
      "outputs": [],
      "stateMutability": "payable",
      "type": "function"
    },
    {
      "inputs": [],
      "name": "withdraw",
      "outputs": [],
      "stateMutability": "nonpayable",
      "type": "function"
    },
    {
      "inputs": [
        {
          "internalType": "uint256",
          "name": "amount",
          "type": "uint256"
        }
      ],
      "name": "withdrawDeposit",
      "outputs": [],
      "stateMutability": "nonpayable",
      "type": "function"
    }
  ],
  "transactionHash": "0x408a72658d977691a7292f8b038b4d19ba7339181c35d207b84cbaf0c4f42ef0",
  "args": [
    "0x13f2c53a52a81163cc2cf4d7acfa1084bb9a8aec66301a2fc1e2412c197a9c8d",
    "0x0000000000000000000000000000000000000000000000000000000000000000",
    "0x59244f7792c0934dfeccd2da19ec088a817700f7ea9c889408b87028f6c88f83",
    "0x0000000000000000000000000000000000000000000000000000000000000000",
    "32",
    "32",
    "32",
    "200000000000000000",
    "0xCf7Ed3AccA5a467e9e704C703E8D87F634fB0Fc9",
    "0xDc64a140Aa3E981100a9becA4E685f962f0cF6C9",
    "0x5FC8d32690cc91D4c39d9d3abcBD16989F875707",
    "0x0d4e0b01b698ee8473aba405a62d70ed1756f750e73611ee5d7eff165ea44dc9",
    "0xf39Fd6e51aad88F6F4ce6aB8827279cffFb92266"
  ],
  "numDeployments": 1,
  "solcInputHash": "535a7cb49c14bb48285d338599b4c0e6",
  "bytecode": "0x6102003461020357601f61285a38819003918201601f19168301916001600160401b03831184841017610207578084926101a09460405283398101031261020357805190602081015160408201516060830151608084015160a085015160c08601519060e087015192610075610100890161021b565b946100836101208a0161021b565b966100916101408b0161021b565b986100a56101806101608d01519c0161021b565b60809c909c5260a05260c0526101c05260e0526101005261012052610140526001600160a01b0390811661016052908116610180529081166101a0526101e09190915216638b78c6d8198190555f7f8be0079c531659141344cd1fd0a4f28419497f9722a3daafe3b4186f6b6457e08180a360405161262a908161023082396080518181816106440152611584015260a0518161154a015260c05181818161037401526107a3015260e05181818161069001528181610d1a01528181610ff20152818161166c01526119690152610100518181816106bb01528181610d450152818161101d015281816116970152611e2d01526101205181611df30152610140518181816105fb01526115be01526101605181818161047001528181610d9001526116e2015261018051818181610a2c015261109f01526101a05181818161071c0152611faf01526101c051816113d701526101e051816103ae0152f35b5f80fd5b634e487b7160e01b5f52604160045260245ffd5b51906001600160a01b03821682036102035756fe6080806040526004361015610012575f80fd5b5f3560e01c90816301ffc9a714611fde5750806302deb69f14611f9a57806306fdde0314611f56578063081812fc14611f05578063095ea7b314611e50578063108c5e1414611e1657806318160ddd14611ddc578063183a4f6e14611dc45780631c10893f14611d645780631cd64df414611d2b57806323b872dd14611d195780632569296214611cd05780632a28e5a314611b1a5780632b062c9d14611aeb5780632de9480714611ab95780633190b9ea14611a5a57806333289a46146119cf57806335209821146119a757806338013f021461198c57806338b145df146119525780633ccfd60b1461190757806342842e0e146118ce57806348f640d9146118b25780634a4ee7b11461188a578063514e62fc14611852578063533b7d351461181a57806354d1f13d146117d65780636352211e146117a65780636400dc96146115e15780636817c76c146115a75780636bec43431461156d5780636d5ebcc91461153357806370a08231146114e0578063715018a6146114975780637b27be5c1461146d5780637d882097146114505780637f377036146113fa57806383687e9b146113c05780638da5cb5b14611394578063929066f514611357578063956501bb1461131f57806395d89b41146112e0578063968ec223146112a85780639e8d31d51461128d578063a22cb4651461121b578063a2309ff8146111fe578063a483011414611198578063a730cdfb1461117c578063aa0d188d14610f41578063b02feb8314610c5d578063b88d4fde14610bf2578063bd7f1f2d14610bc8578063c87b56dd14610b32578063d019b41914610b08578063d0e30db014610a5b578063d29e1cdd14610a17578063e5187f4314610980578063e55fa46f14610567578063e8a3d485146104e3578063e985e9c51461049f578063e9ab04881461045b578063f04e283e1461040e578063f2fde38b146103d1578063f815100a14610397578063f952808c1461035d578063fb2b3e45146103335763fee81cf4146102fd575f80fd5b3461032f57602036600319011261032f57610316612087565b63389a75e1600c525f52602080600c2054604051908152f35b5f80fd5b3461032f57602036600319011261032f576004355f52600a602052602060405f2054604051908152f35b3461032f575f36600319011261032f5760206040517f00000000000000000000000000000000000000000000000000000000000000008152f35b3461032f575f36600319011261032f5760206040517f00000000000000000000000000000000000000000000000000000000000000008152f35b602036600319011261032f576103e5612087565b6103ed61247f565b8060601b15610401576103ff90612572565b005b637448fbae5f526004601cfd5b602036600319011261032f57610422612087565b61042a61247f565b63389a75e1600c52805f526020600c20908154421161044e575f6103ff9255612572565b636f5e88185f526004601cfd5b3461032f575f36600319011261032f576040517f00000000000000000000000000000000000000000000000000000000000000006001600160a01b03168152602090f35b3461032f57604036600319011261032f576104b8612087565b6104c061209d565b601c52670a5a2e7a000000006008525f5260206030600c20546040519015158152f35b3461032f575f36600319011261032f5760025460405163e8a3d48560e01b8152905f90829060049082906001600160a01b03165afa801561055c57610536915f9161053a575b506040519182918261205d565b0390f35b61055691503d805f833e61054e81836120ed565b81019061241c565b82610529565b6040513d5f823e3d90fd5b60c036600319011261032f5760043560243567ffffffffffffffff811161032f57610596903690600401612175565b60443591606435906084359260a43567ffffffffffffffff811161032f573660238201121561032f5780600401359267ffffffffffffffff841161032f5760248460051b8301019236841161032f57885f52600660205260ff60405f205416610971577f0000000000000000000000000000000000000000000000000000000000000000341061096257602090610100926040519361063581866120ed565b60078552601f190136848601377f000000000000000000000000000000000000000000000000000000000000000061066c85612303565b528a61067785612324565b52335f526003835260405f205461068d85612334565b527f00000000000000000000000000000000000000000000000000000000000000006106b885612344565b527f00000000000000000000000000000000000000000000000000000000000000006106e385612354565b52876106ee85612364565b52886106f985612374565b526107186040519485938493633a94343960e21b85526004850161239c565b03817f00000000000000000000000000000000000000000000000000000000000000006001600160a01b03165afa90811561055c575f91610933575b50156109245760405160208101908882528760408201526040815261077a6060826120ed565b51902060405160208101918252602081526107966040826120ed565b519020926108f5575b50507f0000000000000000000000000000000000000000000000000000000000000000036108e657835f52600660205260405f20600160ff19825416179055835f5260076020528260405f2055835f52600860205260405f2055825f52600960205260405f2055815f52600a6020525f604081205561081f600154612401565b600155815f52673ec412a9852d173d60c11b601c5260205f208201820180548060601b6108d95733179055335f52601c600c2060018154019063ffffffff82163302156108c4575581335f7fddf252ad1be2c89b69c2b068fc378daa952ba7f163c4a11628f55a4df523b3ef8180a45f549060405191825260208201527fb843254f335bad03d960d4a0f988ebaae823a93f1bf5f61b6e8702d95d6ee31160403392a3005b67ea553b3401336cea331560021b526004601cfd5b63c991cbb15f526004601cfd5b6305a7e3e960e21b5f5260045ffd5b602401915b602083359182811160051b9081521852602060405f209201918183106108fa57915050858061079f565b6309bde33960e01b5f5260045ffd5b610955915060203d60201161095b575b61094d81836120ed565b810190612384565b88610754565b503d610943565b63cd1c886760e01b5f5260045ffd5b637861c6dd60e01b5f5260045ffd5b3461032f57602036600319011261032f57610999612087565b6109a161247f565b60018060a01b03166bffffffffffffffffffffffff60a01b60025416176002557f6bd5c950a8d8df17f772f5af37cb3655737899cbf903264b9795592da439661c604080515f81525f196020820152a17fa5d4097edda6d87cb9329af83fb3712ef77eeb13738ffe43cc35a4ce305ad9625f80a1005b3461032f575f36600319011261032f576040517f00000000000000000000000000000000000000000000000000000000000000006001600160a01b03168152602090f35b5f36600319011261032f57335f52600560205260ff60405f20541615610af9573415610aea57335f52600b60205260405f20610a9834825461240f565b9055610aa634600c5461240f565b600c55335f52600b60205260405f20546040519034825260208201527f73a19dd210f1a7f902193214c0ee91dd35ee5b4d920cba8d519eca65a7b488ca60403392a2005b63070f6eed60e11b5f5260045ffd5b63aba4733960e01b5f5260045ffd5b3461032f57602036600319011261032f576004355f526007602052602060405f2054604051908152f35b3461032f57602036600319011261032f576004355f818152673ec412a9852d173d60c11b601c526020902081018101546001600160a01b031615610bb95760025460405163c87b56dd60e01b815260048101929092525f90829060249082906001600160a01b03165afa801561055c57610536915f9161053a57506040519182918261205d565b63677510db60e11b5f5260045ffd5b3461032f57602036600319011261032f576004355f526009602052602060405f2054604051908152f35b608036600319011261032f57610c06612087565b610c0e61209d565b9060443560643567ffffffffffffffff811161032f57610c32903690600401612175565b610c408386869794976121a3565b813b610c4857005b6103ff94610c5791369161213f565b926124e0565b3461032f57606036600319011261032f57610c76612087565b60243567ffffffffffffffff811161032f57610c96903690600401612175565b60449291923591610ca56124c5565b6001600160a01b03165f8181526005602052604090205490939060ff1615610af957835f52600b60205260405f205415610aea5760205a9260405192610cec60a0856120ed565b6004845260803684860137865f526003835260405f2054610d0c85612303565b5285610d1785612324565b527f0000000000000000000000000000000000000000000000000000000000000000610d4285612334565b527f0000000000000000000000000000000000000000000000000000000000000000610d6d85612344565b52610d8c6040519485938493633a94343960e21b85526004850161239c565b03817f00000000000000000000000000000000000000000000000000000000000000006001600160a01b03165afa90811561055c575f91610f22575b501561092457827fef343ac8c5429d26f5feb7c5015dd92f57b3d2b664078f8760a48ee9a6d48b756040610e3a94835f52600360205280825f2055610e0d5f54612401565b5f55835f526004602052815f20610e248154612401565b90555f5482519182526020820152a25a9061229a565b9061c3508201809211610f0e573a8202918083043a1490151715610f0e575f808084819481818452600b602052604084205410610efa575b808352600b60205260408320610e8983825461229a565b9055610e9782600c5461229a565b600c55808352600b602052604083205415610ed0575b50335af1610eb96122a7565b5015610ec157005b63019285f360e51b5f5260045ffd5b7fc87f3b3ee7ca0f9af3a516da4106acc27a3087beded91b370b0b2dc25d0d00598380a285610ead565b808352600b60205260408320549150610e72565b634e487b7160e01b5f52601160045260245ffd5b610f3b915060203d60201161095b5761094d81836120ed565b84610dc8565b3461032f57608036600319011261032f5760043560243567ffffffffffffffff811161032f57610f75903690600401612175565b906044359060643592845f52600660205260ff60405f2054161561116d57610f9c856122d6565b336001600160a01b039091160361115e576020906101009260405193610fc281866120ed565b60078552601f19013684860137865f526008835260405f2054610fe485612303565b5284610fef85612324565b527f000000000000000000000000000000000000000000000000000000000000000061101a85612334565b527f000000000000000000000000000000000000000000000000000000000000000061104585612344565b528561105085612354565b52865f526009835260405f205461106685612364565b52865f52600a835260405f205461107c85612374565b5261109b6040519485938493633a94343960e21b85526004850161239c565b03817f00000000000000000000000000000000000000000000000000000000000000006001600160a01b03165afa90811561055c575f9161113f575b5015610924577f693dbee638dd7128a5c028e11bb1fa9f112ab758d39c0ace8774496fd6c5614691604091845f526008602052825f2055835f52600a602052815f206111238154612401565b905561112f5f54612401565b805f5582519182526020820152a2005b611158915060203d60201161095b5761094d81836120ed565b846110d7565b63fef2862960e01b5f5260045ffd5b6381c8314760e01b5f5260045ffd5b3461032f575f36600319011261032f57602060405161c3508152f35b3461032f57604036600319011261032f576002546001600160a01b031633036111f1575b7f6bd5c950a8d8df17f772f5af37cb3655737899cbf903264b9795592da439661c6040805160043581526024356020820152a1005b6111f961249b565b6111bc565b3461032f575f36600319011261032f576020600154604051908152f35b3461032f57604036600319011261032f57611234612087565b60243580151580910361032f5781601c52670a5a2e7a00000000600852335f52806030600c20555f5260018060a01b0316337f17307eab39ab6107e8899845ad3d59bd9653f200f220920489ca2b5937696c3160205fa3005b3461032f575f36600319011261032f57602060405160018152f35b3461032f57602036600319011261032f576001600160a01b036112c9612087565b165f526003602052602060405f2054604051908152f35b3461032f575f36600319011261032f576105366040516113016040826120ed565b6005815264475241535360d81b60208201526040519182918261205d565b3461032f57602036600319011261032f576001600160a01b03611340612087565b165f52600b602052602060405f2054604051908152f35b3461032f57602036600319011261032f576001600160a01b03611378612087565b165f526005602052602060ff60405f2054166040519015158152f35b3461032f575f36600319011261032f57638b78c6d819546040516001600160a01b039091168152602090f35b3461032f575f36600319011261032f5760206040517f00000000000000000000000000000000000000000000000000000000000000008152f35b3461032f575f36600319011261032f576002546001600160a01b03163303611443575b7fa5d4097edda6d87cb9329af83fb3712ef77eeb13738ffe43cc35a4ce305ad9625f80a1005b61144b61249b565b61141d565b3461032f575f36600319011261032f576020600c54604051908152f35b3461032f57602036600319011261032f576004355f526008602052602060405f2054604051908152f35b5f36600319011261032f576114aa61247f565b5f638b78c6d819547f8be0079c531659141344cd1fd0a4f28419497f9722a3daafe3b4186f6b6457e08280a35f638b78c6d81955005b3461032f57602036600319011261032f576114f9612087565b801561152657673ec412a9852d173d60c11b601c525f52602063ffffffff601c600c205416604051908152f35b638f4eb6045f526004601cfd5b3461032f575f36600319011261032f5760206040517f00000000000000000000000000000000000000000000000000000000000000008152f35b3461032f575f36600319011261032f5760206040517f00000000000000000000000000000000000000000000000000000000000000008152f35b3461032f575f36600319011261032f5760206040517f00000000000000000000000000000000000000000000000000000000000000008152f35b3461032f57604036600319011261032f5760043567ffffffffffffffff811161032f57611612903690600401612175565b9060243591335f52600560205260ff60405f20541615610af9576020906040519261163e60a0856120ed565b6004845260803684860137335f526003835260405f205461165e85612303565b528461166985612324565b527f000000000000000000000000000000000000000000000000000000000000000061169485612334565b527f00000000000000000000000000000000000000000000000000000000000000006116bf85612344565b526116de6040519485938493633a94343960e21b85526004850161239c565b03817f00000000000000000000000000000000000000000000000000000000000000006001600160a01b03165afa90811561055c575f91611787575b501561092457335f5260036020528060405f20556117385f54612401565b5f55335f52600460205260405f206117508154612401565b90555f5460405191825260208201527fef343ac8c5429d26f5feb7c5015dd92f57b3d2b664078f8760a48ee9a6d48b7560403392a2005b6117a0915060203d60201161095b5761094d81836120ed565b8261171a565b3461032f57602036600319011261032f5760206117c46004356122d6565b6040516001600160a01b039091168152f35b5f36600319011261032f5763389a75e1600c52335f525f6020600c2055337ffa7b8eab7da67f412cc9575ed43464468f9bfbae89d1675917346ca6d8fe3c925f80a2005b3461032f57602036600319011261032f576001600160a01b0361183b612087565b165f526004602052602060405f2054604051908152f35b3461032f57604036600319011261032f5761186b612087565b638b78c6d8600c525f52602060243581600c2054161515604051908152f35b604036600319011261032f576103ff6118a1612087565b6118a961247f565b602435906125af565b3461032f575f36600319011261032f5760205f54604051908152f35b6118d7366120b3565b6118e481838594956121a3565b823b6118ec57005b6103ff92604051926118ff6020856120ed565b5f84526124e0565b3461032f575f36600319011261032f5761191f6124c5565b5f80808061193047600c549061229a565b335af161193b6122a7565b501561194357005b631d42c86760e21b5f5260045ffd5b3461032f575f36600319011261032f5760206040517f00000000000000000000000000000000000000000000000000000000000000008152f35b3461032f575f36600319011261032f57602060405160028152f35b3461032f575f36600319011261032f576002546040516001600160a01b039091168152602090f35b3461032f57602036600319011261032f57600435335f52600b60205260405f20548111610aea575f80808093338252600b60205260408220611a1282825461229a565b9055611a2081600c5461229a565b600c556040518181527f4482101800a5c2e900f4156e57e05e19ffd7b366cde579553d723fd3abb2180e60203392a2335af161193b6122a7565b3461032f57602036600319011261032f576002546001600160a01b03163303611aac575b7ff8e1a15aba9398e019f0b49df1a4fde98ee17ae345cb5f6b5e2c27f5033e8ce760206040516004358152a1005b611ab461249b565b611a7e565b3461032f57602036600319011261032f57611ad2612087565b638b78c6d8600c525f52602080600c2054604051908152f35b3461032f57602036600319011261032f576004355f526006602052602060ff60405f2054166040519015158152f35b3461032f57604036600319011261032f5760043560243567ffffffffffffffff811161032f573660238201121561032f57611b5f90369060248160040135910161213f565b335f52600560205260ff60405f205416611cc15760405160208101903360601b825283603482015260348152611b966054826120ed565b5190206020527b19457468657265756d205369676e6564204d6573736167653a0a33325f52603c60042090604051916020820191805180604014611ca057604114611bee5750505050505b638baa579f5f526004601cfd5b80606060409201515f1a60205201516060525b5f52516040526020600160805f825afa51905f6060526040523d611c26575050611be1565b638b78c6d8600c525f5260026020600c20541615611c9157335f52600560205260405f20600160ff19825416179055335f5260036020528060405f20556040519081527fb8142d42f05d95abf0a6570799774d59276e49ea32a04d9a4ec316ea4a6886bc60203392a2005b638baa579f60e01b5f5260045ffd5b506040015160ff81901c601b016020526001600160ff1b0316606052611c01565b630ea075bf60e21b5f5260045ffd5b5f36600319011261032f5763389a75e1600c52335f526202a30042016020600c2055337fdbf36a107da19e49527a7176a1babf963b4b0ff8cde35ee35d6cd8f1f9ac7e1d5f80a2005b6103ff611d25366120b3565b916121a3565b3461032f57604036600319011261032f576020611d46612087565b60243590638b78c6d8600c525f528082600c20541614604051908152f35b604036600319011261032f57611d78612087565b611d8061247f565b638b78c6d8600c525f526020600c20602435815417809155600c5160601c7f715ad5ce61fc9595c7b415289d59cf203f23a94fa06f04af7e489a0a76e1fe265f80a3005b602036600319011261032f576103ff600435336125af565b3461032f575f36600319011261032f5760206040517f00000000000000000000000000000000000000000000000000000000000000008152f35b3461032f575f36600319011261032f5760206040517f00000000000000000000000000000000000000000000000000000000000000008152f35b604036600319011261032f57611e64612087565b6024355f818152673ec412a9852d173d60c11b3317601c526020902081018101805491926001600160a01b039081169216908115611ef857829082331433151715611ed4575b600101557f8c5be1e5ebec7d5bd14f71427d1e84f3dd0314c0f7b2291e5b200ac8c7c3b9255f80a4005b9050815f526030600c205415611eeb578290611eaa565b634b6e7f185f526004601cfd5b63ceea21b65f526004601cfd5b3461032f57602036600319011261032f576004355f818152673ec412a9852d173d60c11b601c5260209020810101805460601b15611ef857600101546040516001600160a01b039091168152602090f35b3461032f575f36600319011261032f57610536604051611f776040826120ed565b600a81526954616c6c20477261737360b01b60208201526040519182918261205d565b3461032f575f36600319011261032f576040517f00000000000000000000000000000000000000000000000000000000000000006001600160a01b03168152602090f35b3461032f57602036600319011261032f57600435906001600160e01b0319821680830361032f57602092632483248360e11b821491821561204c575b508115612029575b5015158152f35b905060e01c635b5e139f8114906301ffc9a76380ac58cd82149114171783612022565b63e8a3d48560e01b1491508461201a565b602060409281835280519182918282860152018484015e5f828201840152601f01601f1916010190565b600435906001600160a01b038216820361032f57565b602435906001600160a01b038216820361032f57565b606090600319011261032f576004356001600160a01b038116810361032f57906024356001600160a01b038116810361032f579060443590565b90601f8019910116810190811067ffffffffffffffff82111761210f57604052565b634e487b7160e01b5f52604160045260245ffd5b67ffffffffffffffff811161210f57601f01601f191660200190565b92919261214b82612123565b9161215960405193846120ed565b82948184528183011161032f578281602093845f960137010152565b9181601f8401121561032f5782359167ffffffffffffffff831161032f576020838186019501011161032f57565b5f838152673ec412a9852d173d60c11b3317601c52602090208301830180546001600160a01b03938416939283169281168084148102156122855750825f52816001018054803314853314171561226e575b612265575b50838318189055601c600c205f198154019055815f52601c600c2060018154019063ffffffff821684021561225057557fddf252ad1be2c89b69c2b068fc378daa952ba7f163c4a11628f55a4df523b3ef5f80a4565b67ea553b3401336cea841560021b526004601cfd5b5f90555f6121fa565b6030600c20546121f557634b6e7f185f526004601cfd5b67ceea21b6a1148100901560021b526004601cfd5b91908203918211610f0e57565b3d156122d1573d906122b882612123565b916122c660405193846120ed565b82523d5f602084013e565b606090565b5f818152673ec412a9852d173d60c11b601c5260209020810101546001600160a01b0316908115611ef857565b8051156123105760200190565b634e487b7160e01b5f52603260045260245ffd5b8051600110156123105760400190565b8051600210156123105760600190565b8051600310156123105760800190565b8051600410156123105760a00190565b8051600510156123105760c00190565b8051600610156123105760e00190565b9081602091031261032f5751801515810361032f5790565b91806080916020936040865281604087015260608601375f60608286010152601f801991011683016060810193836060828403019101528451809452019201905f5b8181106123eb5750505090565b82518452602093840193909201916001016123de565b5f198114610f0e5760010190565b91908201809211610f0e57565b60208183031261032f5780519067ffffffffffffffff821161032f570181601f8201121561032f5780519061245082612123565b9261245e60405194856120ed565b8284526020838301011161032f57815f9260208093018386015e8301015290565b638b78c6d81954330361248e57565b6382b429005f526004601cfd5b638b78c6d8195433036124aa57565b638b78c6d8600c52335f5260016020600c2054161561248e57565b638b78c6d8600c52335f5260026020600c2054161561248e57565b9060a46020939460405195869463150b7a028652338787015260018060a01b03166040860152606085015260808085015280518091818060a088015261255e575b505001905f601c8401915af115612550575b5163757a42ff60e11b0161254357565b63d1a57ed65f526004601cfd5b3d15612533573d5f823e3d90fd5b818760c08801920160045afa50805f612521565b60018060a01b031680638b78c6d819547f8be0079c531659141344cd1fd0a4f28419497f9722a3daafe3b4186f6b6457e05f80a3638b78c6d81955565b638b78c6d8600c525f526020600c2090815490811618809155600c5160601c7f715ad5ce61fc9595c7b415289d59cf203f23a94fa06f04af7e489a0a76e1fe265f80a356fea26469706673582212204ae0ddd305b7d4f1945ba9ff5b19e6be81bbbc808240664ff9a7969fbd17d2f764736f6c634300081e0033",
  "devdoc": {
    "details": "ERC-721 + ZK proof verification + deposit/relay architecture.",
    "errors": {
      "AccountBalanceOverflow()": [
        {
          "details": "The recipient's balance has overflowed."
        }
      ],
      "AlreadyInitialized()": [
        {
          "details": "Cannot double-initialize."
        }
      ],
      "BalanceQueryForZeroAddress()": [
        {
          "details": "Cannot query the balance for the zero address."
        }
      ],
      "NewOwnerIsZeroAddress()": [
        {
          "details": "The `newOwner` cannot be the zero address."
        }
      ],
      "NoHandoverRequest()": [
        {
          "details": "The `pendingOwner` does not have a valid handover request."
        }
      ],
      "NotOwnerNorApproved()": [
        {
          "details": "Only the token owner or an approved account can manage the token."
        }
      ],
      "TokenAlreadyExists()": [
        {
          "details": "The token already exists."
        }
      ],
      "TokenDoesNotExist()": [
        {
          "details": "The token does not exist."
        }
      ],
      "TransferFromIncorrectOwner()": [
        {
          "details": "The token must be owned by `from`."
        }
      ],
      "TransferToNonERC721ReceiverImplementer()": [
        {
          "details": "Cannot safely transfer to a contract that does not implement the ERC721Receiver interface."
        }
      ],
      "TransferToZeroAddress()": [
        {
          "details": "Cannot mint or transfer to the zero address."
        }
      ],
      "Unauthorized()": [
        {
          "details": "The caller is not authorized to call the function."
        }
      ]
    },
    "events": {
      "Approval(address,address,uint256)": {
        "details": "Emitted when `owner` enables `account` to manage the `id` token."
      },
      "ApprovalForAll(address,address,bool)": {
        "details": "Emitted when `owner` enables or disables `operator` to manage all of their tokens."
      },
      "OwnershipHandoverCanceled(address)": {
        "details": "The ownership handover to `pendingOwner` has been canceled."
      },
      "OwnershipHandoverRequested(address)": {
        "details": "An ownership handover to `pendingOwner` has been requested."
      },
      "OwnershipTransferred(address,address)": {
        "details": "The ownership is transferred from `oldOwner` to `newOwner`. This event is intentionally kept the same as OpenZeppelin's Ownable to be compatible with indexers and [EIP-173](https://eips.ethereum.org/EIPS/eip-173), despite it not being as lightweight as a single argument event."
      },
      "RolesUpdated(address,uint256)": {
        "details": "The `user`'s roles is updated to `roles`. Each bit of `roles` represents whether the role is set."
      },
      "Transfer(address,address,uint256)": {
        "details": "Emitted when token `id` is transferred from `from` to `to`."
      }
    },
    "kind": "dev",
    "methods": {
      "approve(address,uint256)": {
        "details": "Sets `account` as the approved account to manage token `id`. Requirements: - Token `id` must exist. - The caller must be the owner of the token,   or an approved operator for the token owner. Emits an {Approval} event."
      },
      "balanceOf(address)": {
        "details": "Returns the number of tokens owned by `owner`. Requirements: - `owner` must not be the zero address."
      },
      "cancelOwnershipHandover()": {
        "details": "Cancels the two-step ownership handover to the caller, if any."
      },
      "completeOwnershipHandover(address)": {
        "details": "Allows the owner to complete the two-step ownership handover to `pendingOwner`. Reverts if there is no existing ownership handover requested by `pendingOwner`."
      },
      "getApproved(uint256)": {
        "details": "Returns the account approved to manage token `id`. Requirements: - Token `id` must exist."
      },
      "grantRoles(address,uint256)": {
        "details": "Allows the owner to grant `user` `roles`. If the `user` already has a role, then it will be an no-op for the role."
      },
      "hasAllRoles(address,uint256)": {
        "details": "Returns whether `user` has all of `roles`."
      },
      "hasAnyRole(address,uint256)": {
        "details": "Returns whether `user` has any of `roles`."
      },
      "isApprovedForAll(address,address)": {
        "details": "Returns whether `operator` is approved to manage the tokens of `owner`."
      },
      "mint(uint256,bytes,bytes32,bytes32,bytes32,bytes32[])": {
        "params": {
          "_entityTraitCID": "IPFS CID of encrypted traits.",
          "blindingSeedCommitment": "hash_1(blinding_seed) for direction blinding.",
          "encounterProof": "ZK proof of co-location with entity.",
          "entityId": "The entity to mint.",
          "initialPositionCommitment": "Poseidon(x, y, salt) for entity's starting position.",
          "traitMerkleProof": "Merkle proof of _entityTraitCID against entityTraitMerkleRoot."
        }
      },
      "move(bytes,bytes32)": {
        "params": {
          "newPositionCommitment": "The new Poseidon(x, y, salt) after moving.",
          "proof": "The serialized UltraHonk proof."
        }
      },
      "moveEntity(uint256,bytes,bytes32,bytes32)": {
        "params": {
          "directionCommitment": "Blinded direction commitment.",
          "entityId": "The entity to move (must be owned by msg.sender).",
          "newPositionCommitment": "The new Poseidon(x, y, salt) after moving.",
          "proof": "The serialized UltraHonk proof."
        }
      },
      "name()": {
        "details": "Returns the token collection name."
      },
      "owner()": {
        "details": "Returns the owner of the contract."
      },
      "ownerOf(uint256)": {
        "details": "Returns the owner of token `id`. Requirements: - Token `id` must exist."
      },
      "ownershipHandoverExpiresAt(address)": {
        "details": "Returns the expiry timestamp for the two-step ownership handover to `pendingOwner`."
      },
      "register(bytes32,bytes)": {
        "params": {
          "initialPositionCommitment": "Poseidon(x, y, salt) computed client-side.",
          "oracleSignature": "Oracle signature over (participant, commitment)."
        }
      },
      "renounceOwnership()": {
        "details": "Allows the owner to renounce their ownership."
      },
      "renounceRoles(uint256)": {
        "details": "Allow the caller to remove their own roles. If the caller does not have a role, then it will be an no-op for the role."
      },
      "requestOwnershipHandover()": {
        "details": "Request a two-step ownership handover to the caller. The request will automatically expire in 48 hours (172800 seconds) by default."
      },
      "revokeRoles(address,uint256)": {
        "details": "Allows the owner to remove `user` `roles`. If the `user` does not have a role, then it will be an no-op for the role."
      },
      "rolesOf(address)": {
        "details": "Returns the roles of `user`."
      },
      "safeTransferFrom(address,address,uint256)": {
        "details": "Equivalent to `safeTransferFrom(from, to, id, \"\")`."
      },
      "safeTransferFrom(address,address,uint256,bytes)": {
        "details": "Transfers token `id` from `from` to `to`. Requirements: - Token `id` must exist. - `from` must be the owner of the token. - `to` cannot be the zero address. - The caller must be the owner of the token, or be approved to manage the token. - If `to` refers to a smart contract, it must implement   {IERC721Receiver-onERC721Received}, which is called upon a safe transfer. Emits a {Transfer} event."
      },
      "setApprovalForAll(address,bool)": {
        "details": "Sets whether `operator` is approved to manage the tokens of the caller. Emits an {ApprovalForAll} event."
      },
      "supportsInterface(bytes4)": {
        "details": "Returns true if this contract implements the interface defined by `interfaceId`. See: https://eips.ethereum.org/EIPS/eip-165 This function call must use less than 30000 gas."
      },
      "symbol()": {
        "details": "Returns the token collection symbol."
      },
      "transferFrom(address,address,uint256)": {
        "details": "Transfers token `id` from `from` to `to`. Requirements: - Token `id` must exist. - `from` must be the owner of the token. - `to` cannot be the zero address. - The caller must be the owner of the token, or be approved to manage the token. Emits a {Transfer} event."
      },
      "transferOwnership(address)": {
        "details": "Allows the owner to transfer the ownership to `newOwner`."
      }
    },
    "title": "Tall Grass (Hidden From View)",
    "version": 1
  },
  "userdoc": {
    "kind": "user",
    "methods": {
      "deposit()": {
        "notice": "Deposit ETH for gas relay. Additive, idempotent."
      },
      "mint(uint256,bytes,bytes32,bytes32,bytes32,bytes32[])": {
        "notice": "Mint an encountered entity using a ZK encounter proof."
      },
      "move(bytes,bytes32)": {
        "notice": "Submit a ZK proof of valid movement."
      },
      "moveEntity(uint256,bytes,bytes32,bytes32)": {
        "notice": "Move a minted entity with a ZK proof of valid movement."
      },
      "register(bytes32,bytes)": {
        "notice": "Register as a participant with an oracle-signed position commitment."
      },
      "relayMove(address,bytes,bytes32)": {
        "notice": "Oracle relays a browser-generated movement proof, reimbursed from deposit."
      },
      "withdraw()": {
        "notice": "Withdraw accumulated ETH (mint fees). Oracle-only."
      },
      "withdrawDeposit(uint256)": {
        "notice": "Withdraw deposit balance."
      }
    },
    "notice": "On-chain state for a programmable cryptography art piece by 0xfff.",
    "version": 1
  },
  "storageLayout": {
    "storage": [
      {
        "astId": 12079,
        "contract": "src/TallGrass.sol:TallGrass",
        "label": "moveCounter",
        "offset": 0,
        "slot": "0",
        "type": "t_uint256"
      },
      {
        "astId": 12081,
        "contract": "src/TallGrass.sol:TallGrass",
        "label": "totalMinted",
        "offset": 0,
        "slot": "1",
        "type": "t_uint256"
      },
      {
        "astId": 12083,
        "contract": "src/TallGrass.sol:TallGrass",
        "label": "metadataContract",
        "offset": 0,
        "slot": "2",
        "type": "t_address"
      },
      {
        "astId": 12087,
        "contract": "src/TallGrass.sol:TallGrass",
        "label": "positionCommitments",
        "offset": 0,
        "slot": "3",
        "type": "t_mapping(t_address,t_bytes32)"
      },
      {
        "astId": 12091,
        "contract": "src/TallGrass.sol:TallGrass",
        "label": "participantMoveCount",
        "offset": 0,
        "slot": "4",
        "type": "t_mapping(t_address,t_uint256)"
      },
      {
        "astId": 12095,
        "contract": "src/TallGrass.sol:TallGrass",
        "label": "isParticipant",
        "offset": 0,
        "slot": "5",
        "type": "t_mapping(t_address,t_bool)"
      },
      {
        "astId": 12099,
        "contract": "src/TallGrass.sol:TallGrass",
        "label": "entityMinted",
        "offset": 0,
        "slot": "6",
        "type": "t_mapping(t_uint256,t_bool)"
      },
      {
        "astId": 12103,
        "contract": "src/TallGrass.sol:TallGrass",
        "label": "entityTraitCID",
        "offset": 0,
        "slot": "7",
        "type": "t_mapping(t_uint256,t_bytes32)"
      },
      {
        "astId": 12107,
        "contract": "src/TallGrass.sol:TallGrass",
        "label": "entityPositionCommitments",
        "offset": 0,
        "slot": "8",
        "type": "t_mapping(t_uint256,t_bytes32)"
      },
      {
        "astId": 12111,
        "contract": "src/TallGrass.sol:TallGrass",
        "label": "entityBlindingSeedCommitments",
        "offset": 0,
        "slot": "9",
        "type": "t_mapping(t_uint256,t_bytes32)"
      },
      {
        "astId": 12115,
        "contract": "src/TallGrass.sol:TallGrass",
        "label": "entityMoveCount",
        "offset": 0,
        "slot": "10",
        "type": "t_mapping(t_uint256,t_uint256)"
      },
      {
        "astId": 12119,
        "contract": "src/TallGrass.sol:TallGrass",
        "label": "depositBalance",
        "offset": 0,
        "slot": "11",
        "type": "t_mapping(t_address,t_uint256)"
      },
      {
        "astId": 12121,
        "contract": "src/TallGrass.sol:TallGrass",
        "label": "totalDeposits",
        "offset": 0,
        "slot": "12",
        "type": "t_uint256"
      }
    ],
    "types": {
      "t_address": {
        "encoding": "inplace",
        "label": "address",
        "numberOfBytes": "20"
      },
      "t_bool": {
        "encoding": "inplace",
        "label": "bool",
        "numberOfBytes": "1"
      },
      "t_bytes32": {
        "encoding": "inplace",
        "label": "bytes32",
        "numberOfBytes": "32"
      },
      "t_mapping(t_address,t_bool)": {
        "encoding": "mapping",
        "key": "t_address",
        "label": "mapping(address => bool)",
        "numberOfBytes": "32",
        "value": "t_bool"
      },
      "t_mapping(t_address,t_bytes32)": {
        "encoding": "mapping",
        "key": "t_address",
        "label": "mapping(address => bytes32)",
        "numberOfBytes": "32",
        "value": "t_bytes32"
      },
      "t_mapping(t_address,t_uint256)": {
        "encoding": "mapping",
        "key": "t_address",
        "label": "mapping(address => uint256)",
        "numberOfBytes": "32",
        "value": "t_uint256"
      },
      "t_mapping(t_uint256,t_bool)": {
        "encoding": "mapping",
        "key": "t_uint256",
        "label": "mapping(uint256 => bool)",
        "numberOfBytes": "32",
        "value": "t_bool"
      },
      "t_mapping(t_uint256,t_bytes32)": {
        "encoding": "mapping",
        "key": "t_uint256",
        "label": "mapping(uint256 => bytes32)",
        "numberOfBytes": "32",
        "value": "t_bytes32"
      },
      "t_mapping(t_uint256,t_uint256)": {
        "encoding": "mapping",
        "key": "t_uint256",
        "label": "mapping(uint256 => uint256)",
        "numberOfBytes": "32",
        "value": "t_uint256"
      },
      "t_uint256": {
        "encoding": "inplace",
        "label": "uint256",
        "numberOfBytes": "32"
      }
    }
  }
}